{
    "contractName": "FlareKeeper",
    "abi": [
        {
            "inputs": [],
            "stateMutability": "nonpayable",
            "type": "constructor"
        },
        {
            "anonymous": false,
            "inputs": [
                {
                    "indexed": false,
                    "internalType": "contract IFlareKeep",
                    "name": "theContract",
                    "type": "address"
                },
                {
                    "indexed": false,
                    "internalType": "bool",
                    "name": "add",
                    "type": "bool"
                }
            ],
            "name": "RegisterContractToKeep",
            "type": "event"
        },
        {
            "inputs": [],
            "name": "MAX_KEEP_CONTRACTS",
            "outputs": [
                {
                    "internalType": "uint256",
                    "name": "",
                    "type": "uint256"
                }
            ],
            "stateMutability": "view",
            "type": "function"
        },
        {
            "inputs": [],
            "name": "governanceContract",
            "outputs": [
                {
                    "internalType": "address",
                    "name": "",
                    "type": "address"
                }
            ],
            "stateMutability": "view",
            "type": "function"
        },
        {
            "inputs": [
                {
                    "internalType": "address",
                    "name": "_governance",
                    "type": "address"
                }
            ],
            "name": "initialise",
            "outputs": [],
            "stateMutability": "nonpayable",
            "type": "function"
        },
        {
            "inputs": [
                {
                    "internalType": "uint256",
                    "name": "",
                    "type": "uint256"
                }
            ],
            "name": "keepContracts",
            "outputs": [
                {
                    "internalType": "contract IFlareKeep",
                    "name": "",
                    "type": "address"
                }
            ],
            "stateMutability": "view",
            "type": "function"
        },
        {
            "inputs": [
                {
                    "internalType": "contract IFlareKeep",
                    "name": "_keep",
                    "type": "address"
                }
            ],
            "name": "registerToKeep",
            "outputs": [],
            "stateMutability": "nonpayable",
            "type": "function"
        },
        {
            "inputs": [],
            "name": "systemLastTriggeredAt",
            "outputs": [
                {
                    "internalType": "uint256",
                    "name": "",
                    "type": "uint256"
                }
            ],
            "stateMutability": "view",
            "type": "function"
        },
        {
            "inputs": [],
            "name": "trigger",
            "outputs": [],
            "stateMutability": "nonpayable",
            "type": "function"
        },
        {
            "inputs": [
                {
                    "internalType": "contract IFlareKeep",
                    "name": "_keep",
                    "type": "address"
                }
            ],
            "name": "unregisterToKeep",
            "outputs": [],
            "stateMutability": "nonpayable",
            "type": "function"
        }
    ],
    "bytecode": "608060405234801561001057600080fd5b506106a7806100206000396000f3fe608060405234801561001057600080fd5b50600436106100885760003560e01c8063b172b2221161005b578063b172b222146100df578063c49f561f14610103578063caf874ce14610129578063d11e4c211461014657610088565b806344ed2b151461008d5780637fec8d38146100a75780638be2fb86146100b15780639d6a890f146100b9575b600080fd5b61009561016c565b60408051918252519081900360200190f35b6100af610171565b005b61009561026b565b6100af600480360360208110156100cf57600080fd5b50356001600160a01b0316610271565b6100e76102f7565b604080516001600160a01b039092168252519081900360200190f35b6100af6004803603602081101561011957600080fd5b50356001600160a01b0316610306565b6100e76004803603602081101561013f57600080fd5b50356104c5565b6100af6004803603602081101561015c57600080fd5b50356001600160a01b03166104ef565b600a81565b60015443116101bc576040805162461bcd60e51b8152602060048201526012602482015271189b1bd8dacb9b9d5b58995c881cdb585b1b60721b604482015290519081900360640190fd5b4360015560008054905b8181101561026757600081815481106101db57fe5b9060005260206000200160009054906101000a90046001600160a01b03166001600160a01b031663e4d06d826040518163ffffffff1660e01b8152600401602060405180830381600087803b15801561023357600080fd5b505af1158015610247573d6000803e3d6000fd5b505050506040513d602081101561025d57600080fd5b50506001016101c6565b5050565b60015481565b600254600160a01b900460ff16156102c7576040805162461bcd60e51b8152602060048201526014602482015273696e697469616c6973656420213d2066616c736560601b604482015290519081900360640190fd5b6002805460ff60a01b196001600160a01b039093166001600160a01b03199091161791909116600160a01b179055565b6002546001600160a01b031681565b6002546001600160a01b03163314610365576040805162461bcd60e51b815260206004820181905260248201527f6d73672e73656e64657220213d20676f7665726e616e6365436f6e7472616374604482015290519081900360640190fd5b60008054905b8181101561047e576000818154811061038057fe5b6000918252602090912001546001600160a01b038481169116141561047657600060018303815481106103af57fe5b600091825260208220015481546001600160a01b039091169190839081106103d357fe5b6000918252602082200180546001600160a01b0319166001600160a01b03939093169290921790915580548061040557fe5b60008281526020808220830160001990810180546001600160a01b0319169055909201909255604080516001600160a01b03871681529182019290925281517f7b11c8af33e77c52fff95f7c830b6b76307fde6ed54c82a4aa96457ac07d2c72929181900390910190a150506104c2565b60010161036b565b506040805162461bcd60e51b815260206004820152601360248201527210d85b89dd08199a5b990818dbdb9d1c9858dd606a1b604482015290519081900360640190fd5b50565b600081815481106104d557600080fd5b6000918252602090912001546001600160a01b0316905081565b6002546001600160a01b0316331461054e576040805162461bcd60e51b815260206004820181905260248201527f6d73672e73656e64657220213d20676f7665726e616e6365436f6e7472616374604482015290519081900360640190fd5b600054600a600182011061059e576040805162461bcd60e51b8152602060048201526012602482015271546f6f206d616e7920636f6e74726163747360701b604482015290519081900360640190fd5b60005b818110156105e457600081815481106105b657fe5b6000918252602090912001546001600160a01b03848116911614156105dc5750506104c2565b6001016105a1565b5060008054600180820183559180527f290decd9548b62a8d60345a988386fc84ba6bc95484008f6362f93160ef3e5630180546001600160a01b0319166001600160a01b03851690811790915560408051918252602082019290925281517f7b11c8af33e77c52fff95f7c830b6b76307fde6ed54c82a4aa96457ac07d2c72929181900390910190a1505056fea26469706673582212209d8987b4893f97f9874d79bc52657593a74d06b674c357c48083b893e5d96bbd64736f6c63430007060033",
    "sourcePath": "/home/my-usern/flare/sean/contracts/FlareKeeper.sol",
    "compiler": {
        "name": "solc",
        "version": "0.7.6+commit.7338295f"
    },
    "functionHashes": {
        "MAX_KEEP_CONTRACTS()": "44ed2b15",
        "governanceContract()": "b172b222",
        "initialise(address)": "9d6a890f",
        "keepContracts(uint256)": "caf874ce",
        "registerToKeep(address)": "d11e4c21",
        "systemLastTriggeredAt()": "8be2fb86",
        "trigger()": "7fec8d38",
        "unregisterToKeep(address)": "c49f561f"
    },
    "gasEstimates": {
        "creation": {
            "codeDepositCost": "340600",
            "executionCost": "380",
            "totalCost": "340980"
        },
        "external": {
            "MAX_KEEP_CONTRACTS()": "199",
            "governanceContract()": "1037",
            "initialise(address)": "22013",
            "keepContracts(uint256)": "2014",
            "registerToKeep(address)": "infinite",
            "systemLastTriggeredAt()": "1043",
            "trigger()": "infinite",
            "unregisterToKeep(address)": "infinite"
        }
    }
}