{
    "contractName": "StateConnector",
    "abi": [
        {
            "inputs": [],
            "stateMutability": "nonpayable",
            "type": "constructor"
        },
        {
            "inputs": [
                {
                    "internalType": "uint64",
                    "name": "genesisLedger",
                    "type": "uint64"
                },
                {
                    "internalType": "uint16",
                    "name": "claimPeriodLength",
                    "type": "uint16"
                },
                {
                    "internalType": "uint16",
                    "name": "numConfirmations",
                    "type": "uint16"
                },
                {
                    "internalType": "uint256",
                    "name": "timeDiffExpected",
                    "type": "uint256"
                }
            ],
            "name": "addChain",
            "outputs": [
                {
                    "internalType": "uint32",
                    "name": "currNumChains",
                    "type": "uint32"
                }
            ],
            "stateMutability": "nonpayable",
            "type": "function"
        },
        {
            "inputs": [
                {
                    "internalType": "uint32",
                    "name": "chainId",
                    "type": "uint32"
                }
            ],
            "name": "disableChain",
            "outputs": [],
            "stateMutability": "nonpayable",
            "type": "function"
        },
        {
            "inputs": [
                {
                    "internalType": "uint32",
                    "name": "chainId",
                    "type": "uint32"
                }
            ],
            "name": "enableChain",
            "outputs": [],
            "stateMutability": "nonpayable",
            "type": "function"
        },
        {
            "inputs": [
                {
                    "internalType": "uint32",
                    "name": "chainId",
                    "type": "uint32"
                },
                {
                    "internalType": "uint64",
                    "name": "claimPeriodIndex",
                    "type": "uint64"
                }
            ],
            "name": "getClaimPeriodIndexFinality",
            "outputs": [
                {
                    "internalType": "bool",
                    "name": "finality",
                    "type": "bool"
                }
            ],
            "stateMutability": "view",
            "type": "function"
        },
        {
            "inputs": [
                {
                    "internalType": "address",
                    "name": "miner",
                    "type": "address"
                }
            ],
            "name": "getClaimPeriodsMined",
            "outputs": [
                {
                    "internalType": "uint64",
                    "name": "numMined",
                    "type": "uint64"
                }
            ],
            "stateMutability": "view",
            "type": "function"
        },
        {
            "inputs": [],
            "name": "getGovernanceContract",
            "outputs": [
                {
                    "internalType": "address",
                    "name": "_governanceContract",
                    "type": "address"
                }
            ],
            "stateMutability": "view",
            "type": "function"
        },
        {
            "inputs": [
                {
                    "internalType": "uint32",
                    "name": "chainId",
                    "type": "uint32"
                }
            ],
            "name": "getLatestIndex",
            "outputs": [
                {
                    "internalType": "uint64",
                    "name": "genesisLedger",
                    "type": "uint64"
                },
                {
                    "internalType": "uint64",
                    "name": "finalisedClaimPeriodIndex",
                    "type": "uint64"
                },
                {
                    "internalType": "uint16",
                    "name": "claimPeriodLength",
                    "type": "uint16"
                },
                {
                    "internalType": "uint64",
                    "name": "finalisedLedgerIndex",
                    "type": "uint64"
                },
                {
                    "internalType": "uint256",
                    "name": "finalisedTimestamp",
                    "type": "uint256"
                },
                {
                    "internalType": "uint256",
                    "name": "timeDiffAvg",
                    "type": "uint256"
                }
            ],
            "stateMutability": "view",
            "type": "function"
        },
        {
            "inputs": [
                {
                    "internalType": "uint32",
                    "name": "chainId",
                    "type": "uint32"
                },
                {
                    "internalType": "bytes32",
                    "name": "txId",
                    "type": "bytes32"
                },
                {
                    "internalType": "uint64",
                    "name": "ledger",
                    "type": "uint64"
                },
                {
                    "internalType": "bytes32",
                    "name": "sourceHash",
                    "type": "bytes32"
                },
                {
                    "internalType": "bytes32",
                    "name": "destinationHash",
                    "type": "bytes32"
                },
                {
                    "internalType": "uint64",
                    "name": "destinationTag",
                    "type": "uint64"
                },
                {
                    "internalType": "uint64",
                    "name": "amount",
                    "type": "uint64"
                }
            ],
            "name": "getPaymentFinality",
            "outputs": [
                {
                    "internalType": "bool",
                    "name": "finality",
                    "type": "bool"
                },
                {
                    "internalType": "uint256",
                    "name": "timestamp",
                    "type": "uint256"
                }
            ],
            "stateMutability": "view",
            "type": "function"
        },
        {
            "inputs": [],
            "name": "initialiseChains",
            "outputs": [
                {
                    "internalType": "bool",
                    "name": "success",
                    "type": "bool"
                }
            ],
            "stateMutability": "nonpayable",
            "type": "function"
        },
        {
            "inputs": [
                {
                    "internalType": "uint32",
                    "name": "chainId",
                    "type": "uint32"
                },
                {
                    "internalType": "uint64",
                    "name": "ledger",
                    "type": "uint64"
                },
                {
                    "internalType": "uint64",
                    "name": "claimPeriodIndex",
                    "type": "uint64"
                },
                {
                    "internalType": "bytes32",
                    "name": "claimPeriodHash",
                    "type": "bytes32"
                }
            ],
            "name": "proveClaimPeriodFinality",
            "outputs": [
                {
                    "internalType": "uint32",
                    "name": "_chainId",
                    "type": "uint32"
                },
                {
                    "internalType": "uint64",
                    "name": "_ledger",
                    "type": "uint64"
                },
                {
                    "internalType": "uint16",
                    "name": "_numConfirmations",
                    "type": "uint16"
                },
                {
                    "internalType": "bytes32",
                    "name": "_claimPeriodHash",
                    "type": "bytes32"
                }
            ],
            "stateMutability": "nonpayable",
            "type": "function"
        },
        {
            "inputs": [
                {
                    "internalType": "uint32",
                    "name": "chainId",
                    "type": "uint32"
                },
                {
                    "internalType": "uint64",
                    "name": "claimPeriodIndex",
                    "type": "uint64"
                },
                {
                    "internalType": "bytes32",
                    "name": "claimPeriodHash",
                    "type": "bytes32"
                },
                {
                    "internalType": "bytes32",
                    "name": "paymentHash",
                    "type": "bytes32"
                },
                {
                    "internalType": "string",
                    "name": "txId",
                    "type": "string"
                }
            ],
            "name": "provePaymentFinality",
            "outputs": [
                {
                    "internalType": "uint32",
                    "name": "_chainId",
                    "type": "uint32"
                },
                {
                    "internalType": "uint64",
                    "name": "finalisedLedgerIndex",
                    "type": "uint64"
                },
                {
                    "internalType": "bytes32",
                    "name": "_paymentHash",
                    "type": "bytes32"
                },
                {
                    "internalType": "string",
                    "name": "_txId",
                    "type": "string"
                }
            ],
            "stateMutability": "nonpayable",
            "type": "function"
        },
        {
            "inputs": [
                {
                    "internalType": "address",
                    "name": "_governanceContract",
                    "type": "address"
                }
            ],
            "name": "setGovernanceContract",
            "outputs": [],
            "stateMutability": "nonpayable",
            "type": "function"
        },
        {
            "inputs": [
                {
                    "internalType": "uint32",
                    "name": "chainId",
                    "type": "uint32"
                },
                {
                    "internalType": "uint256",
                    "name": "timeDiffExpected",
                    "type": "uint256"
                }
            ],
            "name": "updateChainTiming",
            "outputs": [],
            "stateMutability": "nonpayable",
            "type": "function"
        }
    ],
    "bytecode": "608060405234801561001057600080fd5b50611f02806100206000396000f3fe608060405234801561001057600080fd5b50600436106100cf5760003560e01c8063a57d0e251161008c578063ef2fa85f11610066578063ef2fa85f146104b0578063ef4c169e146104d4578063efe78272146104dc578063ff695ef01461051e576100cf565b8063a57d0e25146103cd578063c1b0e57414610447578063e54caf921461046a576100cf565b80631129753f146100d457806313bb431c146100fc5780631d4ded8e146102655780632a2434a2146102be5780634cf5913314610339578063a060b647146103aa575b600080fd5b6100fa600480360360208110156100ea57600080fd5b50356001600160a01b0316610547565b005b6101c9600480360360a081101561011257600080fd5b63ffffffff823516916001600160401b036020820135169160408201359160608101359181019060a08101608082013564010000000081111561015457600080fd5b82018360208201111561016657600080fd5b8035906020019184600183028401116401000000008311171561018857600080fd5b91908080601f016020809104026020016040519081016040528093929190818152602001838380828437600092019190915250929550610611945050505050565b604051808563ffffffff168152602001846001600160401b0316815260200183815260200180602001828103825283818151815260200191508051906020019080838360005b8381101561022757818101518382015260200161020f565b50505050905090810190601f1680156102545780820380516001836020036101000a031916815260200191505b509550505050505060405180910390f35b6102a56004803603608081101561027b57600080fd5b506001600160401b038135169061ffff6020820135811691604081013590911690606001356108b5565b6040805163ffffffff9092168252519081900360200190f35b6102e1600480360360208110156102d457600080fd5b503563ffffffff16610c45565b60405180876001600160401b03168152602001866001600160401b031681526020018561ffff168152602001846001600160401b03168152602001838152602001828152602001965050505050505060405180910390f35b61038f600480360360e081101561034f57600080fd5b5063ffffffff813516906020810135906001600160401b03604082013581169160608101359160808201359160a081013582169160c09091013516610d0a565b60408051921515835260208301919091528051918290030190f35b6100fa600480360360208110156103c057600080fd5b503563ffffffff16610f2d565b61040f600480360360808110156103e357600080fd5b5063ffffffff813516906001600160401b03602082013581169160408101359091169060600135610ff3565b6040805163ffffffff90951685526001600160401b03909316602085015261ffff909116838301526060830152519081900360800190f35b6100fa6004803603602081101561045d57600080fd5b503563ffffffff16611706565b61049c6004803603604081101561048057600080fd5b50803563ffffffff1690602001356001600160401b0316611840565b604080519115158252519081900360200190f35b6104b86118fa565b604080516001600160a01b039092168252519081900360200190f35b61049c611909565b610502600480360360208110156104f257600080fd5b50356001600160a01b0316611b79565b604080516001600160401b039092168252519081900360200190f35b6100fa6004803603604081101561053457600080fd5b5063ffffffff8135169060200135611b9d565b6000546001600160a01b03163314610594576040805162461bcd60e51b81526020600482018190526024820152600080516020611e31833981519152604482015290519081900360640190fd5b6001600160a01b0381166105ef576040805162461bcd60e51b815260206004820152601a60248201527f5f676f7665726e616e6365436f6e7472616374203d3d20307830000000000000604482015290519081900360640190fd5b600080546001600160a01b0319166001600160a01b0392909216919091179055565b63ffffffff851660009081526001602052604081205481908190606090899060ff16610672576040805162461bcd60e51b81526020600482015260166024820152600080516020611ead833981519152604482015290519081900360640190fd5b6000866040516020018082805190602001908083835b602083106106a75780518252601f199092019160209182019101610688565b6001836020036101000a038019825116818451168082178552505050505050905001915050604051602081830303815290604052805190602001209050600360008c63ffffffff1663ffffffff168152602001908152602001600020600082815260200190815260200160002060000160009054906101000a900460ff161561076d576040805162461bcd60e51b81526020600482015260136024820152723a3c24b21030b63932b0b23c90383937bb32b760691b604482015290519081900360640190fd5b600061077a8a8d8d611c61565b90504133148061078d575041600160981b145b6107de576040805162461bcd60e51b815260206004820152601c60248201527f496e76616c696420626c6f636b2e636f696e626173652076616c756500000000604482015290519081900360640190fd5b41331480156107f1575041600160981b14155b1561087c5760405180606001604052806001151581526020018a815260200182815250600360008e63ffffffff1663ffffffff168152602001908152602001600020600084815260200190815260200160002060008201518160000160006101000a81548160ff02191690831515021790555060208201518160010155604082015181600201559050505b5050505063ffffffff88166000908152600160205260409020549798600160a81b9098046001600160401b031697949650929450505050565b600080546001600160a01b03163314610903576040805162461bcd60e51b81526020600482018190526024820152600080516020611e31833981519152604482015290519081900360640190fd5b60008054600160a81b900463ffffffff1681526001602052604090205460ff161561096e576040805162461bcd60e51b8152602060048201526016602482015275636861696e496420616c72656164792065786973747360501b604482015290519081900360640190fd5b60008461ffff16116109c0576040805162461bcd60e51b81526020600482015260166024820152750636c61696d506572696f644c656e677468203d3d20360541b604482015290519081900360640190fd5b6000546001600160a01b03164114806109dc575041600160981b145b610a2d576040805162461bcd60e51b815260206004820152601c60248201527f496e76616c696420626c6f636b2e636f696e626173652076616c756500000000604482015290519081900360640190fd5b600054600160a81b810463ffffffff16906001600160a01b031641148015610a59575041600160981b14155b15610c3c57604051806101200160405280600115158152602001876001600160401b031681526020018661ffff1681526020018561ffff16815260200160006001600160401b03168152602001876001600160401b031681526020014281526020018481526020016000815250600160008060159054906101000a900463ffffffff1663ffffffff1663ffffffff16815260200190815260200160002060008201518160000160006101000a81548160ff02191690831515021790555060208201518160000160016101000a8154816001600160401b0302191690836001600160401b0316021790555060408201518160000160096101000a81548161ffff021916908361ffff160217905550606082015181600001600b6101000a81548161ffff021916908361ffff160217905550608082015181600001600d6101000a8154816001600160401b0302191690836001600160401b0316021790555060a08201518160000160156101000a8154816001600160401b0302191690836001600160401b0316021790555060c0820151816001015560e082015181600201556101008201518160030155905050600060159054906101000a900463ffffffff16600101600060156101000a81548163ffffffff021916908363ffffffff1602179055505b95945050505050565b63ffffffff811660009081526001602052604081205481908190819081908190879060ff16610ca9576040805162461bcd60e51b81526020600482015260166024820152600080516020611ead833981519152604482015290519081900360640190fd5b5050505063ffffffff9390931660009081526001602081905260409091208054918101546003909101546001600160401b036101008404811697600160681b85048216975061ffff600160481b8604169650600160a81b9094041693509091565b63ffffffff87166000908152600160205260408120548190899060ff16610d66576040805162461bcd60e51b81526020600482015260166024820152600080516020611ead833981519152604482015290519081900360640190fd5b63ffffffff8a1660009081526003602090815260408083208c845290915290205460ff16610dd1576040805162461bcd60e51b81526020600482015260136024820152721d1e125908191bd95cc81b9bdd08195e1a5cdd606a1b604482015290519081900360640190fd5b604080516001600160401b03808b1660208084019190915283518084038201815283850185528051908201208983166060808601919091528551808603909101815260808501865280519083012092891660a0808601919091528551808603909101815260c08501865280519083012060e085018f905261010085019190915261012084018c905261014084018b905261016084019290925261018080840192909252835180840390920182526101a0909201835280519082012063ffffffff8d166000908152600383528381208d8252909252919020600101548114610ef5576040805162461bcd60e51b81526020600482015260136024820152720d2dcecc2d8d2c840e0c2f2dacadce890c2e6d606b1b604482015290519081900360640190fd5b5063ffffffff8a1660009081526003602090815260408083208c84529091529020600201546001935091505097509795505050505050565b6000546001600160a01b03163314610f7a576040805162461bcd60e51b81526020600482018190526024820152600080516020611e31833981519152604482015290519081900360640190fd5b63ffffffff8116600090815260016020526040902054819060ff16610fd4576040805162461bcd60e51b81526020600482015260166024820152600080516020611ead833981519152604482015290519081900360640190fd5b5063ffffffff166000908152600160205260409020805460ff19169055565b63ffffffff8416600090815260016020526040812054819081908190889060ff16611053576040805162461bcd60e51b81526020600482015260166024820152600080516020611ead833981519152604482015290519081900360640190fd5b63ffffffff8916600090815260016020526040902054600160481b810461ffff16600160a81b9091046001600160401b03908116919091018116908916146110d3576040805162461bcd60e51b815260206004820152600e60248201526d34b73b30b634b2103632b233b2b960911b604482015290519081900360640190fd5b63ffffffff89166000908152600160205260409020546001600160401b03888116600160681b909204161461114f576040805162461bcd60e51b815260206004820152601860248201527f696e76616c696420636c61696d506572696f64496e6465780000000000000000604482015290519081900360640190fd5b63ffffffff89166000908152600160208190526040909120015442116111a65760405162461bcd60e51b8152600401808060200182810382526035815260200180611e786035913960400191505060405180910390fd5b63ffffffff891660009081526001602052604090206002808201546003909201540210156112405763ffffffff89166000908152600160208190526040909120600380820154919092015460029091024291909103909102101561123b5760405162461bcd60e51b815260040180806020018281038252602c815260200180611dd3602c913960400191505060405180910390fd5b6112a2565b63ffffffff8916600090815260016020819052604090912060038101549101544203600f0110156112a25760405162461bcd60e51b815260040180806020018281038252602c815260200180611dd3602c913960400191505060405180910390fd5b604080516001600160e01b031960e08c901b166020808301919091526001600160c01b031960c08b901b1660248301528251600c818403018152602c9092018352815191810191909120600081815260029092529190205460ff161561134f576040805162461bcd60e51b815260206004820152601e60248201527f6c6f636174696f6e4861736820616c72656164792066696e616c697365640000604482015290519081900360640190fd5b6001600160401b038816156113f957604080516001600160e01b031960e08d901b166020808301919091526001600160c01b03196000198c0160c01b1660248301528251600c818403018152602c9092018352815191810191909120600081815260029092529190205460ff166113f75760405162461bcd60e51b8152600401808060200182810382526027815260200180611e516027913960400191505060405180910390fd5b505b4133148061140a575041600160981b145b61145b576040805162461bcd60e51b815260206004820152601c60248201527f496e76616c696420626c6f636b2e636f696e626173652076616c756500000000604482015290519081900360640190fd5b413314801561146e575041600160981b14155b156116cf5760046000336001600160a01b03166001600160a01b0316815260200190815260200160002060009054906101000a90046001600160401b031660010160046000336001600160a01b03166001600160a01b0316815260200190815260200160002060006101000a8154816001600160401b0302191690836001600160401b031602179055506040518060600160405280600115158152602001888152602001428152506002600083815260200190815260200160002060008201518160000160006101000a81548160ff021916908315150217905550602082015181600101556040820151816002015590505087600101600160008c63ffffffff1663ffffffff168152602001908152602001600020600001600d6101000a8154816001600160401b0302191690836001600160401b0316021790555088600160008c63ffffffff1663ffffffff16815260200190815260200160002060000160156101000a8154816001600160401b0302191690836001600160401b0316021790555060006002600160008d63ffffffff1663ffffffff168152602001908152602001600020600101544203600160008e63ffffffff1663ffffffff16815260200190815260200160002060030154018161164557fe5b63ffffffff8d166000908152600160205260409020600290810154929091049250028111156116955763ffffffff8b166000908152600160205260409020600280820154026003909101556116b1565b63ffffffff8b1660009081526001602052604090206003018190555b5063ffffffff8a166000908152600160208190526040909120429101555b5050505063ffffffff861660009081526001602052604090205495966000199590950195600160581b900461ffff16949293505050565b6000546001600160a01b03163314611753576040805162461bcd60e51b81526020600482018190526024820152600080516020611e31833981519152604482015290519081900360640190fd5b60005463ffffffff600160a81b9091048116908216106117b1576040805162461bcd60e51b8152602060048201526014602482015273636861696e4964203e3d206e756d436861696e7360601b604482015290519081900360640190fd5b63ffffffff811660009081526001602052604090205460ff161561181c576040805162461bcd60e51b815260206004820152601e60248201527f636861696e735b636861696e49645d2e657869737473203d3d20747275650000604482015290519081900360640190fd5b63ffffffff166000908152600160208190526040909120805460ff19169091179055565b63ffffffff8216600090815260016020526040812054839060ff1661189a576040805162461bcd60e51b81526020600482015260166024820152600080516020611ead833981519152604482015290519081900360640190fd5b50506040805160e09390931b6001600160e01b03191660208085019190915260c09290921b6001600160c01b03191660248401528051808403600c018152602c909301815282519282019290922060009081526002909152205460ff1690565b6000546001600160a01b031690565b60008054600160a01b900460ff1615611960576040805162461bcd60e51b8152602060048201526014602482015273696e697469616c6973656420213d2066616c736560601b604482015290519081900360640190fd5b73fffec6c83c8bf5c3f4ae0ccf8c45ce20e4560bd76000806101000a8154816001600160a01b0302191690836001600160a01b031602179055506040518061012001604052806001151581526020016303bf79006001600160401b03168152602001601e61ffff168152602001600061ffff16815260200160006001600160401b031681526020016303bf79006001600160401b03168152602001428152602001607881526020016000815250600160008063ffffffff16815260200190815260200160002060008201518160000160006101000a81548160ff02191690831515021790555060208201518160000160016101000a8154816001600160401b0302191690836001600160401b0316021790555060408201518160000160096101000a81548161ffff021916908361ffff160217905550606082015181600001600b6101000a81548161ffff021916908361ffff160217905550608082015181600001600d6101000a8154816001600160401b0302191690836001600160401b0316021790555060a08201518160000160156101000a8154816001600160401b0302191690836001600160401b0316021790555060c0820151816001015560e0820151816002015561010082015181600301559050506001600060156101000a81548163ffffffff021916908363ffffffff1602179055506001600060146101000a81548160ff0219169083151502179055506001905090565b6001600160a01b03166000908152600460205260409020546001600160401b031690565b6000546001600160a01b03163314611bea576040805162461bcd60e51b81526020600482018190526024820152600080516020611e31833981519152604482015290519081900360640190fd5b63ffffffff8216600090815260016020526040902054829060ff16611c44576040805162461bcd60e51b81526020600482015260166024820152600080516020611ead833981519152604482015290519081900360640190fd5b5063ffffffff909116600090815260016020526040902060020155565b63ffffffff8216600090815260016020526040812054839060ff16611cbb576040805162461bcd60e51b81526020600482015260166024820152600080516020611ead833981519152604482015290519081900360640190fd5b604080516001600160e01b031960e087901b166020808301919091526001600160c01b031960c087901b1660248301528251600c818403018152602c9092018352815191810191909120600081815260029092529190205460ff16611d515760405162461bcd60e51b8152600401808060200182810382526032815260200180611dff6032913960400191505060405180910390fd5b6000818152600260205260409020600101548614611db6576040805162461bcd60e51b815260206004820152601760248201527f496e76616c696420636c61696d506572696f6448617368000000000000000000604482015290519081900360640190fd5b600090815260026020819052604090912001549594505050505056fe6e6f7420656e6f7567682074696d6520656c61707365642073696e6365207072696f722066696e616c69747966696e616c69736564436c61696d506572696f64735b6c6f636174696f6e486173685d20646f6573206e6f742065786973746d73672e73656e64657220213d20676f7665726e616e6365436f6e747261637470726576696f757320636c61696d20706572696f64206e6f74207965742066696e616c69736564626c6f636b2e74696d657374616d70203c3d20636861696e735b636861696e49645d2e66696e616c6973656454696d657374616d70636861696e496420646f6573206e6f7420657869737400000000000000000000a26469706673582212201de207c90e6c9fa249e21045e3cfd8182aa37ac6c5fdff42d00a5757b3dcd07764736f6c63430007060033",
    "sourcePath": "/home/my-usern/flare/contracts/StateConnector.sol",
    "compiler": {
        "name": "solc",
        "version": "0.7.6+commit.7338295f"
    },
    "functionHashes": {
        "addChain(uint64,uint16,uint16,uint256)": "1d4ded8e",
        "disableChain(uint32)": "a060b647",
        "enableChain(uint32)": "c1b0e574",
        "getClaimPeriodIndexFinality(uint32,uint64)": "e54caf92",
        "getClaimPeriodsMined(address)": "efe78272",
        "getGovernanceContract()": "ef2fa85f",
        "getLatestIndex(uint32)": "2a2434a2",
        "getPaymentFinality(uint32,bytes32,uint64,bytes32,bytes32,uint64,uint64)": "4cf59133",
        "initialiseChains()": "ef4c169e",
        "proveClaimPeriodFinality(uint32,uint64,uint64,bytes32)": "a57d0e25",
        "provePaymentFinality(uint32,uint64,bytes32,bytes32,string)": "13bb431c",
        "setGovernanceContract(address)": "1129753f",
        "updateChainTiming(uint32,uint256)": "ff695ef0"
    },
    "gasEstimates": {
        "creation": {
            "codeDepositCost": "1587600",
            "executionCost": "1666",
            "totalCost": "1589266"
        },
        "external": {
            "addChain(uint64,uint16,uint16,uint256)": "infinite",
            "disableChain(uint32)": "infinite",
            "enableChain(uint32)": "infinite",
            "getClaimPeriodIndexFinality(uint32,uint64)": "infinite",
            "getClaimPeriodsMined(address)": "1247",
            "getGovernanceContract()": "1059",
            "getLatestIndex(uint32)": "infinite",
            "getPaymentFinality(uint32,bytes32,uint64,bytes32,bytes32,uint64,uint64)": "infinite",
            "initialiseChains()": "234848",
            "proveClaimPeriodFinality(uint32,uint64,uint64,bytes32)": "infinite",
            "provePaymentFinality(uint32,uint64,bytes32,bytes32,string)": "infinite",
            "setGovernanceContract(address)": "infinite",
            "updateChainTiming(uint32,uint256)": "infinite"
        },
        "internal": {
            "getClaimPeriodFinality(bytes32,uint32,uint64)": "infinite"
        }
    }
}