{
    "contractName": "StateConnector",
    "abi": [
        {
            "inputs": [],
            "stateMutability": "nonpayable",
            "type": "constructor"
        },
        {
            "inputs": [
                {
                    "internalType": "uint64",
                    "name": "genesisLedger",
                    "type": "uint64"
                },
                {
                    "internalType": "uint16",
                    "name": "claimPeriodLength",
                    "type": "uint16"
                },
                {
                    "internalType": "uint16",
                    "name": "numConfirmations",
                    "type": "uint16"
                },
                {
                    "internalType": "uint256",
                    "name": "timeDiffExpected",
                    "type": "uint256"
                }
            ],
            "name": "addChain",
            "outputs": [
                {
                    "internalType": "uint32",
                    "name": "currNumChains",
                    "type": "uint32"
                }
            ],
            "stateMutability": "nonpayable",
            "type": "function"
        },
        {
            "inputs": [
                {
                    "internalType": "uint32",
                    "name": "chainId",
                    "type": "uint32"
                },
                {
                    "internalType": "uint64",
                    "name": "claimPeriodIndex",
                    "type": "uint64"
                }
            ],
            "name": "getClaimPeriodIndexFinality",
            "outputs": [
                {
                    "internalType": "bool",
                    "name": "finality",
                    "type": "bool"
                }
            ],
            "stateMutability": "view",
            "type": "function"
        },
        {
            "inputs": [
                {
                    "internalType": "address",
                    "name": "miner",
                    "type": "address"
                }
            ],
            "name": "getClaimPeriodsMined",
            "outputs": [
                {
                    "internalType": "uint64",
                    "name": "numMined",
                    "type": "uint64"
                }
            ],
            "stateMutability": "view",
            "type": "function"
        },
        {
            "inputs": [],
            "name": "getGovernanceContract",
            "outputs": [
                {
                    "internalType": "address",
                    "name": "_governanceContract",
                    "type": "address"
                }
            ],
            "stateMutability": "view",
            "type": "function"
        },
        {
            "inputs": [
                {
                    "internalType": "uint32",
                    "name": "chainId",
                    "type": "uint32"
                }
            ],
            "name": "getLatestIndex",
            "outputs": [
                {
                    "internalType": "uint64",
                    "name": "genesisLedger",
                    "type": "uint64"
                },
                {
                    "internalType": "uint64",
                    "name": "finalisedClaimPeriodIndex",
                    "type": "uint64"
                },
                {
                    "internalType": "uint16",
                    "name": "claimPeriodLength",
                    "type": "uint16"
                },
                {
                    "internalType": "uint64",
                    "name": "finalisedLedgerIndex",
                    "type": "uint64"
                },
                {
                    "internalType": "uint256",
                    "name": "finalisedTimestamp",
                    "type": "uint256"
                },
                {
                    "internalType": "uint256",
                    "name": "timeDiffAvg",
                    "type": "uint256"
                }
            ],
            "stateMutability": "view",
            "type": "function"
        },
        {
            "inputs": [
                {
                    "internalType": "uint32",
                    "name": "chainId",
                    "type": "uint32"
                },
                {
                    "internalType": "bytes32",
                    "name": "txId",
                    "type": "bytes32"
                },
                {
                    "internalType": "uint64",
                    "name": "ledger",
                    "type": "uint64"
                },
                {
                    "internalType": "bytes32",
                    "name": "sourceHash",
                    "type": "bytes32"
                },
                {
                    "internalType": "bytes32",
                    "name": "destinationHash",
                    "type": "bytes32"
                },
                {
                    "internalType": "uint64",
                    "name": "destinationTag",
                    "type": "uint64"
                },
                {
                    "internalType": "uint64",
                    "name": "amount",
                    "type": "uint64"
                }
            ],
            "name": "getPaymentFinality",
            "outputs": [
                {
                    "internalType": "bool",
                    "name": "finality",
                    "type": "bool"
                },
                {
                    "internalType": "uint256",
                    "name": "timestamp",
                    "type": "uint256"
                }
            ],
            "stateMutability": "view",
            "type": "function"
        },
        {
            "inputs": [],
            "name": "initialiseChains",
            "outputs": [
                {
                    "internalType": "bool",
                    "name": "success",
                    "type": "bool"
                }
            ],
            "stateMutability": "nonpayable",
            "type": "function"
        },
        {
            "inputs": [
                {
                    "internalType": "uint32",
                    "name": "chainId",
                    "type": "uint32"
                },
                {
                    "internalType": "uint64",
                    "name": "ledger",
                    "type": "uint64"
                },
                {
                    "internalType": "uint64",
                    "name": "claimPeriodIndex",
                    "type": "uint64"
                },
                {
                    "internalType": "bytes32",
                    "name": "claimPeriodHash",
                    "type": "bytes32"
                }
            ],
            "name": "proveClaimPeriodFinality",
            "outputs": [
                {
                    "internalType": "uint32",
                    "name": "_chainId",
                    "type": "uint32"
                },
                {
                    "internalType": "uint64",
                    "name": "_ledger",
                    "type": "uint64"
                },
                {
                    "internalType": "uint16",
                    "name": "_numConfirmations",
                    "type": "uint16"
                },
                {
                    "internalType": "bytes32",
                    "name": "_claimPeriodHash",
                    "type": "bytes32"
                }
            ],
            "stateMutability": "nonpayable",
            "type": "function"
        },
        {
            "inputs": [
                {
                    "internalType": "uint32",
                    "name": "chainId",
                    "type": "uint32"
                },
                {
                    "internalType": "uint64",
                    "name": "claimPeriodIndex",
                    "type": "uint64"
                },
                {
                    "internalType": "bytes32",
                    "name": "claimPeriodHash",
                    "type": "bytes32"
                },
                {
                    "internalType": "bytes32",
                    "name": "paymentHash",
                    "type": "bytes32"
                },
                {
                    "internalType": "string",
                    "name": "txId",
                    "type": "string"
                }
            ],
            "name": "provePaymentFinality",
            "outputs": [
                {
                    "internalType": "uint32",
                    "name": "_chainId",
                    "type": "uint32"
                },
                {
                    "internalType": "uint64",
                    "name": "finalisedLedgerIndex",
                    "type": "uint64"
                },
                {
                    "internalType": "bytes32",
                    "name": "_paymentHash",
                    "type": "bytes32"
                },
                {
                    "internalType": "string",
                    "name": "_txId",
                    "type": "string"
                }
            ],
            "stateMutability": "nonpayable",
            "type": "function"
        },
        {
            "inputs": [
                {
                    "internalType": "address",
                    "name": "_governanceContract",
                    "type": "address"
                }
            ],
            "name": "setGovernanceContract",
            "outputs": [],
            "stateMutability": "nonpayable",
            "type": "function"
        },
        {
            "inputs": [
                {
                    "internalType": "uint32",
                    "name": "chainId",
                    "type": "uint32"
                },
                {
                    "internalType": "uint256",
                    "name": "timeDiffExpected",
                    "type": "uint256"
                }
            ],
            "name": "updateChainTiming",
            "outputs": [],
            "stateMutability": "nonpayable",
            "type": "function"
        }
    ],
    "bytecode": "608060405234801561001057600080fd5b50611c9c806100206000396000f3fe608060405234801561001057600080fd5b50600436106100a95760003560e01c8063a57d0e2511610071578063a57d0e2514610384578063e54caf92146103fe578063ef2fa85f14610444578063ef4c169e14610468578063efe7827214610470578063ff695ef0146104b2576100a9565b80631129753f146100ae57806313bb431c146100d65780631d4ded8e1461023f5780632a2434a2146102985780634cf5913314610313575b600080fd5b6100d4600480360360208110156100c457600080fd5b50356001600160a01b03166104db565b005b6101a3600480360360a08110156100ec57600080fd5b63ffffffff823516916001600160401b036020820135169160408201359160608101359181019060a08101608082013564010000000081111561012e57600080fd5b82018360208201111561014057600080fd5b8035906020019184600183028401116401000000008311171561016257600080fd5b91908080601f0160208091040260200160405190810160405280939291908181526020018383808284376000920191909152509295506105b7945050505050565b604051808563ffffffff168152602001846001600160401b0316815260200183815260200180602001828103825283818151815260200191508051906020019080838360005b838110156102015781810151838201526020016101e9565b50505050905090810190601f16801561022e5780820380516001836020036101000a031916815260200191505b509550505050505060405180910390f35b61027f6004803603608081101561025557600080fd5b506001600160401b038135169061ffff60208201358116916040810135909116906060013561085b565b6040805163ffffffff9092168252519081900360200190f35b6102bb600480360360208110156102ae57600080fd5b503563ffffffff16610bfd565b60405180876001600160401b03168152602001866001600160401b031681526020018561ffff168152602001846001600160401b03168152602001838152602001828152602001965050505050505060405180910390f35b610369600480360360e081101561032957600080fd5b5063ffffffff813516906020810135906001600160401b03604082013581169160608101359160808201359160a081013582169160c09091013516610cc2565b60408051921515835260208301919091528051918290030190f35b6103c66004803603608081101561039a57600080fd5b5063ffffffff813516906001600160401b03602082013581169160408101359091169060600135610ee5565b6040805163ffffffff90951685526001600160401b03909316602085015261ffff909116838301526060830152519081900360800190f35b6104306004803603604081101561041457600080fd5b50803563ffffffff1690602001356001600160401b03166115f8565b604080519115158252519081900360200190f35b61044c6116b2565b604080516001600160a01b039092168252519081900360200190f35b6104306116c1565b6104966004803603602081101561048657600080fd5b50356001600160a01b0316611921565b604080516001600160401b039092168252519081900360200190f35b6100d4600480360360408110156104c857600080fd5b5063ffffffff8135169060200135611945565b6000546001600160a01b0316331461053a576040805162461bcd60e51b815260206004820181905260248201527f6d73672e73656e64657220213d20676f7665726e616e6365436f6e7472616374604482015290519081900360640190fd5b6001600160a01b038116610595576040805162461bcd60e51b815260206004820152601a60248201527f5f676f7665726e616e6365436f6e7472616374203d3d20307830000000000000604482015290519081900360640190fd5b600080546001600160a01b0319166001600160a01b0392909216919091179055565b63ffffffff851660009081526001602052604081205481908190606090899060ff16610618576040805162461bcd60e51b81526020600482015260166024820152600080516020611c47833981519152604482015290519081900360640190fd5b6000866040516020018082805190602001908083835b6020831061064d5780518252601f19909201916020918201910161062e565b6001836020036101000a038019825116818451168082178552505050505050905001915050604051602081830303815290604052805190602001209050600360008c63ffffffff1663ffffffff168152602001908152602001600020600082815260200190815260200160002060000160009054906101000a900460ff1615610713576040805162461bcd60e51b81526020600482015260136024820152723a3c24b21030b63932b0b23c90383937bb32b760691b604482015290519081900360640190fd5b60006107208a8d8d611a1b565b905041331480610733575041600160981b145b610784576040805162461bcd60e51b815260206004820152601c60248201527f496e76616c696420626c6f636b2e636f696e626173652076616c756500000000604482015290519081900360640190fd5b4133148015610797575041600160981b14155b156108225760405180606001604052806001151581526020018a815260200182815250600360008e63ffffffff1663ffffffff168152602001908152602001600020600084815260200190815260200160002060008201518160000160006101000a81548160ff02191690831515021790555060208201518160010155604082015181600201559050505b5050505063ffffffff88166000908152600160205260409020549798600160a81b9098046001600160401b031697949650929450505050565b600080546001600160a01b031633146108bb576040805162461bcd60e51b815260206004820181905260248201527f6d73672e73656e64657220213d20676f7665726e616e6365436f6e7472616374604482015290519081900360640190fd5b60008054600160a81b900463ffffffff1681526001602052604090205460ff1615610926576040805162461bcd60e51b8152602060048201526016602482015275636861696e496420616c72656164792065786973747360501b604482015290519081900360640190fd5b60008461ffff1611610978576040805162461bcd60e51b81526020600482015260166024820152750636c61696d506572696f644c656e677468203d3d20360541b604482015290519081900360640190fd5b6000546001600160a01b0316411480610994575041600160981b145b6109e5576040805162461bcd60e51b815260206004820152601c60248201527f496e76616c696420626c6f636b2e636f696e626173652076616c756500000000604482015290519081900360640190fd5b600054600160a81b810463ffffffff16906001600160a01b031641148015610a11575041600160981b14155b15610bf457604051806101200160405280600115158152602001876001600160401b031681526020018661ffff1681526020018561ffff16815260200160006001600160401b03168152602001876001600160401b031681526020014281526020018481526020016000815250600160008060159054906101000a900463ffffffff1663ffffffff1663ffffffff16815260200190815260200160002060008201518160000160006101000a81548160ff02191690831515021790555060208201518160000160016101000a8154816001600160401b0302191690836001600160401b0316021790555060408201518160000160096101000a81548161ffff021916908361ffff160217905550606082015181600001600b6101000a81548161ffff021916908361ffff160217905550608082015181600001600d6101000a8154816001600160401b0302191690836001600160401b0316021790555060a08201518160000160156101000a8154816001600160401b0302191690836001600160401b0316021790555060c0820151816001015560e082015181600201556101008201518160030155905050600060159054906101000a900463ffffffff16600101600060156101000a81548163ffffffff021916908363ffffffff1602179055505b95945050505050565b63ffffffff811660009081526001602052604081205481908190819081908190879060ff16610c61576040805162461bcd60e51b81526020600482015260166024820152600080516020611c47833981519152604482015290519081900360640190fd5b5050505063ffffffff9390931660009081526001602081905260409091208054918101546003909101546001600160401b036101008404811697600160681b85048216975061ffff600160481b8604169650600160a81b9094041693509091565b63ffffffff87166000908152600160205260408120548190899060ff16610d1e576040805162461bcd60e51b81526020600482015260166024820152600080516020611c47833981519152604482015290519081900360640190fd5b63ffffffff8a1660009081526003602090815260408083208c845290915290205460ff16610d89576040805162461bcd60e51b81526020600482015260136024820152721d1e125908191bd95cc81b9bdd08195e1a5cdd606a1b604482015290519081900360640190fd5b604080516001600160401b03808b1660208084019190915283518084038201815283850185528051908201208983166060808601919091528551808603909101815260808501865280519083012092891660a0808601919091528551808603909101815260c08501865280519083012060e085018f905261010085019190915261012084018c905261014084018b905261016084019290925261018080840192909252835180840390920182526101a0909201835280519082012063ffffffff8d166000908152600383528381208d8252909252919020600101548114610ead576040805162461bcd60e51b81526020600482015260136024820152720d2dcecc2d8d2c840e0c2f2dacadce890c2e6d606b1b604482015290519081900360640190fd5b5063ffffffff8a1660009081526003602090815260408083208c84529091529020600201546001935091505097509795505050505050565b63ffffffff8416600090815260016020526040812054819081908190889060ff16610f45576040805162461bcd60e51b81526020600482015260166024820152600080516020611c47833981519152604482015290519081900360640190fd5b63ffffffff8916600090815260016020526040902054600160481b810461ffff16600160a81b9091046001600160401b0390811691909101811690891614610fc5576040805162461bcd60e51b815260206004820152600e60248201526d34b73b30b634b2103632b233b2b960911b604482015290519081900360640190fd5b63ffffffff89166000908152600160205260409020546001600160401b03888116600160681b9092041614611041576040805162461bcd60e51b815260206004820152601860248201527f696e76616c696420636c61696d506572696f64496e6465780000000000000000604482015290519081900360640190fd5b63ffffffff89166000908152600160208190526040909120015442116110985760405162461bcd60e51b8152600401808060200182810382526035815260200180611c126035913960400191505060405180910390fd5b63ffffffff891660009081526001602052604090206002808201546003909201540210156111325763ffffffff89166000908152600160208190526040909120600380820154919092015460029091024291909103909102101561112d5760405162461bcd60e51b815260040180806020018281038252602c815260200180611b8d602c913960400191505060405180910390fd5b611194565b63ffffffff8916600090815260016020819052604090912060038101549101544203600f0110156111945760405162461bcd60e51b815260040180806020018281038252602c815260200180611b8d602c913960400191505060405180910390fd5b604080516001600160e01b031960e08c901b166020808301919091526001600160c01b031960c08b901b1660248301528251600c818403018152602c9092018352815191810191909120600081815260029092529190205460ff1615611241576040805162461bcd60e51b815260206004820152601e60248201527f6c6f636174696f6e4861736820616c72656164792066696e616c697365640000604482015290519081900360640190fd5b6001600160401b038816156112eb57604080516001600160e01b031960e08d901b166020808301919091526001600160c01b03196000198c0160c01b1660248301528251600c818403018152602c9092018352815191810191909120600081815260029092529190205460ff166112e95760405162461bcd60e51b8152600401808060200182810382526027815260200180611beb6027913960400191505060405180910390fd5b505b413314806112fc575041600160981b145b61134d576040805162461bcd60e51b815260206004820152601c60248201527f496e76616c696420626c6f636b2e636f696e626173652076616c756500000000604482015290519081900360640190fd5b4133148015611360575041600160981b14155b156115c15760046000336001600160a01b03166001600160a01b0316815260200190815260200160002060009054906101000a90046001600160401b031660010160046000336001600160a01b03166001600160a01b0316815260200190815260200160002060006101000a8154816001600160401b0302191690836001600160401b031602179055506040518060600160405280600115158152602001888152602001428152506002600083815260200190815260200160002060008201518160000160006101000a81548160ff021916908315150217905550602082015181600101556040820151816002015590505087600101600160008c63ffffffff1663ffffffff168152602001908152602001600020600001600d6101000a8154816001600160401b0302191690836001600160401b0316021790555088600160008c63ffffffff1663ffffffff16815260200190815260200160002060000160156101000a8154816001600160401b0302191690836001600160401b0316021790555060006002600160008d63ffffffff1663ffffffff168152602001908152602001600020600101544203600160008e63ffffffff1663ffffffff16815260200190815260200160002060030154018161153757fe5b63ffffffff8d166000908152600160205260409020600290810154929091049250028111156115875763ffffffff8b166000908152600160205260409020600280820154026003909101556115a3565b63ffffffff8b1660009081526001602052604090206003018190555b5063ffffffff8a166000908152600160208190526040909120429101555b5050505063ffffffff861660009081526001602052604090205495966000199590950195600160581b900461ffff16949293505050565b63ffffffff8216600090815260016020526040812054839060ff16611652576040805162461bcd60e51b81526020600482015260166024820152600080516020611c47833981519152604482015290519081900360640190fd5b50506040805160e09390931b6001600160e01b03191660208085019190915260c09290921b6001600160c01b03191660248401528051808403600c018152602c909301815282519282019290922060009081526002909152205460ff1690565b6000546001600160a01b031690565b60008054600160a01b900460ff1615611718576040805162461bcd60e51b8152602060048201526014602482015273696e697469616c6973656420213d2066616c736560601b604482015290519081900360640190fd5b6001609c1b6000806101000a8154816001600160a01b0302191690836001600160a01b031602179055506040518061012001604052806001151581526020016303b812786001600160401b03168152602001601e61ffff168152602001600061ffff16815260200160006001600160401b031681526020016303b812786001600160401b03168152602001428152602001607881526020016000815250600160008063ffffffff16815260200190815260200160002060008201518160000160006101000a81548160ff02191690831515021790555060208201518160000160016101000a8154816001600160401b0302191690836001600160401b0316021790555060408201518160000160096101000a81548161ffff021916908361ffff160217905550606082015181600001600b6101000a81548161ffff021916908361ffff160217905550608082015181600001600d6101000a8154816001600160401b0302191690836001600160401b0316021790555060a08201518160000160156101000a8154816001600160401b0302191690836001600160401b0316021790555060c0820151816001015560e0820151816002015561010082015181600301559050506001600060156101000a81548163ffffffff021916908363ffffffff1602179055506001600060146101000a81548160ff0219169083151502179055506001905090565b6001600160a01b03166000908152600460205260409020546001600160401b031690565b6000546001600160a01b031633146119a4576040805162461bcd60e51b815260206004820181905260248201527f6d73672e73656e64657220213d20676f7665726e616e6365436f6e7472616374604482015290519081900360640190fd5b63ffffffff8216600090815260016020526040902054829060ff166119fe576040805162461bcd60e51b81526020600482015260166024820152600080516020611c47833981519152604482015290519081900360640190fd5b5063ffffffff909116600090815260016020526040902060020155565b63ffffffff8216600090815260016020526040812054839060ff16611a75576040805162461bcd60e51b81526020600482015260166024820152600080516020611c47833981519152604482015290519081900360640190fd5b604080516001600160e01b031960e087901b166020808301919091526001600160c01b031960c087901b1660248301528251600c818403018152602c9092018352815191810191909120600081815260029092529190205460ff16611b0b5760405162461bcd60e51b8152600401808060200182810382526032815260200180611bb96032913960400191505060405180910390fd5b6000818152600260205260409020600101548614611b70576040805162461bcd60e51b815260206004820152601760248201527f496e76616c696420636c61696d506572696f6448617368000000000000000000604482015290519081900360640190fd5b600090815260026020819052604090912001549594505050505056fe6e6f7420656e6f7567682074696d6520656c61707365642073696e6365207072696f722066696e616c69747966696e616c69736564436c61696d506572696f64735b6c6f636174696f6e486173685d20646f6573206e6f7420657869737470726576696f757320636c61696d20706572696f64206e6f74207965742066696e616c69736564626c6f636b2e74696d657374616d70203c3d20636861696e735b636861696e49645d2e66696e616c6973656454696d657374616d70636861696e496420646f6573206e6f7420657869737400000000000000000000a2646970667358221220e6f7111afde57ecf4c266aa409647adaa49ed9bdbc6cfb547d1cbcfef749582664736f6c63430007060033",
    "sourcePath": "/home/my-usern/flare/sean/contracts/StateConnector.sol",
    "compiler": {
        "name": "solc",
        "version": "0.7.6+commit.7338295f"
    },
    "functionHashes": {
        "addChain(uint64,uint16,uint16,uint256)": "1d4ded8e",
        "getClaimPeriodIndexFinality(uint32,uint64)": "e54caf92",
        "getClaimPeriodsMined(address)": "efe78272",
        "getGovernanceContract()": "ef2fa85f",
        "getLatestIndex(uint32)": "2a2434a2",
        "getPaymentFinality(uint32,bytes32,uint64,bytes32,bytes32,uint64,uint64)": "4cf59133",
        "initialiseChains()": "ef4c169e",
        "proveClaimPeriodFinality(uint32,uint64,uint64,bytes32)": "a57d0e25",
        "provePaymentFinality(uint32,uint64,bytes32,bytes32,string)": "13bb431c",
        "setGovernanceContract(address)": "1129753f",
        "updateChainTiming(uint32,uint256)": "ff695ef0"
    },
    "gasEstimates": {
        "creation": {
            "codeDepositCost": "1464800",
            "executionCost": "1527",
            "totalCost": "1466327"
        },
        "external": {
            "addChain(uint64,uint16,uint16,uint256)": "198478",
            "getClaimPeriodIndexFinality(uint32,uint64)": "infinite",
            "getClaimPeriodsMined(address)": "1269",
            "getGovernanceContract()": "1081",
            "getLatestIndex(uint32)": "infinite",
            "getPaymentFinality(uint32,bytes32,uint64,bytes32,bytes32,uint64,uint64)": "infinite",
            "initialiseChains()": "234876",
            "proveClaimPeriodFinality(uint32,uint64,uint64,bytes32)": "infinite",
            "provePaymentFinality(uint32,uint64,bytes32,bytes32,string)": "infinite",
            "setGovernanceContract(address)": "21949",
            "updateChainTiming(uint32,uint256)": "infinite"
        },
        "internal": {
            "getClaimPeriodFinality(bytes32,uint32,uint64)": "infinite"
        }
    }
}