{
    "contractName": "StateConnector",
    "abi": [
        {
            "inputs": [],
            "stateMutability": "nonpayable",
            "type": "constructor"
        },
        {
            "inputs": [
                {
                    "internalType": "uint64",
                    "name": "genesisLedger",
                    "type": "uint64"
                },
                {
                    "internalType": "uint64",
                    "name": "ledgerHistorySize",
                    "type": "uint64"
                },
                {
                    "internalType": "uint16",
                    "name": "claimPeriodLength",
                    "type": "uint16"
                },
                {
                    "internalType": "uint16",
                    "name": "numConfirmations",
                    "type": "uint16"
                },
                {
                    "internalType": "uint256",
                    "name": "timeDiffExpected",
                    "type": "uint256"
                }
            ],
            "name": "addChain",
            "outputs": [],
            "stateMutability": "nonpayable",
            "type": "function"
        },
        {
            "inputs": [
                {
                    "internalType": "address",
                    "name": "blockedAddress",
                    "type": "address"
                }
            ],
            "name": "blockAddress",
            "outputs": [],
            "stateMutability": "nonpayable",
            "type": "function"
        },
        {
            "inputs": [],
            "name": "bumpRewardSchedule",
            "outputs": [],
            "stateMutability": "nonpayable",
            "type": "function"
        },
        {
            "inputs": [
                {
                    "internalType": "uint32",
                    "name": "chainId",
                    "type": "uint32"
                }
            ],
            "name": "disableChain",
            "outputs": [],
            "stateMutability": "nonpayable",
            "type": "function"
        },
        {
            "inputs": [
                {
                    "internalType": "uint32",
                    "name": "chainId",
                    "type": "uint32"
                },
                {
                    "internalType": "bytes32",
                    "name": "paymentHash",
                    "type": "bytes32"
                },
                {
                    "internalType": "uint64",
                    "name": "ledger",
                    "type": "uint64"
                },
                {
                    "internalType": "string",
                    "name": "txId",
                    "type": "string"
                }
            ],
            "name": "disprovePaymentFinality",
            "outputs": [
                {
                    "internalType": "uint32",
                    "name": "_chainId",
                    "type": "uint32"
                },
                {
                    "internalType": "uint64",
                    "name": "_ledger",
                    "type": "uint64"
                },
                {
                    "internalType": "uint64",
                    "name": "finalisedLedgerIndex",
                    "type": "uint64"
                },
                {
                    "internalType": "bytes32",
                    "name": "_paymentHash",
                    "type": "bytes32"
                },
                {
                    "internalType": "string",
                    "name": "_txId",
                    "type": "string"
                }
            ],
            "stateMutability": "nonpayable",
            "type": "function"
        },
        {
            "inputs": [
                {
                    "internalType": "uint32",
                    "name": "chainId",
                    "type": "uint32"
                }
            ],
            "name": "enableChain",
            "outputs": [],
            "stateMutability": "nonpayable",
            "type": "function"
        },
        {
            "inputs": [
                {
                    "internalType": "uint32",
                    "name": "chainId",
                    "type": "uint32"
                },
                {
                    "internalType": "uint64",
                    "name": "claimPeriodIndex",
                    "type": "uint64"
                }
            ],
            "name": "getClaimPeriodIndexFinality",
            "outputs": [
                {
                    "internalType": "bool",
                    "name": "finality",
                    "type": "bool"
                }
            ],
            "stateMutability": "view",
            "type": "function"
        },
        {
            "inputs": [
                {
                    "internalType": "address",
                    "name": "miner",
                    "type": "address"
                },
                {
                    "internalType": "uint256",
                    "name": "rewardSchedule",
                    "type": "uint256"
                }
            ],
            "name": "getClaimPeriodsMined",
            "outputs": [
                {
                    "internalType": "uint64",
                    "name": "numMined",
                    "type": "uint64"
                }
            ],
            "stateMutability": "view",
            "type": "function"
        },
        {
            "inputs": [],
            "name": "getGovernanceContract",
            "outputs": [
                {
                    "internalType": "address",
                    "name": "_governanceContract",
                    "type": "address"
                }
            ],
            "stateMutability": "view",
            "type": "function"
        },
        {
            "inputs": [
                {
                    "internalType": "uint32",
                    "name": "chainId",
                    "type": "uint32"
                }
            ],
            "name": "getLatestIndex",
            "outputs": [
                {
                    "internalType": "uint64",
                    "name": "genesisLedger",
                    "type": "uint64"
                },
                {
                    "internalType": "uint64",
                    "name": "finalisedClaimPeriodIndex",
                    "type": "uint64"
                },
                {
                    "internalType": "uint16",
                    "name": "claimPeriodLength",
                    "type": "uint16"
                },
                {
                    "internalType": "uint64",
                    "name": "finalisedLedgerIndex",
                    "type": "uint64"
                },
                {
                    "internalType": "uint256",
                    "name": "finalisedTimestamp",
                    "type": "uint256"
                },
                {
                    "internalType": "uint256",
                    "name": "timeDiffAvg",
                    "type": "uint256"
                }
            ],
            "stateMutability": "view",
            "type": "function"
        },
        {
            "inputs": [
                {
                    "internalType": "uint32",
                    "name": "chainId",
                    "type": "uint32"
                },
                {
                    "internalType": "bytes32",
                    "name": "txId",
                    "type": "bytes32"
                },
                {
                    "internalType": "bytes32",
                    "name": "sourceHash",
                    "type": "bytes32"
                },
                {
                    "internalType": "bytes32",
                    "name": "destinationHash",
                    "type": "bytes32"
                },
                {
                    "internalType": "uint64",
                    "name": "destinationTag",
                    "type": "uint64"
                },
                {
                    "internalType": "uint64",
                    "name": "amount",
                    "type": "uint64"
                },
                {
                    "internalType": "bytes32",
                    "name": "currencyHash",
                    "type": "bytes32"
                }
            ],
            "name": "getPaymentFinality",
            "outputs": [
                {
                    "internalType": "uint64",
                    "name": "ledger",
                    "type": "uint64"
                },
                {
                    "internalType": "uint64",
                    "name": "indexSearchRegion",
                    "type": "uint64"
                },
                {
                    "internalType": "bool",
                    "name": "finality",
                    "type": "bool"
                }
            ],
            "stateMutability": "view",
            "type": "function"
        },
        {
            "inputs": [],
            "name": "getRewardSchedule",
            "outputs": [
                {
                    "internalType": "uint256",
                    "name": "rewardSchedule",
                    "type": "uint256"
                }
            ],
            "stateMutability": "view",
            "type": "function"
        },
        {
            "inputs": [],
            "name": "initialiseChains",
            "outputs": [
                {
                    "internalType": "bool",
                    "name": "success",
                    "type": "bool"
                }
            ],
            "stateMutability": "nonpayable",
            "type": "function"
        },
        {
            "inputs": [
                {
                    "internalType": "uint32",
                    "name": "chainId",
                    "type": "uint32"
                },
                {
                    "internalType": "uint64",
                    "name": "ledger",
                    "type": "uint64"
                },
                {
                    "internalType": "uint64",
                    "name": "claimPeriodIndex",
                    "type": "uint64"
                },
                {
                    "internalType": "bytes32",
                    "name": "claimPeriodHash",
                    "type": "bytes32"
                }
            ],
            "name": "proveClaimPeriodFinality",
            "outputs": [
                {
                    "internalType": "uint32",
                    "name": "_chainId",
                    "type": "uint32"
                },
                {
                    "internalType": "uint64",
                    "name": "_ledger",
                    "type": "uint64"
                },
                {
                    "internalType": "uint16",
                    "name": "_numConfirmations",
                    "type": "uint16"
                },
                {
                    "internalType": "bytes32",
                    "name": "_claimPeriodHash",
                    "type": "bytes32"
                }
            ],
            "stateMutability": "nonpayable",
            "type": "function"
        },
        {
            "inputs": [
                {
                    "internalType": "uint32",
                    "name": "chainId",
                    "type": "uint32"
                },
                {
                    "internalType": "bytes32",
                    "name": "paymentHash",
                    "type": "bytes32"
                },
                {
                    "internalType": "uint64",
                    "name": "ledger",
                    "type": "uint64"
                },
                {
                    "internalType": "string",
                    "name": "txId",
                    "type": "string"
                }
            ],
            "name": "provePaymentFinality",
            "outputs": [
                {
                    "internalType": "uint32",
                    "name": "_chainId",
                    "type": "uint32"
                },
                {
                    "internalType": "uint64",
                    "name": "_ledger",
                    "type": "uint64"
                },
                {
                    "internalType": "uint64",
                    "name": "finalisedLedgerIndex",
                    "type": "uint64"
                },
                {
                    "internalType": "bytes32",
                    "name": "_paymentHash",
                    "type": "bytes32"
                },
                {
                    "internalType": "string",
                    "name": "_txId",
                    "type": "string"
                }
            ],
            "stateMutability": "nonpayable",
            "type": "function"
        },
        {
            "inputs": [
                {
                    "internalType": "address",
                    "name": "_governanceContract",
                    "type": "address"
                }
            ],
            "name": "setGovernanceContract",
            "outputs": [],
            "stateMutability": "nonpayable",
            "type": "function"
        },
        {
            "inputs": [
                {
                    "internalType": "address",
                    "name": "blockedAddress",
                    "type": "address"
                }
            ],
            "name": "unblockAddress",
            "outputs": [],
            "stateMutability": "nonpayable",
            "type": "function"
        },
        {
            "inputs": [
                {
                    "internalType": "uint32",
                    "name": "chainId",
                    "type": "uint32"
                },
                {
                    "internalType": "uint64",
                    "name": "ledgerHistorySize",
                    "type": "uint64"
                },
                {
                    "internalType": "uint256",
                    "name": "timeDiffExpected",
                    "type": "uint256"
                }
            ],
            "name": "updateChainTiming",
            "outputs": [],
            "stateMutability": "nonpayable",
            "type": "function"
        }
    ],
    "bytecode": "608060405234801561001057600080fd5b50612cdd806100206000396000f3fe608060405234801561001057600080fd5b50600436106101165760003560e01c8063955a2256116100a2578063c1b0e57411610071578063c1b0e57414610605578063dbcfda2714610628578063e54caf9214610672578063ef2fa85f146106b8578063ef4c169e146106dc57610116565b8063955a2256146104c2578063a060b64714610542578063a57d0e2514610565578063ad2bb1b3146105df57610116565b806345ebe72d116100e957806345ebe72d1461035857806349d5436f146103605780634d7cf6d5146103a85780636fac338b146103e05780637f582432146103fa57610116565b80631129753f1461011b578063186d9d88146101435780632a2434a214610169578063388492dd146101e4575b600080fd5b6101416004803603602081101561013157600080fd5b50356001600160a01b03166106e4565b005b6101416004803603602081101561015957600080fd5b50356001600160a01b03166107ae565b61018c6004803603602081101561017f57600080fd5b503563ffffffff16610873565b60405180876001600160401b03168152602001866001600160401b031681526020018561ffff168152602001846001600160401b03168152602001838152602001828152602001965050505050505060405180910390f35b6102ac600480360360808110156101fa57600080fd5b63ffffffff823516916020810135916001600160401b03604083013516919081019060808101606082013564010000000081111561023757600080fd5b82018360208201111561024957600080fd5b8035906020019184600183028401116401000000008311171561026b57600080fd5b91908080601f016020809104026020016040519081016040528093929190818152602001838380828437600092019190915250929550610936945050505050565b604051808663ffffffff168152602001856001600160401b03168152602001846001600160401b0316815260200183815260200180602001828103825283818151815260200191508051906020019080838360005b83811015610319578181015183820152602001610301565b50505050905090810190601f1680156103465780820380516001836020036101000a031916815260200191505b50965050505050505060405180910390f35b610141610e0f565b61038c6004803603604081101561037657600080fd5b506001600160a01b038135169060200135610f31565b604080516001600160401b039092168252519081900360200190f35b610141600480360360608110156103be57600080fd5b5063ffffffff813516906001600160401b036020820135169060400135610fa6565b6103e861109a565b60408051918252519081900360200190f35b6102ac6004803603608081101561041057600080fd5b63ffffffff823516916020810135916001600160401b03604083013516919081019060808101606082013564010000000081111561044d57600080fd5b82018360208201111561045f57600080fd5b8035906020019184600183028401116401000000008311171561048157600080fd5b91908080601f0160208091040260200160405190810160405280939291908181526020018383808284376000920191909152509295506110a0945050505050565b610516600480360360e08110156104d857600080fd5b5063ffffffff813516906020810135906040810135906060810135906001600160401b03608082013581169160a08101359091169060c001356115f0565b604080516001600160401b03948516815292909316602083015215158183015290519081900360600190f35b6101416004803603602081101561055857600080fd5b503563ffffffff16611818565b6105a76004803603608081101561057b57600080fd5b5063ffffffff813516906001600160401b036020820135811691604081013590911690606001356118de565b6040805163ffffffff90951685526001600160401b03909316602085015261ffff909116838301526060830152519081900360800190f35b610141600480360360208110156105f557600080fd5b50356001600160a01b03166120f7565b6101416004803603602081101561061b57600080fd5b503563ffffffff166121b5565b610141600480360360a081101561063e57600080fd5b506001600160401b03813581169160208101359091169061ffff6040820135811691606081013590911690608001356122ec565b6106a46004803603604081101561068857600080fd5b50803563ffffffff1690602001356001600160401b0316612617565b604080519115158252519081900360200190f35b6106c06126d1565b604080516001600160a01b039092168252519081900360200190f35b6106a46126e0565b6000546001600160a01b03163314610731576040805162461bcd60e51b81526020600482018190526024820152600080516020612b2b833981519152604482015290519081900360640190fd5b6001600160a01b03811661078c576040805162461bcd60e51b815260206004820152601a60248201527f5f676f7665726e616e6365436f6e7472616374203d3d20307830000000000000604482015290519081900360640190fd5b600080546001600160a01b0319166001600160a01b0392909216919091179055565b6000546001600160a01b031633146107fb576040805162461bcd60e51b81526020600482018190526024820152600080516020612b2b833981519152604482015290519081900360640190fd5b6001600160a01b03811660009081526007602052604090205460ff166108525760405162461bcd60e51b815260040180806020018281038252602a815260200180612c29602a913960400191505060405180910390fd5b6001600160a01b03166000908152600760205260409020805460ff19169055565b63ffffffff811660009081526003602052604081205481908190819081908190879060ff166108d7576040805162461bcd60e51b81526020600482015260166024820152600080516020612c88833981519152604482015290519081900360640190fd5b5050505063ffffffff93909316600090815260036020526040902080546001820154600283015460049093015461010083046001600160401b0390811698600160a81b850482169850600160881b90940461ffff169650909116935090565b63ffffffff8416600090815260036020526040812054819081908190606090899060ff16610999576040805162461bcd60e51b81526020600482015260166024820152600080516020612c88833981519152604482015290519081900360640190fd5b6000876040516020018082805190602001908083835b602083106109ce5780518252601f1990920191602091820191016109af565b6001836020036101000a038019825116818451168082178552505050505050905001915050604051602081830303815290604052805190602001209050600560008c63ffffffff1663ffffffff168152602001908152602001600020600082815260200190815260200160002060020160109054906101000a900460ff1615610a94576040805162461bcd60e51b81526020600482015260136024820152723a3c24b21030b63932b0b23c90383937bb32b760691b604482015290519081900360640190fd5b63ffffffff8b166000908152600360205260409020600101546001600160401b03908116908a1610610af75760405162461bcd60e51b815260040180806020018281038252602e815260200180612a97602e913960400191505060405180910390fd5b63ffffffff8b166000908152600360205260409020546001600160401b036101008204811691600160481b90041615610c4b5763ffffffff8c16600090815260036020526040902080546001909101546001600160401b03600160481b830481166101009093048116918116919091031611610ba45760405162461bcd60e51b8152600401808060200182810382526069815260200180612b4b6069913960800191505060405180910390fd5b63ffffffff8c1660009081526003602052604090208054600190910154600160481b9091046001600160401b039081169181168c90031610610c175760405162461bcd60e51b8152600401808060200182810382526052815260200180612a456052913960600191505060405180910390fd5b5063ffffffff8b16600090815260036020526040902080546001909101546001600160401b03600160481b90920482169116035b41331480610c5c575041600160981b145b610cad576040805162461bcd60e51b815260206004820152601c60248201527f696e76616c696420626c6f636b2e636f696e626173652076616c756500000000604482015290519081900360640190fd5b4133148015610cc0575041600160981b14155b15610ddc576040518060a001604052806001151581526020018c81526020018b6001600160401b03168152602001826001600160401b0316815260200160011515815250600560008e63ffffffff1663ffffffff168152602001908152602001600020600084815260200190815260200160002060008201518160000160006101000a81548160ff0219169083151502179055506020820151816001015560408201518160020160006101000a8154816001600160401b0302191690836001600160401b0316021790555060608201518160020160086101000a8154816001600160401b0302191690836001600160401b0316021790555060808201518160020160106101000a81548160ff0219169083151502179055509050505b5050505063ffffffff8816600090815260036020526040902060010154979895976001600160401b031696959350505050565b6000546001600160a01b03163314610e5c576040805162461bcd60e51b81526020600482018190526024820152600080516020612b2b833981519152604482015290519081900360640190fd5b6002544211610e9c5760405162461bcd60e51b815260040180806020018281038252602c815260200180612bb4602c913960400191505060405180910390fd5b62093a80600254420311610ee15760405162461bcd60e51b8152600401808060200182810382526042815260200180612ae96042913960600191505060405180910390fd5b60001960015410610f235760405162461bcd60e51b8152600401808060200182810382526021815260200180612a246021913960400191505060405180910390fd5b600180548101905542600255565b6000600154821115610f745760405162461bcd60e51b81526004018080602001828103825260268152602001806129fe6026913960400191505060405180910390fd5b506001600160a01b0391909116600090815260066020908152604080832093835292905220546001600160401b031690565b6000546001600160a01b03163314610ff3576040805162461bcd60e51b81526020600482018190526024820152600080516020612b2b833981519152604482015290519081900360640190fd5b63ffffffff8316600090815260036020526040902054839060ff1661104d576040805162461bcd60e51b81526020600482015260166024820152600080516020612c88833981519152604482015290519081900360640190fd5b5063ffffffff909216600090815260036020819052604090912080546001600160401b03909316600160481b0270ffffffffffffffff000000000000000000199093169290921782550155565b60015490565b63ffffffff8416600090815260036020526040812054819081908190606090899060ff16611103576040805162461bcd60e51b81526020600482015260166024820152600080516020612c88833981519152604482015290519081900360640190fd5b6000876040516020018082805190602001908083835b602083106111385780518252601f199092019160209182019101611119565b6001836020036101000a038019825116818451168082178552505050505050905001915050604051602081830303815290604052805190602001209050600560008c63ffffffff1663ffffffff168152602001908152602001600020600082815260200190815260200160002060020160109054906101000a900460ff16156111fe576040805162461bcd60e51b81526020600482015260136024820152723a3c24b21030b63932b0b23c90383937bb32b760691b604482015290519081900360640190fd5b63ffffffff8b1660009081526005602090815260408083208484529091529020600201546001600160401b03808b1691161061126b5760405162461bcd60e51b815260040180806020018281038252603481526020018061299e6034913960400191505060405180910390fd5b63ffffffff8b166000908152600360205260409020600101546001600160401b03908116908a16106112ce5760405162461bcd60e51b815260040180806020018281038252602e815260200180612a97602e913960400191505060405180910390fd5b63ffffffff8b166000908152600360205260409020546001600160401b036101008204811691600160481b900416156114225763ffffffff8c16600090815260036020526040902080546001909101546001600160401b03600160481b83048116610100909304811691811691909103161161137b5760405162461bcd60e51b8152600401808060200182810382526069815260200180612b4b6069913960800191505060405180910390fd5b63ffffffff8c1660009081526003602052604090208054600190910154600160481b9091046001600160401b039081169181168c900316106113ee5760405162461bcd60e51b8152600401808060200182810382526052815260200180612a456052913960600191505060405180910390fd5b5063ffffffff8b16600090815260036020526040902080546001909101546001600160401b03600160481b90920482169116035b41331480611433575041600160981b145b611484576040805162461bcd60e51b815260206004820152601c60248201527f696e76616c696420626c6f636b2e636f696e626173652076616c756500000000604482015290519081900360640190fd5b4133148015611497575041600160981b14155b15610ddc576040518060a001604052806001151581526020018c81526020018b6001600160401b03168152602001826001600160401b0316815260200160001515815250600560008e63ffffffff1663ffffffff168152602001908152602001600020600084815260200190815260200160002060008201518160000160006101000a81548160ff0219169083151502179055506020820151816001015560408201518160020160006101000a8154816001600160401b0302191690836001600160401b0316021790555060608201518160020160086101000a8154816001600160401b0302191690836001600160401b0316021790555060808201518160020160106101000a81548160ff021916908315150217905550905050505063ffffffff8a166000908152600360205260409020600101548a96508895506001600160401b0316935088925086915050945094509450945094565b63ffffffff8716600090815260036020526040812054819081908a9060ff1661164e576040805162461bcd60e51b81526020600482015260166024820152600080516020612c88833981519152604482015290519081900360640190fd5b63ffffffff8b1660009081526005602090815260408083208d845290915290205460ff166116b9576040805162461bcd60e51b81526020600482015260136024820152721d1e125908191bd95cc81b9bdd08195e1a5cdd606a1b604482015290519081900360640190fd5b604080516001600160401b03808a166020808401919091528351808403820181528385018552805190820120918a166060808501919091528451808503909101815260808401855280519082012060a084018f905260c084018e905260e084018d905261010084019290925261012083019190915261014080830189905283518084039091018152610160909201835281519181019190912063ffffffff8e166000908152600583528381208e82529092529190206001015481146117bb576040805162461bcd60e51b81526020600482015260136024820152720d2dcecc2d8d2c840e0c2f2dacadce890c2e6d606b1b604482015290519081900360640190fd5b5050505063ffffffff97909716600090815260056020908152604080832098835297905295909520600201546001600160401b03808216986801000000000000000083049091169750600160801b90910460ff1695509350505050565b6000546001600160a01b03163314611865576040805162461bcd60e51b81526020600482018190526024820152600080516020612b2b833981519152604482015290519081900360640190fd5b63ffffffff8116600090815260036020526040902054819060ff166118bf576040805162461bcd60e51b81526020600482015260166024820152600080516020612c88833981519152604482015290519081900360640190fd5b5063ffffffff166000908152600360205260409020805460ff19169055565b63ffffffff8416600090815260036020526040812054819081908190889060ff1661193e576040805162461bcd60e51b81526020600482015260166024820152600080516020612c88833981519152604482015290519081900360640190fd5b3360009081526007602052604090205460ff161561198d5760405162461bcd60e51b8152600401808060200182810382526022815260200180612c076022913960400191505060405180910390fd5b63ffffffff891660009081526003602052604090208054600190910154600160881b90910461ffff166001600160401b0391821601811690891614611a0a576040805162461bcd60e51b815260206004820152600e60248201526d34b73b30b634b2103632b233b2b960911b604482015290519081900360640190fd5b63ffffffff89166000908152600360205260409020546001600160401b03888116600160a81b9092041614611a86576040805162461bcd60e51b815260206004820152601860248201527f696e76616c696420636c61696d506572696f64496e6465780000000000000000604482015290519081900360640190fd5b63ffffffff89166000908152600360205260409020600201544211611adc5760405162461bcd60e51b8152600401808060200182810382526035815260200180612c536035913960400191505060405180910390fd5b63ffffffff89166000908152600360208190526040909120908101546004909101546002021015611b765763ffffffff891660009081526003602081905260409091206004810154600291820154910242919091039091021015611b715760405162461bcd60e51b815260040180806020018281038252602c8152602001806129d2602c913960400191505060405180910390fd5b611bd8565b63ffffffff8916600090815260036020526040902060048101546002909101544203600f011015611bd85760405162461bcd60e51b815260040180806020018281038252602c8152602001806129d2602c913960400191505060405180910390fd5b604080516001600160e01b031960e08c901b166020808301919091526001600160c01b031960c08b901b1660248301528251600c818403018152602c9092018352815191810191909120600081815260049092529190205460ff1615611c85576040805162461bcd60e51b815260206004820152601e60248201527f6c6f636174696f6e4861736820616c72656164792066696e616c697365640000604482015290519081900360640190fd5b6001600160401b03881615611d2f57604080516001600160e01b031960e08d901b166020808301919091526001600160c01b03196000198c0160c01b1660248301528251600c818403018152602c9092018352815191810191909120600081815260049092529190205460ff16611d2d5760405162461bcd60e51b8152600401808060200182810382526027815260200180612be06027913960400191505060405180910390fd5b505b41331480611d40575041600160981b145b611d91576040805162461bcd60e51b815260206004820152601c60248201527f696e76616c696420626c6f636b2e636f696e626173652076616c756500000000604482015290519081900360640190fd5b4133148015611da4575041600160981b14155b156120c05760066000336001600160a01b03166001600160a01b031681526020019081526020016000206000600154815260200190815260200160002060009054906101000a90046001600160401b031660010160066000336001600160a01b03166001600160a01b031681526020019081526020016000206000600154815260200190815260200160002060006101000a8154816001600160401b0302191690836001600160401b031602179055506040518060a001604052806001151581526020018881526020018a6001600160401b0316815260200160006001600160401b03168152602001600115158152506004600083815260200190815260200160002060008201518160000160006101000a81548160ff0219169083151502179055506020820151816001015560408201518160020160006101000a8154816001600160401b0302191690836001600160401b0316021790555060608201518160020160086101000a8154816001600160401b0302191690836001600160401b0316021790555060808201518160020160106101000a81548160ff02191690831515021790555090505087600101600360008c63ffffffff1663ffffffff16815260200190815260200160002060000160156101000a8154816001600160401b0302191690836001600160401b0316021790555088600360008c63ffffffff1663ffffffff16815260200190815260200160002060010160006101000a8154816001600160401b0302191690836001600160401b0316021790555060006002600360008d63ffffffff1663ffffffff168152602001908152602001600020600201544203600360008e63ffffffff1663ffffffff16815260200190815260200160002060040154018161203357fe5b63ffffffff8d166000908152600360208190526040909120015491900491506002028111156120865763ffffffff8b166000908152600360208190526040909120908101546002026004909101556120a2565b63ffffffff8b1660009081526003602052604090206004018190555b5063ffffffff8a166000908152600360205260409020426002909101555b5050505063ffffffff861660009081526003602052604090205495966000199590950195600160981b900461ffff16949293505050565b6000546001600160a01b03163314612144576040805162461bcd60e51b81526020600482018190526024820152600080516020612b2b833981519152604482015290519081900360640190fd5b6000546001600160a01b03828116911614156121915760405162461bcd60e51b8152600401808060200182810382526024815260200180612ac56024913960400191505060405180910390fd5b6001600160a01b03166000908152600760205260409020805460ff19166001179055565b6000546001600160a01b03163314612202576040805162461bcd60e51b81526020600482018190526024820152600080516020612b2b833981519152604482015290519081900360640190fd5b60005463ffffffff600160a81b909104811690821610612260576040805162461bcd60e51b8152602060048201526014602482015273636861696e4964203e3d206e756d436861696e7360601b604482015290519081900360640190fd5b63ffffffff811660009081526003602052604090205460ff16156122cb576040805162461bcd60e51b815260206004820152601e60248201527f636861696e735b636861696e49645d2e657869737473203d3d20747275650000604482015290519081900360640190fd5b63ffffffff166000908152600360205260409020805460ff19166001179055565b6000546001600160a01b03163314612339576040805162461bcd60e51b81526020600482018190526024820152600080516020612b2b833981519152604482015290519081900360640190fd5b60008054600160a81b900463ffffffff1681526003602052604090205460ff16156123a4576040805162461bcd60e51b8152602060048201526016602482015275636861696e496420616c72656164792065786973747360501b604482015290519081900360640190fd5b60008361ffff16116123f6576040805162461bcd60e51b81526020600482015260166024820152750636c61696d506572696f644c656e677468203d3d20360541b604482015290519081900360640190fd5b604051806101400160405280600115158152602001866001600160401b03168152602001856001600160401b031681526020018461ffff1681526020018361ffff16815260200160006001600160401b03168152602001866001600160401b031681526020014281526020018281526020016000815250600360008060159054906101000a900463ffffffff1663ffffffff1663ffffffff16815260200190815260200160002060008201518160000160006101000a81548160ff02191690831515021790555060208201518160000160016101000a8154816001600160401b0302191690836001600160401b0316021790555060408201518160000160096101000a8154816001600160401b0302191690836001600160401b0316021790555060608201518160000160116101000a81548161ffff021916908361ffff16021790555060808201518160000160136101000a81548161ffff021916908361ffff16021790555060a08201518160000160156101000a8154816001600160401b0302191690836001600160401b0316021790555060c08201518160010160006101000a8154816001600160401b0302191690836001600160401b0316021790555060e0820151816002015561010082015181600301556101208201518160040155905050600060159054906101000a900463ffffffff16600101600060156101000a81548163ffffffff021916908363ffffffff1602179055505050505050565b63ffffffff8216600090815260036020526040812054839060ff16612671576040805162461bcd60e51b81526020600482015260166024820152600080516020612c88833981519152604482015290519081900360640190fd5b50506040805160e09390931b6001600160e01b03191660208085019190915260c09290921b6001600160c01b03191660248401528051808403600c018152602c909301815282519282019290922060009081526004909152205460ff1690565b6000546001600160a01b031690565b60008054600160a01b900460ff1615612737576040805162461bcd60e51b8152602060048201526014602482015273696e697469616c6973656420213d2066616c736560601b604482015290519081900360640190fd5b73fffec6c83c8bf5c3f4ae0ccf8c45ce20e4560bd76000806101000a8154816001600160a01b0302191690836001600160a01b031602179055506040518061014001604052806001151581526020016303bf79006001600160401b0316815260200160006001600160401b03168152602001601e61ffff168152602001600061ffff16815260200160006001600160401b031681526020016303bf79006001600160401b03168152602001428152602001607881526020016000815250600360008063ffffffff16815260200190815260200160002060008201518160000160006101000a81548160ff02191690831515021790555060208201518160000160016101000a8154816001600160401b0302191690836001600160401b0316021790555060408201518160000160096101000a8154816001600160401b0302191690836001600160401b0316021790555060608201518160000160116101000a81548161ffff021916908361ffff16021790555060808201518160000160136101000a81548161ffff021916908361ffff16021790555060a08201518160000160156101000a8154816001600160401b0302191690836001600160401b0316021790555060c08201518160010160006101000a8154816001600160401b0302191690836001600160401b0316021790555060e08201518160020155610100820151816003015561012082015181600401559050506001600060156101000a81548163ffffffff021916908363ffffffff1602179055506000600181905550426002819055506001600060146101000a81548160ff021916908315150217905550600190509056fe66696e616c697365645061796d656e74735b636861696e49645d5b74784964486173685d2e696e646578203e3d206c65646765726e6f7420656e6f7567682074696d6520656c61707365642073696e6365207072696f722066696e616c6974797265776172645363686564756c65203e2063757272656e745265776172645363686564756c6563757272656e745265776172645363686564756c65203e3d20322a2a3235362d31636861696e735b636861696e49645d2e66696e616c697365644c6564676572496e646578202d206c6564676572203e3d20636861696e735b636861696e49645d2e6c6564676572486973746f727953697a656c6564676572203e3d20636861696e735b636861696e49645d2e66696e616c697365644c6564676572496e646578626c6f636b656441646472657373203d3d20676f7665726e616e6365436f6e7472616374626c6f636b2e74696d657374616d70202d207265776172645363686564756c654c61737455706461746564203c3d203630343830302c20692e652e2031207765656b6d73672e73656e64657220213d20676f7665726e616e6365436f6e7472616374636861696e735b636861696e49645d2e66696e616c697365644c6564676572496e646578202d20636861696e735b636861696e49645d2e67656e657369734c6564676572203c3d20636861696e735b636861696e49645d2e6c6564676572486973746f727953697a65626c6f636b2e74696d657374616d70203c3d207265776172645363686564756c654c6173745570646174656470726576696f757320636c61696d20706572696f64206e6f74207965742066696e616c6973656474686973206163636f756e7420697320676f7665726e616e636520626c6f636b656421676f7665726e616e6365426c6f636b65644163636f756e74735b626c6f636b6564416464726573735d626c6f636b2e74696d657374616d70203c3d20636861696e735b636861696e49645d2e66696e616c6973656454696d657374616d70636861696e496420646f6573206e6f7420657869737400000000000000000000a2646970667358221220dd155ef74134c55fcf08f77fb726a788f7126f07c40ac9ae36eba2b778ff0cc864736f6c63430007060033",
    "sourcePath": "/home/my-usern/flare/contracts/StateConnector.sol",
    "compiler": {
        "name": "solc",
        "version": "0.7.6+commit.7338295f"
    },
    "functionHashes": {
        "addChain(uint64,uint64,uint16,uint16,uint256)": "dbcfda27",
        "blockAddress(address)": "ad2bb1b3",
        "bumpRewardSchedule()": "45ebe72d",
        "disableChain(uint32)": "a060b647",
        "disprovePaymentFinality(uint32,bytes32,uint64,string)": "7f582432",
        "enableChain(uint32)": "c1b0e574",
        "getClaimPeriodIndexFinality(uint32,uint64)": "e54caf92",
        "getClaimPeriodsMined(address,uint256)": "49d5436f",
        "getGovernanceContract()": "ef2fa85f",
        "getLatestIndex(uint32)": "2a2434a2",
        "getPaymentFinality(uint32,bytes32,bytes32,bytes32,uint64,uint64,bytes32)": "955a2256",
        "getRewardSchedule()": "6fac338b",
        "initialiseChains()": "ef4c169e",
        "proveClaimPeriodFinality(uint32,uint64,uint64,bytes32)": "a57d0e25",
        "provePaymentFinality(uint32,bytes32,uint64,string)": "388492dd",
        "setGovernanceContract(address)": "1129753f",
        "unblockAddress(address)": "186d9d88",
        "updateChainTiming(uint32,uint64,uint256)": "4d7cf6d5"
    },
    "gasEstimates": {
        "creation": {
            "codeDepositCost": "2297000",
            "executionCost": "2456",
            "totalCost": "2299456"
        },
        "external": {
            "addChain(uint64,uint64,uint16,uint16,uint256)": "infinite",
            "blockAddress(address)": "infinite",
            "bumpRewardSchedule()": "infinite",
            "disableChain(uint32)": "infinite",
            "disprovePaymentFinality(uint32,bytes32,uint64,string)": "infinite",
            "enableChain(uint32)": "infinite",
            "getClaimPeriodIndexFinality(uint32,uint64)": "infinite",
            "getClaimPeriodsMined(address,uint256)": "infinite",
            "getGovernanceContract()": "1125",
            "getLatestIndex(uint32)": "infinite",
            "getPaymentFinality(uint32,bytes32,bytes32,bytes32,uint64,uint64,bytes32)": "infinite",
            "getRewardSchedule()": "1087",
            "initialiseChains()": "280883",
            "proveClaimPeriodFinality(uint32,uint64,uint64,bytes32)": "infinite",
            "provePaymentFinality(uint32,bytes32,uint64,string)": "infinite",
            "setGovernanceContract(address)": "infinite",
            "unblockAddress(address)": "infinite",
            "updateChainTiming(uint32,uint64,uint256)": "infinite"
        },
        "internal": {
            "getClaimPeriodFinality(bytes32,uint32,uint64)": "infinite"
        }
    }
}