{
    "contractName": "StateConnector",
    "abi": [
        {
            "inputs": [],
            "stateMutability": "nonpayable",
            "type": "constructor"
        },
        {
            "inputs": [
                {
                    "internalType": "uint64",
                    "name": "genesisLedger",
                    "type": "uint64"
                },
                {
                    "internalType": "uint16",
                    "name": "claimPeriodLength",
                    "type": "uint16"
                },
                {
                    "internalType": "uint16",
                    "name": "numConfirmations",
                    "type": "uint16"
                },
                {
                    "internalType": "uint256",
                    "name": "timeDiffExpected",
                    "type": "uint256"
                }
            ],
            "name": "addChain",
            "outputs": [
                {
                    "internalType": "uint32",
                    "name": "currNumChains",
                    "type": "uint32"
                }
            ],
            "stateMutability": "nonpayable",
            "type": "function"
        },
        {
            "inputs": [
                {
                    "internalType": "address",
                    "name": "blockedAddress",
                    "type": "address"
                }
            ],
            "name": "blockAddress",
            "outputs": [],
            "stateMutability": "nonpayable",
            "type": "function"
        },
        {
            "inputs": [],
            "name": "bumpRewardSchedule",
            "outputs": [],
            "stateMutability": "nonpayable",
            "type": "function"
        },
        {
            "inputs": [
                {
                    "internalType": "uint32",
                    "name": "chainId",
                    "type": "uint32"
                }
            ],
            "name": "disableChain",
            "outputs": [],
            "stateMutability": "nonpayable",
            "type": "function"
        },
        {
            "inputs": [
                {
                    "internalType": "uint32",
                    "name": "chainId",
                    "type": "uint32"
                }
            ],
            "name": "enableChain",
            "outputs": [],
            "stateMutability": "nonpayable",
            "type": "function"
        },
        {
            "inputs": [
                {
                    "internalType": "uint32",
                    "name": "chainId",
                    "type": "uint32"
                },
                {
                    "internalType": "uint64",
                    "name": "claimPeriodIndex",
                    "type": "uint64"
                }
            ],
            "name": "getClaimPeriodIndexFinality",
            "outputs": [
                {
                    "internalType": "bool",
                    "name": "finality",
                    "type": "bool"
                }
            ],
            "stateMutability": "view",
            "type": "function"
        },
        {
            "inputs": [
                {
                    "internalType": "address",
                    "name": "miner",
                    "type": "address"
                },
                {
                    "internalType": "uint256",
                    "name": "rewardSchedule",
                    "type": "uint256"
                }
            ],
            "name": "getClaimPeriodsMined",
            "outputs": [
                {
                    "internalType": "uint64",
                    "name": "numMined",
                    "type": "uint64"
                }
            ],
            "stateMutability": "view",
            "type": "function"
        },
        {
            "inputs": [],
            "name": "getGovernanceContract",
            "outputs": [
                {
                    "internalType": "address",
                    "name": "_governanceContract",
                    "type": "address"
                }
            ],
            "stateMutability": "view",
            "type": "function"
        },
        {
            "inputs": [
                {
                    "internalType": "uint32",
                    "name": "chainId",
                    "type": "uint32"
                }
            ],
            "name": "getLatestIndex",
            "outputs": [
                {
                    "internalType": "uint64",
                    "name": "genesisLedger",
                    "type": "uint64"
                },
                {
                    "internalType": "uint64",
                    "name": "finalisedClaimPeriodIndex",
                    "type": "uint64"
                },
                {
                    "internalType": "uint16",
                    "name": "claimPeriodLength",
                    "type": "uint16"
                },
                {
                    "internalType": "uint64",
                    "name": "finalisedLedgerIndex",
                    "type": "uint64"
                },
                {
                    "internalType": "uint256",
                    "name": "finalisedTimestamp",
                    "type": "uint256"
                },
                {
                    "internalType": "uint256",
                    "name": "timeDiffAvg",
                    "type": "uint256"
                }
            ],
            "stateMutability": "view",
            "type": "function"
        },
        {
            "inputs": [
                {
                    "internalType": "uint32",
                    "name": "chainId",
                    "type": "uint32"
                },
                {
                    "internalType": "bytes32",
                    "name": "txId",
                    "type": "bytes32"
                },
                {
                    "internalType": "uint64",
                    "name": "ledger",
                    "type": "uint64"
                },
                {
                    "internalType": "bytes32",
                    "name": "sourceHash",
                    "type": "bytes32"
                },
                {
                    "internalType": "bytes32",
                    "name": "destinationHash",
                    "type": "bytes32"
                },
                {
                    "internalType": "uint64",
                    "name": "destinationTag",
                    "type": "uint64"
                },
                {
                    "internalType": "uint64",
                    "name": "amount",
                    "type": "uint64"
                }
            ],
            "name": "getPaymentFinality",
            "outputs": [
                {
                    "internalType": "bool",
                    "name": "finality",
                    "type": "bool"
                },
                {
                    "internalType": "uint256",
                    "name": "timestamp",
                    "type": "uint256"
                }
            ],
            "stateMutability": "view",
            "type": "function"
        },
        {
            "inputs": [],
            "name": "getRewardSchedule",
            "outputs": [
                {
                    "internalType": "uint256",
                    "name": "rewardSchedule",
                    "type": "uint256"
                }
            ],
            "stateMutability": "view",
            "type": "function"
        },
        {
            "inputs": [],
            "name": "initialiseChains",
            "outputs": [
                {
                    "internalType": "bool",
                    "name": "success",
                    "type": "bool"
                }
            ],
            "stateMutability": "nonpayable",
            "type": "function"
        },
        {
            "inputs": [
                {
                    "internalType": "uint32",
                    "name": "chainId",
                    "type": "uint32"
                },
                {
                    "internalType": "uint64",
                    "name": "ledger",
                    "type": "uint64"
                },
                {
                    "internalType": "uint64",
                    "name": "claimPeriodIndex",
                    "type": "uint64"
                },
                {
                    "internalType": "bytes32",
                    "name": "claimPeriodHash",
                    "type": "bytes32"
                }
            ],
            "name": "proveClaimPeriodFinality",
            "outputs": [
                {
                    "internalType": "uint32",
                    "name": "_chainId",
                    "type": "uint32"
                },
                {
                    "internalType": "uint64",
                    "name": "_ledger",
                    "type": "uint64"
                },
                {
                    "internalType": "uint16",
                    "name": "_numConfirmations",
                    "type": "uint16"
                },
                {
                    "internalType": "bytes32",
                    "name": "_claimPeriodHash",
                    "type": "bytes32"
                }
            ],
            "stateMutability": "nonpayable",
            "type": "function"
        },
        {
            "inputs": [
                {
                    "internalType": "uint32",
                    "name": "chainId",
                    "type": "uint32"
                },
                {
                    "internalType": "uint64",
                    "name": "claimPeriodIndex",
                    "type": "uint64"
                },
                {
                    "internalType": "bytes32",
                    "name": "claimPeriodHash",
                    "type": "bytes32"
                },
                {
                    "internalType": "bytes32",
                    "name": "paymentHash",
                    "type": "bytes32"
                },
                {
                    "internalType": "string",
                    "name": "txId",
                    "type": "string"
                }
            ],
            "name": "provePaymentFinality",
            "outputs": [
                {
                    "internalType": "uint32",
                    "name": "_chainId",
                    "type": "uint32"
                },
                {
                    "internalType": "uint64",
                    "name": "finalisedLedgerIndex",
                    "type": "uint64"
                },
                {
                    "internalType": "bytes32",
                    "name": "_paymentHash",
                    "type": "bytes32"
                },
                {
                    "internalType": "string",
                    "name": "_txId",
                    "type": "string"
                }
            ],
            "stateMutability": "nonpayable",
            "type": "function"
        },
        {
            "inputs": [
                {
                    "internalType": "address",
                    "name": "_governanceContract",
                    "type": "address"
                }
            ],
            "name": "setGovernanceContract",
            "outputs": [],
            "stateMutability": "nonpayable",
            "type": "function"
        },
        {
            "inputs": [
                {
                    "internalType": "address",
                    "name": "blockedAddress",
                    "type": "address"
                }
            ],
            "name": "unblockAddress",
            "outputs": [],
            "stateMutability": "nonpayable",
            "type": "function"
        },
        {
            "inputs": [
                {
                    "internalType": "uint32",
                    "name": "chainId",
                    "type": "uint32"
                },
                {
                    "internalType": "uint256",
                    "name": "timeDiffExpected",
                    "type": "uint256"
                }
            ],
            "name": "updateChainTiming",
            "outputs": [],
            "stateMutability": "nonpayable",
            "type": "function"
        }
    ],
    "bytecode": "608060405234801561001057600080fd5b50612458806100206000396000f3fe608060405234801561001057600080fd5b506004361061010b5760003560e01c80636fac338b116100a2578063c1b0e57411610071578063c1b0e57414610539578063e54caf921461055c578063ef2fa85f146105a2578063ef4c169e146105c6578063ff695ef0146105ce5761010b565b80636fac338b1461045c578063a060b64714610476578063a57d0e2514610499578063ad2bb1b3146105135761010b565b80632a2434a2116100de5780632a2434a21461032057806345ebe72d1461039b57806349d5436f146103a35780634cf59133146103eb5761010b565b80631129753f1461011057806313bb431c14610138578063186d9d88146102a15780631d4ded8e146102c7575b600080fd5b6101366004803603602081101561012657600080fd5b50356001600160a01b03166105f7565b005b610205600480360360a081101561014e57600080fd5b63ffffffff823516916001600160401b036020820135169160408201359160608101359181019060a08101608082013564010000000081111561019057600080fd5b8201836020820111156101a257600080fd5b803590602001918460018302840111640100000000831117156101c457600080fd5b91908080601f0160208091040260200160405190810160405280939291908181526020018383808284376000920191909152509295506106c1945050505050565b604051808563ffffffff168152602001846001600160401b0316815260200183815260200180602001828103825283818151815260200191508051906020019080838360005b8381101561026357818101518382015260200161024b565b50505050905090810190601f1680156102905780820380516001836020036101000a031916815260200191505b509550505050505060405180910390f35b610136600480360360208110156102b757600080fd5b50356001600160a01b0316610965565b610307600480360360808110156102dd57600080fd5b506001600160401b038135169061ffff602082013581169160408101359091169060600135610a2a565b6040805163ffffffff9092168252519081900360200190f35b6103436004803603602081101561033657600080fd5b503563ffffffff16610dba565b60405180876001600160401b03168152602001866001600160401b031681526020018561ffff168152602001846001600160401b03168152602001838152602001828152602001965050505050505060405180910390f35b610136610e7f565b6103cf600480360360408110156103b957600080fd5b506001600160a01b038135169060200135610fa1565b604080516001600160401b039092168252519081900360200190f35b610441600480360360e081101561040157600080fd5b5063ffffffff813516906020810135906001600160401b03604082013581169160608101359160808201359160a081013582169160c09091013516611016565b60408051921515835260208301919091528051918290030190f35b610464611239565b60408051918252519081900360200190f35b6101366004803603602081101561048c57600080fd5b503563ffffffff1661123f565b6104db600480360360808110156104af57600080fd5b5063ffffffff813516906001600160401b03602082013581169160408101359091169060600135611305565b6040805163ffffffff90951685526001600160401b03909316602085015261ffff909116838301526060830152519081900360800190f35b6101366004803603602081101561052957600080fd5b50356001600160a01b0316611a92565b6101366004803603602081101561054f57600080fd5b503563ffffffff16611b50565b61058e6004803603604081101561057257600080fd5b50803563ffffffff1690602001356001600160401b0316611c87565b604080519115158252519081900360200190f35b6105aa611d41565b604080516001600160a01b039092168252519081900360200190f35b61058e611d50565b610136600480360360408110156105e457600080fd5b5063ffffffff8135169060200135611fcf565b6000546001600160a01b03163314610644576040805162461bcd60e51b8152602060048201819052602482015260008051602061230f833981519152604482015290519081900360640190fd5b6001600160a01b03811661069f576040805162461bcd60e51b815260206004820152601a60248201527f5f676f7665726e616e6365436f6e7472616374203d3d20307830000000000000604482015290519081900360640190fd5b600080546001600160a01b0319166001600160a01b0392909216919091179055565b63ffffffff851660009081526003602052604081205481908190606090899060ff16610722576040805162461bcd60e51b81526020600482015260166024820152600080516020612403833981519152604482015290519081900360640190fd5b6000866040516020018082805190602001908083835b602083106107575780518252601f199092019160209182019101610738565b6001836020036101000a038019825116818451168082178552505050505050905001915050604051602081830303815290604052805190602001209050600560008c63ffffffff1663ffffffff168152602001908152602001600020600082815260200190815260200160002060000160009054906101000a900460ff161561081d576040805162461bcd60e51b81526020600482015260136024820152723a3c24b21030b63932b0b23c90383937bb32b760691b604482015290519081900360640190fd5b600061082a8a8d8d612093565b90504133148061083d575041600160981b145b61088e576040805162461bcd60e51b815260206004820152601c60248201527f496e76616c696420626c6f636b2e636f696e626173652076616c756500000000604482015290519081900360640190fd5b41331480156108a1575041600160981b14155b1561092c5760405180606001604052806001151581526020018a815260200182815250600560008e63ffffffff1663ffffffff168152602001908152602001600020600084815260200190815260200160002060008201518160000160006101000a81548160ff02191690831515021790555060208201518160010155604082015181600201559050505b5050505063ffffffff88166000908152600360205260409020549798600160a81b9098046001600160401b031697949650929450505050565b6000546001600160a01b031633146109b2576040805162461bcd60e51b8152602060048201819052602482015260008051602061230f833981519152604482015290519081900360640190fd5b6001600160a01b03811660009081526007602052604090205460ff16610a095760405162461bcd60e51b815260040180806020018281038252602a8152602001806123a4602a913960400191505060405180910390fd5b6001600160a01b03166000908152600760205260409020805460ff19169055565b600080546001600160a01b03163314610a78576040805162461bcd60e51b8152602060048201819052602482015260008051602061230f833981519152604482015290519081900360640190fd5b60008054600160a81b900463ffffffff1681526003602052604090205460ff1615610ae3576040805162461bcd60e51b8152602060048201526016602482015275636861696e496420616c72656164792065786973747360501b604482015290519081900360640190fd5b60008461ffff1611610b35576040805162461bcd60e51b81526020600482015260166024820152750636c61696d506572696f644c656e677468203d3d20360541b604482015290519081900360640190fd5b6000546001600160a01b0316411480610b51575041600160981b145b610ba2576040805162461bcd60e51b815260206004820152601c60248201527f496e76616c696420626c6f636b2e636f696e626173652076616c756500000000604482015290519081900360640190fd5b600054600160a81b810463ffffffff16906001600160a01b031641148015610bce575041600160981b14155b15610db157604051806101200160405280600115158152602001876001600160401b031681526020018661ffff1681526020018561ffff16815260200160006001600160401b03168152602001876001600160401b031681526020014281526020018481526020016000815250600360008060159054906101000a900463ffffffff1663ffffffff1663ffffffff16815260200190815260200160002060008201518160000160006101000a81548160ff02191690831515021790555060208201518160000160016101000a8154816001600160401b0302191690836001600160401b0316021790555060408201518160000160096101000a81548161ffff021916908361ffff160217905550606082015181600001600b6101000a81548161ffff021916908361ffff160217905550608082015181600001600d6101000a8154816001600160401b0302191690836001600160401b0316021790555060a08201518160000160156101000a8154816001600160401b0302191690836001600160401b0316021790555060c0820151816001015560e082015181600201556101008201518160030155905050600060159054906101000a900463ffffffff16600101600060156101000a81548163ffffffff021916908363ffffffff1602179055505b95945050505050565b63ffffffff811660009081526003602052604081205481908190819081908190879060ff16610e1e576040805162461bcd60e51b81526020600482015260166024820152600080516020612403833981519152604482015290519081900360640190fd5b5050505063ffffffff9390931660009081526003602081905260409091208054600182015491909201546001600160401b036101008404811697600160681b85048216975061ffff600160481b8604169650600160a81b9094041693509091565b6000546001600160a01b03163314610ecc576040805162461bcd60e51b8152602060048201819052602482015260008051602061230f833981519152604482015290519081900360640190fd5b6002544211610f0c5760405162461bcd60e51b815260040180806020018281038252602c81526020018061232f602c913960400191505060405180910390fd5b62093a80600254420311610f515760405162461bcd60e51b81526004018080602001828103825260428152602001806122cd6042913960600191505060405180910390fd5b60001960015410610f935760405162461bcd60e51b81526004018080602001828103825260218152602001806122566021913960400191505060405180910390fd5b600180548101905542600255565b6000600154821115610fe45760405162461bcd60e51b81526004018080602001828103825260268152602001806122306026913960400191505060405180910390fd5b506001600160a01b0391909116600090815260066020908152604080832093835292905220546001600160401b031690565b63ffffffff87166000908152600360205260408120548190899060ff16611072576040805162461bcd60e51b81526020600482015260166024820152600080516020612403833981519152604482015290519081900360640190fd5b63ffffffff8a1660009081526005602090815260408083208c845290915290205460ff166110dd576040805162461bcd60e51b81526020600482015260136024820152721d1e125908191bd95cc81b9bdd08195e1a5cdd606a1b604482015290519081900360640190fd5b604080516001600160401b03808b1660208084019190915283518084038201815283850185528051908201208983166060808601919091528551808603909101815260808501865280519083012092891660a0808601919091528551808603909101815260c08501865280519083012060e085018f905261010085019190915261012084018c905261014084018b905261016084019290925261018080840192909252835180840390920182526101a0909201835280519082012063ffffffff8d166000908152600583528381208d8252909252919020600101548114611201576040805162461bcd60e51b81526020600482015260136024820152720d2dcecc2d8d2c840e0c2f2dacadce890c2e6d606b1b604482015290519081900360640190fd5b5063ffffffff8a1660009081526005602090815260408083208c84529091529020600201546001935091505097509795505050505050565b60015490565b6000546001600160a01b0316331461128c576040805162461bcd60e51b8152602060048201819052602482015260008051602061230f833981519152604482015290519081900360640190fd5b63ffffffff8116600090815260036020526040902054819060ff166112e6576040805162461bcd60e51b81526020600482015260166024820152600080516020612403833981519152604482015290519081900360640190fd5b5063ffffffff166000908152600360205260409020805460ff19169055565b63ffffffff8416600090815260036020526040812054819081908190889060ff16611365576040805162461bcd60e51b81526020600482015260166024820152600080516020612403833981519152604482015290519081900360640190fd5b3360009081526007602052604090205460ff16156113b45760405162461bcd60e51b81526004018080602001828103825260228152602001806123826022913960400191505060405180910390fd5b63ffffffff8916600090815260036020526040902054600160481b810461ffff16600160a81b9091046001600160401b0390811691909101811690891614611434576040805162461bcd60e51b815260206004820152600e60248201526d34b73b30b634b2103632b233b2b960911b604482015290519081900360640190fd5b63ffffffff89166000908152600360205260409020546001600160401b03888116600160681b90920416146114b0576040805162461bcd60e51b815260206004820152601860248201527f696e76616c696420636c61696d506572696f64496e6465780000000000000000604482015290519081900360640190fd5b63ffffffff891660009081526003602052604090206001015442116115065760405162461bcd60e51b81526004018080602001828103825260358152602001806123ce6035913960400191505060405180910390fd5b63ffffffff89166000908152600360208190526040909120600280820154919092015490910210156115a35763ffffffff891660009081526003602081905260409091208082015460019091015460029091024291909103909102101561159e5760405162461bcd60e51b815260040180806020018281038252602c815260200180612204602c913960400191505060405180910390fd5b611607565b63ffffffff89166000908152600360208190526040909120908101546001909101544203600f0110156116075760405162461bcd60e51b815260040180806020018281038252602c815260200180612204602c913960400191505060405180910390fd5b604080516001600160e01b031960e08c901b166020808301919091526001600160c01b031960c08b901b1660248301528251600c818403018152602c9092018352815191810191909120600081815260049092529190205460ff16156116b4576040805162461bcd60e51b815260206004820152601e60248201527f6c6f636174696f6e4861736820616c72656164792066696e616c697365640000604482015290519081900360640190fd5b6001600160401b0388161561175e57604080516001600160e01b031960e08d901b166020808301919091526001600160c01b03196000198c0160c01b1660248301528251600c818403018152602c9092018352815191810191909120600081815260049092529190205460ff1661175c5760405162461bcd60e51b815260040180806020018281038252602781526020018061235b6027913960400191505060405180910390fd5b505b4133148061176f575041600160981b145b6117c0576040805162461bcd60e51b815260206004820152601c60248201527f496e76616c696420626c6f636b2e636f696e626173652076616c756500000000604482015290519081900360640190fd5b41331480156117d3575041600160981b14155b15611a5b5760066000336001600160a01b03166001600160a01b031681526020019081526020016000206000600154815260200190815260200160002060009054906101000a90046001600160401b031660010160066000336001600160a01b03166001600160a01b031681526020019081526020016000206000600154815260200190815260200160002060006101000a8154816001600160401b0302191690836001600160401b031602179055506040518060600160405280600115158152602001888152602001428152506004600083815260200190815260200160002060008201518160000160006101000a81548160ff021916908315150217905550602082015181600101556040820151816002015590505087600101600360008c63ffffffff1663ffffffff168152602001908152602001600020600001600d6101000a8154816001600160401b0302191690836001600160401b0316021790555088600360008c63ffffffff1663ffffffff16815260200190815260200160002060000160156101000a8154816001600160401b0302191690836001600160401b0316021790555060006002600360008d63ffffffff1663ffffffff168152602001908152602001600020600101544203600360008e63ffffffff1663ffffffff1681526020019081526020016000206003015401816119d057fe5b63ffffffff8d16600090815260036020526040902060029081015492909104925002811115611a205763ffffffff8b16600090815260036020819052604090912060028082015402910155611a3d565b63ffffffff8b166000908152600360208190526040909120018190555b5063ffffffff8a166000908152600360205260409020426001909101555b5050505063ffffffff861660009081526003602052604090205495966000199590950195600160581b900461ffff16949293505050565b6000546001600160a01b03163314611adf576040805162461bcd60e51b8152602060048201819052602482015260008051602061230f833981519152604482015290519081900360640190fd5b6000546001600160a01b0382811691161415611b2c5760405162461bcd60e51b81526004018080602001828103825260248152602001806122a96024913960400191505060405180910390fd5b6001600160a01b03166000908152600760205260409020805460ff19166001179055565b6000546001600160a01b03163314611b9d576040805162461bcd60e51b8152602060048201819052602482015260008051602061230f833981519152604482015290519081900360640190fd5b60005463ffffffff600160a81b909104811690821610611bfb576040805162461bcd60e51b8152602060048201526014602482015273636861696e4964203e3d206e756d436861696e7360601b604482015290519081900360640190fd5b63ffffffff811660009081526003602052604090205460ff1615611c66576040805162461bcd60e51b815260206004820152601e60248201527f636861696e735b636861696e49645d2e657869737473203d3d20747275650000604482015290519081900360640190fd5b63ffffffff166000908152600360205260409020805460ff19166001179055565b63ffffffff8216600090815260036020526040812054839060ff16611ce1576040805162461bcd60e51b81526020600482015260166024820152600080516020612403833981519152604482015290519081900360640190fd5b50506040805160e09390931b6001600160e01b03191660208085019190915260c09290921b6001600160c01b03191660248401528051808403600c018152602c909301815282519282019290922060009081526004909152205460ff1690565b6000546001600160a01b031690565b60008054600160a01b900460ff1615611da7576040805162461bcd60e51b8152602060048201526014602482015273696e697469616c6973656420213d2066616c736560601b604482015290519081900360640190fd5b73fffec6c83c8bf5c3f4ae0ccf8c45ce20e4560bd76000806101000a8154816001600160a01b0302191690836001600160a01b031602179055506040518061012001604052806001151581526020016303bf79006001600160401b03168152602001601e61ffff168152602001600061ffff16815260200160006001600160401b031681526020016303bf79006001600160401b03168152602001428152602001607881526020016000815250600360008063ffffffff16815260200190815260200160002060008201518160000160006101000a81548160ff02191690831515021790555060208201518160000160016101000a8154816001600160401b0302191690836001600160401b0316021790555060408201518160000160096101000a81548161ffff021916908361ffff160217905550606082015181600001600b6101000a81548161ffff021916908361ffff160217905550608082015181600001600d6101000a8154816001600160401b0302191690836001600160401b0316021790555060a08201518160000160156101000a8154816001600160401b0302191690836001600160401b0316021790555060c0820151816001015560e0820151816002015561010082015181600301559050506001600060156101000a81548163ffffffff021916908363ffffffff1602179055506000600181905550426002819055506001600060146101000a81548160ff0219169083151502179055506001905090565b6000546001600160a01b0316331461201c576040805162461bcd60e51b8152602060048201819052602482015260008051602061230f833981519152604482015290519081900360640190fd5b63ffffffff8216600090815260036020526040902054829060ff16612076576040805162461bcd60e51b81526020600482015260166024820152600080516020612403833981519152604482015290519081900360640190fd5b5063ffffffff909116600090815260036020526040902060020155565b63ffffffff8216600090815260036020526040812054839060ff166120ed576040805162461bcd60e51b81526020600482015260166024820152600080516020612403833981519152604482015290519081900360640190fd5b604080516001600160e01b031960e087901b166020808301919091526001600160c01b031960c087901b1660248301528251600c818403018152602c9092018352815191810191909120600081815260049092529190205460ff166121835760405162461bcd60e51b81526004018080602001828103825260328152602001806122776032913960400191505060405180910390fd5b60008181526004602052604090206001015486146121e8576040805162461bcd60e51b815260206004820152601760248201527f496e76616c696420636c61696d506572696f6448617368000000000000000000604482015290519081900360640190fd5b6000908152600460205260409020600201549594505050505056fe6e6f7420656e6f7567682074696d6520656c61707365642073696e6365207072696f722066696e616c6974797265776172645363686564756c65203e2063757272656e745265776172645363686564756c6563757272656e745265776172645363686564756c65203e3d20322a2a3235362d3166696e616c69736564436c61696d506572696f64735b6c6f636174696f6e486173685d20646f6573206e6f74206578697374626c6f636b656441646472657373203d3d20676f7665726e616e6365436f6e7472616374626c6f636b2e74696d657374616d70202d207265776172645363686564756c654c61737455706461746564203c3d203630343830302c20692e652e2031207765656b6d73672e73656e64657220213d20676f7665726e616e6365436f6e7472616374626c6f636b2e74696d657374616d70203c3d207265776172645363686564756c654c6173745570646174656470726576696f757320636c61696d20706572696f64206e6f74207965742066696e616c6973656474686973206163636f756e7420697320676f7665726e616e636520626c6f636b656421676f7665726e616e6365426c6f636b65644163636f756e74735b626c6f636b6564416464726573735d626c6f636b2e74696d657374616d70203c3d20636861696e735b636861696e49645d2e66696e616c6973656454696d657374616d70636861696e496420646f6573206e6f7420657869737400000000000000000000a2646970667358221220b5d4f3c40175eebf12492c74d5bb191f8e74dea2f7dd8504a0ea41d1d7594db864736f6c63430007060033",
    "sourcePath": "/home/my-usern/flare/contracts/StateConnector.sol",
    "compiler": {
        "name": "solc",
        "version": "0.7.6+commit.7338295f"
    },
    "functionHashes": {
        "addChain(uint64,uint16,uint16,uint256)": "1d4ded8e",
        "blockAddress(address)": "ad2bb1b3",
        "bumpRewardSchedule()": "45ebe72d",
        "disableChain(uint32)": "a060b647",
        "enableChain(uint32)": "c1b0e574",
        "getClaimPeriodIndexFinality(uint32,uint64)": "e54caf92",
        "getClaimPeriodsMined(address,uint256)": "49d5436f",
        "getGovernanceContract()": "ef2fa85f",
        "getLatestIndex(uint32)": "2a2434a2",
        "getPaymentFinality(uint32,bytes32,uint64,bytes32,bytes32,uint64,uint64)": "4cf59133",
        "getRewardSchedule()": "6fac338b",
        "initialiseChains()": "ef4c169e",
        "proveClaimPeriodFinality(uint32,uint64,uint64,bytes32)": "a57d0e25",
        "provePaymentFinality(uint32,uint64,bytes32,bytes32,string)": "13bb431c",
        "setGovernanceContract(address)": "1129753f",
        "unblockAddress(address)": "186d9d88",
        "updateChainTiming(uint32,uint256)": "ff695ef0"
    },
    "gasEstimates": {
        "creation": {
            "codeDepositCost": "1860800",
            "executionCost": "1962",
            "totalCost": "1862762"
        },
        "external": {
            "addChain(uint64,uint16,uint16,uint256)": "infinite",
            "blockAddress(address)": "infinite",
            "bumpRewardSchedule()": "infinite",
            "disableChain(uint32)": "infinite",
            "enableChain(uint32)": "infinite",
            "getClaimPeriodIndexFinality(uint32,uint64)": "infinite",
            "getClaimPeriodsMined(address,uint256)": "infinite",
            "getGovernanceContract()": "1103",
            "getLatestIndex(uint32)": "infinite",
            "getPaymentFinality(uint32,bytes32,uint64,bytes32,bytes32,uint64,uint64)": "infinite",
            "getRewardSchedule()": "1021",
            "initialiseChains()": "259919",
            "proveClaimPeriodFinality(uint32,uint64,uint64,bytes32)": "infinite",
            "provePaymentFinality(uint32,uint64,bytes32,bytes32,string)": "infinite",
            "setGovernanceContract(address)": "infinite",
            "unblockAddress(address)": "infinite",
            "updateChainTiming(uint32,uint256)": "infinite"
        },
        "internal": {
            "getClaimPeriodFinality(bytes32,uint32,uint64)": "infinite"
        }
    }
}