{
    "contractName": "StateConnector",
    "abi": [
        {
            "inputs": [],
            "stateMutability": "nonpayable",
            "type": "constructor"
        },
        {
            "inputs": [
                {
                    "internalType": "uint64",
                    "name": "genesisLedger",
                    "type": "uint64"
                },
                {
                    "internalType": "uint16",
                    "name": "claimPeriodLength",
                    "type": "uint16"
                },
                {
                    "internalType": "uint16",
                    "name": "numConfirmations",
                    "type": "uint16"
                },
                {
                    "internalType": "uint256",
                    "name": "timeDiffExpected",
                    "type": "uint256"
                }
            ],
            "name": "addChain",
            "outputs": [],
            "stateMutability": "nonpayable",
            "type": "function"
        },
        {
            "inputs": [
                {
                    "internalType": "address",
                    "name": "blockedAddress",
                    "type": "address"
                }
            ],
            "name": "blockAddress",
            "outputs": [],
            "stateMutability": "nonpayable",
            "type": "function"
        },
        {
            "inputs": [],
            "name": "bumpRewardSchedule",
            "outputs": [],
            "stateMutability": "nonpayable",
            "type": "function"
        },
        {
            "inputs": [
                {
                    "internalType": "uint32",
                    "name": "chainId",
                    "type": "uint32"
                }
            ],
            "name": "disableChain",
            "outputs": [],
            "stateMutability": "nonpayable",
            "type": "function"
        },
        {
            "inputs": [
                {
                    "internalType": "uint32",
                    "name": "chainId",
                    "type": "uint32"
                },
                {
                    "internalType": "bytes32",
                    "name": "paymentHash",
                    "type": "bytes32"
                },
                {
                    "internalType": "uint64",
                    "name": "ledger",
                    "type": "uint64"
                },
                {
                    "internalType": "string",
                    "name": "txId",
                    "type": "string"
                }
            ],
            "name": "disprovePaymentFinality",
            "outputs": [
                {
                    "internalType": "uint32",
                    "name": "_chainId",
                    "type": "uint32"
                },
                {
                    "internalType": "uint64",
                    "name": "_ledger",
                    "type": "uint64"
                },
                {
                    "internalType": "uint64",
                    "name": "finalisedLedgerIndex",
                    "type": "uint64"
                },
                {
                    "internalType": "bytes32",
                    "name": "_paymentHash",
                    "type": "bytes32"
                },
                {
                    "internalType": "string",
                    "name": "_txId",
                    "type": "string"
                }
            ],
            "stateMutability": "nonpayable",
            "type": "function"
        },
        {
            "inputs": [
                {
                    "internalType": "uint32",
                    "name": "chainId",
                    "type": "uint32"
                }
            ],
            "name": "enableChain",
            "outputs": [],
            "stateMutability": "nonpayable",
            "type": "function"
        },
        {
            "inputs": [
                {
                    "internalType": "uint32",
                    "name": "chainId",
                    "type": "uint32"
                },
                {
                    "internalType": "uint64",
                    "name": "claimPeriodIndex",
                    "type": "uint64"
                }
            ],
            "name": "getClaimPeriodIndexFinality",
            "outputs": [
                {
                    "internalType": "bool",
                    "name": "finality",
                    "type": "bool"
                }
            ],
            "stateMutability": "view",
            "type": "function"
        },
        {
            "inputs": [
                {
                    "internalType": "address",
                    "name": "miner",
                    "type": "address"
                },
                {
                    "internalType": "uint256",
                    "name": "rewardSchedule",
                    "type": "uint256"
                }
            ],
            "name": "getClaimPeriodsMined",
            "outputs": [
                {
                    "internalType": "uint64",
                    "name": "numMined",
                    "type": "uint64"
                }
            ],
            "stateMutability": "view",
            "type": "function"
        },
        {
            "inputs": [],
            "name": "getGovernanceContract",
            "outputs": [
                {
                    "internalType": "address",
                    "name": "_governanceContract",
                    "type": "address"
                }
            ],
            "stateMutability": "view",
            "type": "function"
        },
        {
            "inputs": [
                {
                    "internalType": "uint32",
                    "name": "chainId",
                    "type": "uint32"
                }
            ],
            "name": "getLatestIndex",
            "outputs": [
                {
                    "internalType": "uint64",
                    "name": "genesisLedger",
                    "type": "uint64"
                },
                {
                    "internalType": "uint64",
                    "name": "finalisedClaimPeriodIndex",
                    "type": "uint64"
                },
                {
                    "internalType": "uint16",
                    "name": "claimPeriodLength",
                    "type": "uint16"
                },
                {
                    "internalType": "uint64",
                    "name": "finalisedLedgerIndex",
                    "type": "uint64"
                },
                {
                    "internalType": "uint256",
                    "name": "finalisedTimestamp",
                    "type": "uint256"
                },
                {
                    "internalType": "uint256",
                    "name": "timeDiffAvg",
                    "type": "uint256"
                }
            ],
            "stateMutability": "view",
            "type": "function"
        },
        {
            "inputs": [
                {
                    "internalType": "uint32",
                    "name": "chainId",
                    "type": "uint32"
                },
                {
                    "internalType": "bytes32",
                    "name": "txId",
                    "type": "bytes32"
                },
                {
                    "internalType": "bytes32",
                    "name": "sourceHash",
                    "type": "bytes32"
                },
                {
                    "internalType": "bytes32",
                    "name": "destinationHash",
                    "type": "bytes32"
                },
                {
                    "internalType": "uint64",
                    "name": "destinationTag",
                    "type": "uint64"
                },
                {
                    "internalType": "uint64",
                    "name": "amount",
                    "type": "uint64"
                }
            ],
            "name": "getPaymentFinality",
            "outputs": [
                {
                    "internalType": "uint64",
                    "name": "ledger",
                    "type": "uint64"
                },
                {
                    "internalType": "bool",
                    "name": "finality",
                    "type": "bool"
                }
            ],
            "stateMutability": "view",
            "type": "function"
        },
        {
            "inputs": [],
            "name": "getRewardSchedule",
            "outputs": [
                {
                    "internalType": "uint256",
                    "name": "rewardSchedule",
                    "type": "uint256"
                }
            ],
            "stateMutability": "view",
            "type": "function"
        },
        {
            "inputs": [],
            "name": "initialiseChains",
            "outputs": [
                {
                    "internalType": "bool",
                    "name": "success",
                    "type": "bool"
                }
            ],
            "stateMutability": "nonpayable",
            "type": "function"
        },
        {
            "inputs": [
                {
                    "internalType": "uint32",
                    "name": "chainId",
                    "type": "uint32"
                },
                {
                    "internalType": "uint64",
                    "name": "ledger",
                    "type": "uint64"
                },
                {
                    "internalType": "uint64",
                    "name": "claimPeriodIndex",
                    "type": "uint64"
                },
                {
                    "internalType": "bytes32",
                    "name": "claimPeriodHash",
                    "type": "bytes32"
                }
            ],
            "name": "proveClaimPeriodFinality",
            "outputs": [
                {
                    "internalType": "uint32",
                    "name": "_chainId",
                    "type": "uint32"
                },
                {
                    "internalType": "uint64",
                    "name": "_ledger",
                    "type": "uint64"
                },
                {
                    "internalType": "uint16",
                    "name": "_numConfirmations",
                    "type": "uint16"
                },
                {
                    "internalType": "bytes32",
                    "name": "_claimPeriodHash",
                    "type": "bytes32"
                }
            ],
            "stateMutability": "nonpayable",
            "type": "function"
        },
        {
            "inputs": [
                {
                    "internalType": "uint32",
                    "name": "chainId",
                    "type": "uint32"
                },
                {
                    "internalType": "bytes32",
                    "name": "paymentHash",
                    "type": "bytes32"
                },
                {
                    "internalType": "uint64",
                    "name": "ledger",
                    "type": "uint64"
                },
                {
                    "internalType": "string",
                    "name": "txId",
                    "type": "string"
                }
            ],
            "name": "provePaymentFinality",
            "outputs": [
                {
                    "internalType": "uint32",
                    "name": "_chainId",
                    "type": "uint32"
                },
                {
                    "internalType": "uint64",
                    "name": "_ledger",
                    "type": "uint64"
                },
                {
                    "internalType": "uint64",
                    "name": "finalisedLedgerIndex",
                    "type": "uint64"
                },
                {
                    "internalType": "bytes32",
                    "name": "_paymentHash",
                    "type": "bytes32"
                },
                {
                    "internalType": "string",
                    "name": "_txId",
                    "type": "string"
                }
            ],
            "stateMutability": "nonpayable",
            "type": "function"
        },
        {
            "inputs": [
                {
                    "internalType": "address",
                    "name": "_governanceContract",
                    "type": "address"
                }
            ],
            "name": "setGovernanceContract",
            "outputs": [],
            "stateMutability": "nonpayable",
            "type": "function"
        },
        {
            "inputs": [
                {
                    "internalType": "address",
                    "name": "blockedAddress",
                    "type": "address"
                }
            ],
            "name": "unblockAddress",
            "outputs": [],
            "stateMutability": "nonpayable",
            "type": "function"
        },
        {
            "inputs": [
                {
                    "internalType": "uint32",
                    "name": "chainId",
                    "type": "uint32"
                },
                {
                    "internalType": "uint256",
                    "name": "timeDiffExpected",
                    "type": "uint256"
                }
            ],
            "name": "updateChainTiming",
            "outputs": [],
            "stateMutability": "nonpayable",
            "type": "function"
        }
    ],
    "bytecode": "608060405234801561001057600080fd5b506127eb806100206000396000f3fe608060405234801561001057600080fd5b50600436106101165760003560e01c80637f582432116100a2578063c1b0e57411610071578063c1b0e574146105fc578063e54caf921461061f578063ef2fa85f14610665578063ef4c169e14610689578063ff695ef01461069157610116565b80637f58243214610471578063a060b64714610539578063a57d0e251461055c578063ad2bb1b3146105d657610116565b8063388492dd116100e9578063388492dd1461022457806345ebe72d1461039857806349d5436f146103a0578063514d4693146103e85780636fac338b1461045757610116565b80631129753f1461011b578063186d9d88146101435780631d4ded8e146101695780632a2434a2146101a9575b600080fd5b6101416004803603602081101561013157600080fd5b50356001600160a01b03166106ba565b005b6101416004803603602081101561015957600080fd5b50356001600160a01b0316610784565b6101416004803603608081101561017f57600080fd5b506001600160401b038135169061ffff602082013581169160408101359091169060600135610849565b6101cc600480360360208110156101bf57600080fd5b503563ffffffff16610b36565b60405180876001600160401b03168152602001866001600160401b031681526020018561ffff168152602001846001600160401b03168152602001838152602001828152602001965050505050505060405180910390f35b6102ec6004803603608081101561023a57600080fd5b63ffffffff823516916020810135916001600160401b03604083013516919081019060808101606082013564010000000081111561027757600080fd5b82018360208201111561028957600080fd5b803590602001918460018302840111640100000000831117156102ab57600080fd5b91908080601f016020809104026020016040519081016040528093929190818152602001838380828437600092019190915250929550610bfb945050505050565b604051808663ffffffff168152602001856001600160401b03168152602001846001600160401b0316815260200183815260200180602001828103825283818151815260200191508051906020019080838360005b83811015610359578181015183820152602001610341565b50505050905090810190601f1680156103865780820380516001836020036101000a031916815260200191505b50965050505050505060405180910390f35b610141610f4b565b6103cc600480360360408110156103b657600080fd5b506001600160a01b03813516906020013561106d565b604080516001600160401b039092168252519081900360200190f35b610434600480360360c08110156103fe57600080fd5b5063ffffffff813516906020810135906040810135906060810135906001600160401b03608082013581169160a00135166110e2565b604080516001600160401b03909316835290151560208301528051918290030190f35b61045f6112ef565b60408051918252519081900360200190f35b6102ec6004803603608081101561048757600080fd5b63ffffffff823516916020810135916001600160401b0360408301351691908101906080810160608201356401000000008111156104c457600080fd5b8201836020820111156104d657600080fd5b803590602001918460018302840111640100000000831117156104f857600080fd5b91908080601f0160208091040260200160405190810160405280939291908181526020018383808284376000920191909152509295506112f5945050505050565b6101416004803603602081101561054f57600080fd5b503563ffffffff166116bd565b61059e6004803603608081101561057257600080fd5b5063ffffffff813516906001600160401b03602082013581169160408101359091169060600135611783565b6040805163ffffffff90951685526001600160401b03909316602085015261ffff909116838301526060830152519081900360800190f35b610141600480360360208110156105ec57600080fd5b50356001600160a01b0316611f65565b6101416004803603602081101561061257600080fd5b503563ffffffff16612023565b6106516004803603604081101561063557600080fd5b50803563ffffffff1690602001356001600160401b031661215a565b604080519115158252519081900360200190f35b61066d612214565b604080516001600160a01b039092168252519081900360200190f35b610651612223565b610141600480360360408110156106a757600080fd5b5063ffffffff81351690602001356124a2565b6000546001600160a01b03163314610707576040805162461bcd60e51b815260206004820181905260248201526000805160206126a2833981519152604482015290519081900360640190fd5b6001600160a01b038116610762576040805162461bcd60e51b815260206004820152601a60248201527f5f676f7665726e616e6365436f6e7472616374203d3d20307830000000000000604482015290519081900360640190fd5b600080546001600160a01b0319166001600160a01b0392909216919091179055565b6000546001600160a01b031633146107d1576040805162461bcd60e51b815260206004820181905260248201526000805160206126a2833981519152604482015290519081900360640190fd5b6001600160a01b03811660009081526007602052604090205460ff166108285760405162461bcd60e51b815260040180806020018281038252602a815260200180612737602a913960400191505060405180910390fd5b6001600160a01b03166000908152600760205260409020805460ff19169055565b6000546001600160a01b03163314610896576040805162461bcd60e51b815260206004820181905260248201526000805160206126a2833981519152604482015290519081900360640190fd5b60008054600160a81b900463ffffffff1681526003602052604090205460ff1615610901576040805162461bcd60e51b8152602060048201526016602482015275636861696e496420616c72656164792065786973747360501b604482015290519081900360640190fd5b60008361ffff1611610953576040805162461bcd60e51b81526020600482015260166024820152750636c61696d506572696f644c656e677468203d3d20360541b604482015290519081900360640190fd5b604051806101200160405280600115158152602001856001600160401b031681526020018461ffff1681526020018361ffff16815260200160006001600160401b03168152602001856001600160401b031681526020014281526020018281526020016000815250600360008060159054906101000a900463ffffffff1663ffffffff1663ffffffff16815260200190815260200160002060008201518160000160006101000a81548160ff02191690831515021790555060208201518160000160016101000a8154816001600160401b0302191690836001600160401b0316021790555060408201518160000160096101000a81548161ffff021916908361ffff160217905550606082015181600001600b6101000a81548161ffff021916908361ffff160217905550608082015181600001600d6101000a8154816001600160401b0302191690836001600160401b0316021790555060a08201518160000160156101000a8154816001600160401b0302191690836001600160401b0316021790555060c0820151816001015560e082015181600201556101008201518160030155905050600060159054906101000a900463ffffffff16600101600060156101000a81548163ffffffff021916908363ffffffff16021790555050505050565b63ffffffff811660009081526003602052604081205481908190819081908190879060ff16610b9a576040805162461bcd60e51b81526020600482015260166024820152600080516020612796833981519152604482015290519081900360640190fd5b5050505063ffffffff9390931660009081526003602081905260409091208054600182015491909201546001600160401b036101008404811697600160681b85048216975061ffff600160481b8604169650600160a81b9094041693509091565b63ffffffff8416600090815260036020526040812054819081908190606090899060ff16610c5e576040805162461bcd60e51b81526020600482015260166024820152600080516020612796833981519152604482015290519081900360640190fd5b6000876040516020018082805190602001908083835b60208310610c935780518252601f199092019160209182019101610c74565b6001836020036101000a038019825116818451168082178552505050505050905001915050604051602081830303815290604052805190602001209050600560008c63ffffffff1663ffffffff168152602001908152602001600020600082815260200190815260200160002060020160089054906101000a900460ff1615610d59576040805162461bcd60e51b81526020600482015260136024820152723a3c24b21030b63932b0b23c90383937bb32b760691b604482015290519081900360640190fd5b63ffffffff8b166000908152600360205260409020546001600160401b03600160a81b9091048116908a1610610dc05760405162461bcd60e51b815260040180806020018281038252602e81526020018061260e602e913960400191505060405180910390fd5b41331480610dd1575041600160981b145b610e22576040805162461bcd60e51b815260206004820152601c60248201527f696e76616c696420626c6f636b2e636f696e626173652076616c756500000000604482015290519081900360640190fd5b4133148015610e35575041600160981b14155b15610f155760405180608001604052806001151581526020018b81526020018a6001600160401b0316815260200160011515815250600560008d63ffffffff1663ffffffff168152602001908152602001600020600083815260200190815260200160002060008201518160000160006101000a81548160ff0219169083151502179055506020820151816001015560408201518160020160006101000a8154816001600160401b0302191690836001600160401b0316021790555060608201518160020160086101000a81548160ff0219169083151502179055509050505b5050505063ffffffff871660009081526003602052604090205496979496600160a81b90046001600160401b0316959492505050565b6000546001600160a01b03163314610f98576040805162461bcd60e51b815260206004820181905260248201526000805160206126a2833981519152604482015290519081900360640190fd5b6002544211610fd85760405162461bcd60e51b815260040180806020018281038252602c8152602001806126c2602c913960400191505060405180910390fd5b62093a8060025442031161101d5760405162461bcd60e51b81526004018080602001828103825260428152602001806126606042913960600191505060405180910390fd5b6000196001541061105f5760405162461bcd60e51b81526004018080602001828103825260218152602001806125ed6021913960400191505060405180910390fd5b600180548101905542600255565b60006001548211156110b05760405162461bcd60e51b81526004018080602001828103825260268152602001806125c76026913960400191505060405180910390fd5b506001600160a01b0391909116600090815260066020908152604080832093835292905220546001600160401b031690565b63ffffffff86166000908152600360205260408120548190889060ff1661113e576040805162461bcd60e51b81526020600482015260166024820152600080516020612796833981519152604482015290519081900360640190fd5b63ffffffff891660009081526005602090815260408083208b845290915290205460ff166111a9576040805162461bcd60e51b81526020600482015260136024820152721d1e125908191bd95cc81b9bdd08195e1a5cdd606a1b604482015290519081900360640190fd5b604080516001600160401b0380881660208084019190915283518084038201815283850185528051908201209188166060808501919091528451808503909101815260808401855280519082012060a084018d905260c084018c905260e084018b90526101008401929092526101208084019290925283518084039092018252610140909201835280519082012063ffffffff8c166000908152600583528381208c82529092529190206001015481146112a0576040805162461bcd60e51b81526020600482015260136024820152720d2dcecc2d8d2c840e0c2f2dacadce890c2e6d606b1b604482015290519081900360640190fd5b5050505063ffffffff95909516600090815260056020908152604080832096835295905293909320600201546001600160401b038116956801000000000000000090910460ff16945092505050565b60015490565b63ffffffff8416600090815260036020526040812054819081908190606090899060ff16611358576040805162461bcd60e51b81526020600482015260166024820152600080516020612796833981519152604482015290519081900360640190fd5b6000876040516020018082805190602001908083835b6020831061138d5780518252601f19909201916020918201910161136e565b6001836020036101000a038019825116818451168082178552505050505050905001915050604051602081830303815290604052805190602001209050600560008c63ffffffff1663ffffffff168152602001908152602001600020600082815260200190815260200160002060020160089054906101000a900460ff1615611453576040805162461bcd60e51b81526020600482015260136024820152723a3c24b21030b63932b0b23c90383937bb32b760691b604482015290519081900360640190fd5b63ffffffff8b1660009081526005602090815260408083208484529091529020600201546001600160401b03808b169116106114c05760405162461bcd60e51b81526004018080602001828103825260348152602001806125676034913960400191505060405180910390fd5b63ffffffff8b166000908152600360205260409020546001600160401b03600160a81b9091048116908a16106115275760405162461bcd60e51b815260040180806020018281038252602e81526020018061260e602e913960400191505060405180910390fd5b41331480611538575041600160981b145b611589576040805162461bcd60e51b815260206004820152601c60248201527f696e76616c696420626c6f636b2e636f696e626173652076616c756500000000604482015290519081900360640190fd5b413314801561159c575041600160981b14155b15610f155760405180608001604052806001151581526020018b81526020018a6001600160401b0316815260200160001515815250600560008d63ffffffff1663ffffffff168152602001908152602001600020600083815260200190815260200160002060008201518160000160006101000a81548160ff0219169083151502179055506020820151816001015560408201518160020160006101000a8154816001600160401b0302191690836001600160401b0316021790555060608201518160020160086101000a81548160ff0219169083151502179055509050505063ffffffff8a166000908152600360205260409020548a96508895506001600160401b03600160a81b90910416935088925086915050945094509450945094565b6000546001600160a01b0316331461170a576040805162461bcd60e51b815260206004820181905260248201526000805160206126a2833981519152604482015290519081900360640190fd5b63ffffffff8116600090815260036020526040902054819060ff16611764576040805162461bcd60e51b81526020600482015260166024820152600080516020612796833981519152604482015290519081900360640190fd5b5063ffffffff166000908152600360205260409020805460ff19169055565b63ffffffff8416600090815260036020526040812054819081908190889060ff166117e3576040805162461bcd60e51b81526020600482015260166024820152600080516020612796833981519152604482015290519081900360640190fd5b3360009081526007602052604090205460ff16156118325760405162461bcd60e51b81526004018080602001828103825260228152602001806127156022913960400191505060405180910390fd5b63ffffffff8916600090815260036020526040902054600160481b810461ffff16600160a81b9091046001600160401b03908116919091018116908916146118b2576040805162461bcd60e51b815260206004820152600e60248201526d34b73b30b634b2103632b233b2b960911b604482015290519081900360640190fd5b63ffffffff89166000908152600360205260409020546001600160401b03888116600160681b909204161461192e576040805162461bcd60e51b815260206004820152601860248201527f696e76616c696420636c61696d506572696f64496e6465780000000000000000604482015290519081900360640190fd5b63ffffffff891660009081526003602052604090206001015442116119845760405162461bcd60e51b81526004018080602001828103825260358152602001806127616035913960400191505060405180910390fd5b63ffffffff8916600090815260036020819052604090912060028082015491909201549091021015611a215763ffffffff8916600090815260036020819052604090912080820154600190910154600290910242919091039091021015611a1c5760405162461bcd60e51b815260040180806020018281038252602c81526020018061259b602c913960400191505060405180910390fd5b611a85565b63ffffffff89166000908152600360208190526040909120908101546001909101544203600f011015611a855760405162461bcd60e51b815260040180806020018281038252602c81526020018061259b602c913960400191505060405180910390fd5b604080516001600160e01b031960e08c901b166020808301919091526001600160c01b031960c08b901b1660248301528251600c818403018152602c9092018352815191810191909120600081815260049092529190205460ff1615611b32576040805162461bcd60e51b815260206004820152601e60248201527f6c6f636174696f6e4861736820616c72656164792066696e616c697365640000604482015290519081900360640190fd5b6001600160401b03881615611bdc57604080516001600160e01b031960e08d901b166020808301919091526001600160c01b03196000198c0160c01b1660248301528251600c818403018152602c9092018352815191810191909120600081815260049092529190205460ff16611bda5760405162461bcd60e51b81526004018080602001828103825260278152602001806126ee6027913960400191505060405180910390fd5b505b41331480611bed575041600160981b145b611c3e576040805162461bcd60e51b815260206004820152601c60248201527f696e76616c696420626c6f636b2e636f696e626173652076616c756500000000604482015290519081900360640190fd5b4133148015611c51575041600160981b14155b15611f2e5760066000336001600160a01b03166001600160a01b031681526020019081526020016000206000600154815260200190815260200160002060009054906101000a90046001600160401b031660010160066000336001600160a01b03166001600160a01b031681526020019081526020016000206000600154815260200190815260200160002060006101000a8154816001600160401b0302191690836001600160401b0316021790555060405180608001604052806001151581526020018881526020018a6001600160401b03168152602001600115158152506004600083815260200190815260200160002060008201518160000160006101000a81548160ff0219169083151502179055506020820151816001015560408201518160020160006101000a8154816001600160401b0302191690836001600160401b0316021790555060608201518160020160086101000a81548160ff02191690831515021790555090505087600101600360008c63ffffffff1663ffffffff168152602001908152602001600020600001600d6101000a8154816001600160401b0302191690836001600160401b0316021790555088600360008c63ffffffff1663ffffffff16815260200190815260200160002060000160156101000a8154816001600160401b0302191690836001600160401b0316021790555060006002600360008d63ffffffff1663ffffffff168152602001908152602001600020600101544203600360008e63ffffffff1663ffffffff168152602001908152602001600020600301540181611ea357fe5b63ffffffff8d16600090815260036020526040902060029081015492909104925002811115611ef35763ffffffff8b16600090815260036020819052604090912060028082015402910155611f10565b63ffffffff8b166000908152600360208190526040909120018190555b5063ffffffff8a166000908152600360205260409020426001909101555b5050505063ffffffff861660009081526003602052604090205495966000199590950195600160581b900461ffff16949293505050565b6000546001600160a01b03163314611fb2576040805162461bcd60e51b815260206004820181905260248201526000805160206126a2833981519152604482015290519081900360640190fd5b6000546001600160a01b0382811691161415611fff5760405162461bcd60e51b815260040180806020018281038252602481526020018061263c6024913960400191505060405180910390fd5b6001600160a01b03166000908152600760205260409020805460ff19166001179055565b6000546001600160a01b03163314612070576040805162461bcd60e51b815260206004820181905260248201526000805160206126a2833981519152604482015290519081900360640190fd5b60005463ffffffff600160a81b9091048116908216106120ce576040805162461bcd60e51b8152602060048201526014602482015273636861696e4964203e3d206e756d436861696e7360601b604482015290519081900360640190fd5b63ffffffff811660009081526003602052604090205460ff1615612139576040805162461bcd60e51b815260206004820152601e60248201527f636861696e735b636861696e49645d2e657869737473203d3d20747275650000604482015290519081900360640190fd5b63ffffffff166000908152600360205260409020805460ff19166001179055565b63ffffffff8216600090815260036020526040812054839060ff166121b4576040805162461bcd60e51b81526020600482015260166024820152600080516020612796833981519152604482015290519081900360640190fd5b50506040805160e09390931b6001600160e01b03191660208085019190915260c09290921b6001600160c01b03191660248401528051808403600c018152602c909301815282519282019290922060009081526004909152205460ff1690565b6000546001600160a01b031690565b60008054600160a01b900460ff161561227a576040805162461bcd60e51b8152602060048201526014602482015273696e697469616c6973656420213d2066616c736560601b604482015290519081900360640190fd5b73fffec6c83c8bf5c3f4ae0ccf8c45ce20e4560bd76000806101000a8154816001600160a01b0302191690836001600160a01b031602179055506040518061012001604052806001151581526020016303bf79006001600160401b03168152602001601e61ffff168152602001600061ffff16815260200160006001600160401b031681526020016303bf79006001600160401b03168152602001428152602001607881526020016000815250600360008063ffffffff16815260200190815260200160002060008201518160000160006101000a81548160ff02191690831515021790555060208201518160000160016101000a8154816001600160401b0302191690836001600160401b0316021790555060408201518160000160096101000a81548161ffff021916908361ffff160217905550606082015181600001600b6101000a81548161ffff021916908361ffff160217905550608082015181600001600d6101000a8154816001600160401b0302191690836001600160401b0316021790555060a08201518160000160156101000a8154816001600160401b0302191690836001600160401b0316021790555060c0820151816001015560e0820151816002015561010082015181600301559050506001600060156101000a81548163ffffffff021916908363ffffffff1602179055506000600181905550426002819055506001600060146101000a81548160ff0219169083151502179055506001905090565b6000546001600160a01b031633146124ef576040805162461bcd60e51b815260206004820181905260248201526000805160206126a2833981519152604482015290519081900360640190fd5b63ffffffff8216600090815260036020526040902054829060ff16612549576040805162461bcd60e51b81526020600482015260166024820152600080516020612796833981519152604482015290519081900360640190fd5b5063ffffffff90911660009081526003602052604090206002015556fe66696e616c697365645061796d656e74735b636861696e49645d5b74784964486173685d2e696e646578203e3d206c65646765726e6f7420656e6f7567682074696d6520656c61707365642073696e6365207072696f722066696e616c6974797265776172645363686564756c65203e2063757272656e745265776172645363686564756c6563757272656e745265776172645363686564756c65203e3d20322a2a3235362d316c6564676572203e3d20636861696e735b636861696e49645d2e66696e616c697365644c6564676572496e646578626c6f636b656441646472657373203d3d20676f7665726e616e6365436f6e7472616374626c6f636b2e74696d657374616d70202d207265776172645363686564756c654c61737455706461746564203c3d203630343830302c20692e652e2031207765656b6d73672e73656e64657220213d20676f7665726e616e6365436f6e7472616374626c6f636b2e74696d657374616d70203c3d207265776172645363686564756c654c6173745570646174656470726576696f757320636c61696d20706572696f64206e6f74207965742066696e616c6973656474686973206163636f756e7420697320676f7665726e616e636520626c6f636b656421676f7665726e616e6365426c6f636b65644163636f756e74735b626c6f636b6564416464726573735d626c6f636b2e74696d657374616d70203c3d20636861696e735b636861696e49645d2e66696e616c6973656454696d657374616d70636861696e496420646f6573206e6f7420657869737400000000000000000000a2646970667358221220500d2628ea57c817c22ad83011d9e21de1ae0190e8d8d245635180fdea64ace864736f6c63430007060033",
    "sourcePath": "/home/my-usern/flare/contracts/StateConnector.sol",
    "compiler": {
        "name": "solc",
        "version": "0.7.6+commit.7338295f"
    },
    "functionHashes": {
        "addChain(uint64,uint16,uint16,uint256)": "1d4ded8e",
        "blockAddress(address)": "ad2bb1b3",
        "bumpRewardSchedule()": "45ebe72d",
        "disableChain(uint32)": "a060b647",
        "disprovePaymentFinality(uint32,bytes32,uint64,string)": "7f582432",
        "enableChain(uint32)": "c1b0e574",
        "getClaimPeriodIndexFinality(uint32,uint64)": "e54caf92",
        "getClaimPeriodsMined(address,uint256)": "49d5436f",
        "getGovernanceContract()": "ef2fa85f",
        "getLatestIndex(uint32)": "2a2434a2",
        "getPaymentFinality(uint32,bytes32,bytes32,bytes32,uint64,uint64)": "514d4693",
        "getRewardSchedule()": "6fac338b",
        "initialiseChains()": "ef4c169e",
        "proveClaimPeriodFinality(uint32,uint64,uint64,bytes32)": "a57d0e25",
        "provePaymentFinality(uint32,bytes32,uint64,string)": "388492dd",
        "setGovernanceContract(address)": "1129753f",
        "unblockAddress(address)": "186d9d88",
        "updateChainTiming(uint32,uint256)": "ff695ef0"
    },
    "gasEstimates": {
        "creation": {
            "codeDepositCost": "2043800",
            "executionCost": "2171",
            "totalCost": "2045971"
        },
        "external": {
            "addChain(uint64,uint16,uint16,uint256)": "infinite",
            "blockAddress(address)": "infinite",
            "bumpRewardSchedule()": "infinite",
            "disableChain(uint32)": "infinite",
            "disprovePaymentFinality(uint32,bytes32,uint64,string)": "infinite",
            "enableChain(uint32)": "infinite",
            "getClaimPeriodIndexFinality(uint32,uint64)": "infinite",
            "getClaimPeriodsMined(address,uint256)": "infinite",
            "getGovernanceContract()": "1103",
            "getLatestIndex(uint32)": "infinite",
            "getPaymentFinality(uint32,bytes32,bytes32,bytes32,uint64,uint64)": "infinite",
            "getRewardSchedule()": "1109",
            "initialiseChains()": "259919",
            "proveClaimPeriodFinality(uint32,uint64,uint64,bytes32)": "infinite",
            "provePaymentFinality(uint32,bytes32,uint64,string)": "infinite",
            "setGovernanceContract(address)": "infinite",
            "unblockAddress(address)": "infinite",
            "updateChainTiming(uint32,uint256)": "infinite"
        },
        "internal": {
            "getClaimPeriodFinality(bytes32,uint32,uint64)": "infinite"
        }
    }
}