{
    "contractName": "stateConnector",
    "abi": [
        {
            "inputs": [],
            "stateMutability": "nonpayable",
            "type": "constructor"
        },
        {
            "inputs": [
                {
                    "internalType": "uint32",
                    "name": "chainId",
                    "type": "uint32"
                },
                {
                    "internalType": "uint64",
                    "name": "genesisLedger",
                    "type": "uint64"
                },
                {
                    "internalType": "uint16",
                    "name": "claimPeriodLength",
                    "type": "uint16"
                },
                {
                    "internalType": "uint16",
                    "name": "numConfirmations",
                    "type": "uint16"
                },
                {
                    "internalType": "uint256",
                    "name": "timeDiffExpected",
                    "type": "uint256"
                }
            ],
            "name": "addChain",
            "outputs": [],
            "stateMutability": "nonpayable",
            "type": "function"
        },
        {
            "inputs": [
                {
                    "internalType": "uint32",
                    "name": "chainId",
                    "type": "uint32"
                },
                {
                    "internalType": "uint64",
                    "name": "claimPeriodIndex",
                    "type": "uint64"
                }
            ],
            "name": "getClaimPeriodIndexFinality",
            "outputs": [
                {
                    "internalType": "bool",
                    "name": "finality",
                    "type": "bool"
                }
            ],
            "stateMutability": "view",
            "type": "function"
        },
        {
            "inputs": [
                {
                    "internalType": "address",
                    "name": "miner",
                    "type": "address"
                }
            ],
            "name": "getClaimPeriodsMined",
            "outputs": [
                {
                    "internalType": "uint64",
                    "name": "numMined",
                    "type": "uint64"
                }
            ],
            "stateMutability": "view",
            "type": "function"
        },
        {
            "inputs": [],
            "name": "getGovernanceContract",
            "outputs": [
                {
                    "internalType": "address",
                    "name": "_governanceContract",
                    "type": "address"
                }
            ],
            "stateMutability": "view",
            "type": "function"
        },
        {
            "inputs": [
                {
                    "internalType": "uint32",
                    "name": "chainId",
                    "type": "uint32"
                }
            ],
            "name": "getLatestIndex",
            "outputs": [
                {
                    "internalType": "uint64",
                    "name": "genesisLedger",
                    "type": "uint64"
                },
                {
                    "internalType": "uint64",
                    "name": "finalisedClaimPeriodIndex",
                    "type": "uint64"
                },
                {
                    "internalType": "uint16",
                    "name": "claimPeriodLength",
                    "type": "uint16"
                },
                {
                    "internalType": "uint64",
                    "name": "finalisedLedgerIndex",
                    "type": "uint64"
                },
                {
                    "internalType": "uint256",
                    "name": "finalisedTimestamp",
                    "type": "uint256"
                },
                {
                    "internalType": "uint256",
                    "name": "timeDiffAvg",
                    "type": "uint256"
                }
            ],
            "stateMutability": "view",
            "type": "function"
        },
        {
            "inputs": [
                {
                    "internalType": "bytes32",
                    "name": "txId",
                    "type": "bytes32"
                },
                {
                    "internalType": "uint64",
                    "name": "ledger",
                    "type": "uint64"
                },
                {
                    "internalType": "bytes32",
                    "name": "sourceHash",
                    "type": "bytes32"
                },
                {
                    "internalType": "bytes32",
                    "name": "destinationHash",
                    "type": "bytes32"
                },
                {
                    "internalType": "uint64",
                    "name": "destinationTag",
                    "type": "uint64"
                },
                {
                    "internalType": "uint64",
                    "name": "amount",
                    "type": "uint64"
                }
            ],
            "name": "getPaymentFinality",
            "outputs": [
                {
                    "internalType": "bool",
                    "name": "finality",
                    "type": "bool"
                },
                {
                    "internalType": "uint256",
                    "name": "timestamp",
                    "type": "uint256"
                }
            ],
            "stateMutability": "view",
            "type": "function"
        },
        {
            "inputs": [],
            "name": "initialiseChains",
            "outputs": [
                {
                    "internalType": "bool",
                    "name": "success",
                    "type": "bool"
                }
            ],
            "stateMutability": "nonpayable",
            "type": "function"
        },
        {
            "inputs": [
                {
                    "internalType": "uint32",
                    "name": "chainId",
                    "type": "uint32"
                },
                {
                    "internalType": "uint64",
                    "name": "ledger",
                    "type": "uint64"
                },
                {
                    "internalType": "uint64",
                    "name": "claimPeriodIndex",
                    "type": "uint64"
                },
                {
                    "internalType": "bytes32",
                    "name": "claimPeriodHash",
                    "type": "bytes32"
                }
            ],
            "name": "proveClaimPeriodFinality",
            "outputs": [
                {
                    "internalType": "uint32",
                    "name": "_chainId",
                    "type": "uint32"
                },
                {
                    "internalType": "uint64",
                    "name": "_ledger",
                    "type": "uint64"
                },
                {
                    "internalType": "uint16",
                    "name": "_numConfirmations",
                    "type": "uint16"
                },
                {
                    "internalType": "bytes32",
                    "name": "_claimPeriodHash",
                    "type": "bytes32"
                }
            ],
            "stateMutability": "nonpayable",
            "type": "function"
        },
        {
            "inputs": [
                {
                    "internalType": "uint32",
                    "name": "chainId",
                    "type": "uint32"
                },
                {
                    "internalType": "uint64",
                    "name": "claimPeriodIndex",
                    "type": "uint64"
                },
                {
                    "internalType": "bytes32",
                    "name": "claimPeriodHash",
                    "type": "bytes32"
                },
                {
                    "internalType": "bytes32",
                    "name": "paymentHash",
                    "type": "bytes32"
                },
                {
                    "internalType": "string",
                    "name": "txId",
                    "type": "string"
                }
            ],
            "name": "provePaymentFinality",
            "outputs": [
                {
                    "internalType": "uint32",
                    "name": "_chainId",
                    "type": "uint32"
                },
                {
                    "internalType": "uint64",
                    "name": "finalisedLedgerIndex",
                    "type": "uint64"
                },
                {
                    "internalType": "bytes32",
                    "name": "_paymentHash",
                    "type": "bytes32"
                },
                {
                    "internalType": "string",
                    "name": "_txId",
                    "type": "string"
                }
            ],
            "stateMutability": "nonpayable",
            "type": "function"
        },
        {
            "inputs": [
                {
                    "internalType": "address",
                    "name": "_governanceContract",
                    "type": "address"
                }
            ],
            "name": "setGovernanceContract",
            "outputs": [],
            "stateMutability": "nonpayable",
            "type": "function"
        },
        {
            "inputs": [
                {
                    "internalType": "uint32",
                    "name": "chainId",
                    "type": "uint32"
                },
                {
                    "internalType": "uint256",
                    "name": "timeDiffExpected",
                    "type": "uint256"
                }
            ],
            "name": "updateChainTiming",
            "outputs": [],
            "stateMutability": "nonpayable",
            "type": "function"
        }
    ],
    "bytecode": "608060405234801561001057600080fd5b506119b7806100206000396000f3fe608060405234801561001057600080fd5b50600436106100a95760003560e01c8063bd18dae311610071578063bd18dae314610158578063e54caf921461016b578063ef2fa85f1461018b578063ef4c169e146101a0578063efe78272146101a8578063ff695ef0146101c8576100a9565b80631129753f146100ae57806313bb431c146100c35780632a2434a2146100ef5780636879c67b14610114578063a57d0e2514610135575b600080fd5b6100c16100bc3660046111b2565b6101db565b005b6100d66100d13660046112b3565b610230565b6040516100e69493929190611878565b60405180910390f35b6101026100fd36600461123e565b6103a2565b6040516100e696959493929190611913565b6101276101223660046111e0565b610449565b6040516100e69291906114b0565b6101486101433660046113d9565b610578565b6040516100e694939291906118cf565b6100c161016636600461137e565b610b16565b61017e610179366004611281565b610d37565b6040516100e691906114a5565b610193610dbb565b6040516100e69190611491565b61017e610dca565b6101bb6101b63660046111b2565b610fdc565b6040516100e691906118ff565b6100c16101d6366004611258565b611004565b6000546001600160a01b0316331461020e5760405162461bcd60e51b8152600401610205906115b8565b60405180910390fd5b600080546001600160a01b0319166001600160a01b0392909216919091179055565b63ffffffff85166000908152600160208190526040822054829182916060918a9160ff161515146102735760405162461bcd60e51b815260040161020590611848565b600086604051602001610286919061144b565b60408051601f1981840301815291815281516020928301206000818152600390935291205490915060ff16156102ce5760405162461bcd60e51b81526004016102059061158b565b60006102db8a8d8d61108a565b9050413314806102ee575041600160981b145b61030a5760405162461bcd60e51b8152600401610205906117e4565b413314801561031d575041600160981b14155b156103695760408051606081018252600180825260208083018d815283850186815260008881526003909352949091209251835460ff1916901515178355519082015590516002909101555b5050505063ffffffff88166000908152600160205260409020549798600160a81b9098046001600160401b031697949650929450505050565b63ffffffff8116600090815260016020819052604082205482918291829182918291889160ff161515146103e85760405162461bcd60e51b815260040161020590611848565b5050505063ffffffff9390931660009081526001602081905260409091208054918101546003909101546001600160401b036101008404811697600160681b85048216975061ffff600160481b8604169650600160a81b9094041693509091565b600086815260036020526040812054819060ff16151560011461047e5760405162461bcd60e51b81526004016102059061181b565b6000888860405160200161049291906118ff565b604051602081830303815290604052805190602001208888886040516020016104bb91906118ff565b60405160208183030381529060405280519060200120886040516020016104e291906118ff565b6040516020818303038152906040528051906020012060405160200161050d96959493929190611423565b60408051601f19818403018152918152815160209283012060008c8152600390935291206001015490915081146105565760405162461bcd60e51b8152600401610205906114c0565b5050506000958652505060036020525050604090912060020154600192909150565b63ffffffff84166000908152600160208190526040822054829182918291899160ff161515146105ba5760405162461bcd60e51b815260040161020590611848565b63ffffffff8916600090815260016020526040902054600160481b810461ffff16600160a81b9091046001600160401b03908116919091018116908916146106145760405162461bcd60e51b81526004016102059061169b565b63ffffffff8916600090815260016020819052604090912054600160481b810461ffff16918901919091026101009091046001600160401b03908116919091018116908916146106765760405162461bcd60e51b81526004016102059061161d565b63ffffffff89166000908152600160208190526040909120015442116106ae5760405162461bcd60e51b8152600401610205906116c3565b63ffffffff891660009081526001602052604090206002808201546003909201540210156107295763ffffffff8916600090815260016020819052604090912060038082015491909201546002909102429190910390910210156107245760405162461bcd60e51b8152600401610205906114ed565b61076c565b63ffffffff8916600090815260016020819052604090912060038101549101544203600f01101561076c5760405162461bcd60e51b8152600401610205906114ed565b60008988604051602001610781929190611467565b60408051601f1981840301815291815281516020928301206000818152600290935291205490915060ff16156107c95760405162461bcd60e51b815260040161020590611748565b6001600160401b0388161561083e5760008a60018a036040516020016107f0929190611467565b60408051601f1981840301815291815281516020928301206000818152600290935291205490915060ff16151560011461083c5760405162461bcd60e51b815260040161020590611654565b505b4133148061084f575041600160981b145b61086b5760405162461bcd60e51b8152600401610205906117e4565b413314801561087e575041600160981b14155b15610adf5760046000336001600160a01b03166001600160a01b0316815260200190815260200160002060009054906101000a90046001600160401b031660010160046000336001600160a01b03166001600160a01b0316815260200190815260200160002060006101000a8154816001600160401b0302191690836001600160401b031602179055506040518060600160405280600115158152602001888152602001428152506002600083815260200190815260200160002060008201518160000160006101000a81548160ff021916908315150217905550602082015181600101556040820151816002015590505087600101600160008c63ffffffff1663ffffffff168152602001908152602001600020600001600d6101000a8154816001600160401b0302191690836001600160401b0316021790555088600160008c63ffffffff1663ffffffff16815260200190815260200160002060000160156101000a8154816001600160401b0302191690836001600160401b0316021790555060006002600160008d63ffffffff1663ffffffff168152602001908152602001600020600101544203600160008e63ffffffff1663ffffffff168152602001908152602001600020600301540181610a5557fe5b63ffffffff8d16600090815260016020526040902060029081015492909104925002811115610aa55763ffffffff8b16600090815260016020526040902060028082015402600390910155610ac1565b63ffffffff8b1660009081526001602052604090206003018190555b5063ffffffff8a166000908152600160208190526040909120429101555b5050505063ffffffff861660009081526001602052604090205495966000199590950195600160581b900461ffff16949293505050565b6000546001600160a01b03163314610b405760405162461bcd60e51b8152600401610205906115b8565b63ffffffff851660009081526001602052604090205460ff1615610b765760405162461bcd60e51b8152600401610205906115ed565b60008361ffff1611610b9a5760405162461bcd60e51b815260040161020590611718565b604051806101200160405280600115158152602001856001600160401b031681526020018461ffff1681526020018361ffff16815260200160006001600160401b03168152602001856001600160401b031681526020014281526020018281526020016000815250600160008763ffffffff1663ffffffff16815260200190815260200160002060008201518160000160006101000a81548160ff02191690831515021790555060208201518160000160016101000a8154816001600160401b0302191690836001600160401b0316021790555060408201518160000160096101000a81548161ffff021916908361ffff160217905550606082015181600001600b6101000a81548161ffff021916908361ffff160217905550608082015181600001600d6101000a8154816001600160401b0302191690836001600160401b0316021790555060a08201518160000160156101000a8154816001600160401b0302191690836001600160401b0316021790555060c0820151816001015560e0820151816002015561010082015181600301559050505050505050565b63ffffffff82166000908152600160208190526040822054849160ff909116151514610d755760405162461bcd60e51b815260040161020590611848565b60008484604051602001610d8a929190611467565b60408051808303601f1901815291815281516020928301206000908152600290925290205460ff1695945050505050565b6000546001600160a01b031690565b60008054600160a01b900460ff1615610df55760405162461bcd60e51b81526004016102059061177f565b6001609c1b6000806101000a8154816001600160a01b0302191690836001600160a01b031602179055506040518061012001604052806001151581526020016303a38d8a6001600160401b03168152602001601e61ffff168152602001600061ffff16815260200160006001600160401b031681526020016303a38d8a6001600160401b03168152602001428152602001607881526020016000815250600160008063ffffffff16815260200190815260200160002060008201518160000160006101000a81548160ff02191690831515021790555060208201518160000160016101000a8154816001600160401b0302191690836001600160401b0316021790555060408201518160000160096101000a81548161ffff021916908361ffff160217905550606082015181600001600b6101000a81548161ffff021916908361ffff160217905550608082015181600001600d6101000a8154816001600160401b0302191690836001600160401b0316021790555060a08201518160000160156101000a8154816001600160401b0302191690836001600160401b0316021790555060c0820151816001015560e0820151816002015561010082015181600301559050506001600060146101000a81548160ff0219169083151502179055506001905090565b6001600160a01b0381166000908152600460205260409020546001600160401b03165b919050565b6000546001600160a01b0316331461102e5760405162461bcd60e51b8152600401610205906115b8565b63ffffffff8216600090815260016020819052604090912054839160ff90911615151461106d5760405162461bcd60e51b815260040161020590611848565b5063ffffffff909116600090815260016020526040902060020155565b63ffffffff82166000908152600160208190526040822054849160ff9091161515146110c85760405162461bcd60e51b815260040161020590611848565b600084846040516020016110dd929190611467565b60408051601f1981840301815291815281516020928301206000818152600290935291205490915060ff1615156001146111295760405162461bcd60e51b815260040161020590611539565b60008181526002602052604090206001015486146111595760405162461bcd60e51b8152600401610205906117ad565b6000908152600260208190526040909120015495945050505050565b803561ffff81168114610fff57600080fd5b803563ffffffff81168114610fff57600080fd5b80356001600160401b0381168114610fff57600080fd5b6000602082840312156111c3578081fd5b81356001600160a01b03811681146111d9578182fd5b9392505050565b60008060008060008060c087890312156111f8578182fd5b863595506112086020880161119b565b945060408701359350606087013592506112246080880161119b565b915061123260a0880161119b565b90509295509295509295565b60006020828403121561124f578081fd5b6111d982611187565b6000806040838503121561126a578182fd5b61127383611187565b946020939093013593505050565b60008060408385031215611293578182fd5b61129c83611187565b91506112aa6020840161119b565b90509250929050565b600080600080600060a086880312156112ca578081fd5b6112d386611187565b945060206112e281880161119b565b9450604087013593506060870135925060808701356001600160401b038082111561130b578384fd5b818901915089601f83011261131e578384fd5b81358181111561132a57fe5b604051601f8201601f191681018501838111828210171561134757fe5b60405281815283820185018c101561135d578586fd5b81858501868301378585838301015280955050505050509295509295909350565b600080600080600060a08688031215611395578081fd5b61139e86611187565b94506113ac6020870161119b565b93506113ba60408701611175565b92506113c860608701611175565b949793965091946080013592915050565b600080600080608085870312156113ee578384fd5b6113f785611187565b93506114056020860161119b565b92506114136040860161119b565b9396929550929360600135925050565b958652602086019490945260408501929092526060840152608083015260a082015260c00190565b6000825161145d818460208701611951565b9190910192915050565b60e09290921b6001600160e01b031916825260c01b6001600160c01b0319166004820152600c0190565b6001600160a01b0391909116815260200190565b901515815260200190565b9115158252602082015260400190565b6020808252601390820152720d2dcecc2d8d2c840e0c2f2dacadce890c2e6d606b1b604082015260600190565b6020808252602c908201527f6e6f7420656e6f7567682074696d6520656c61707365642073696e636520707260408201526b696f722066696e616c69747960a01b606082015260800190565b60208082526032908201527f66696e616c69736564436c61696d506572696f64735b6c6f636174696f6e48616040820152711cda1748191bd95cc81b9bdd08195e1a5cdd60721b606082015260800190565b6020808252601390820152723a3c24b21030b63932b0b23c90383937bb32b760691b604082015260600190565b6020808252818101527f6d73672e73656e64657220213d20676f7665726e616e6365436f6e7472616374604082015260600190565b602080825260169082015275636861696e496420616c72656164792065786973747360501b604082015260600190565b60208082526018908201527f696e76616c696420636c61696d506572696f64496e6465780000000000000000604082015260600190565b60208082526027908201527f70726576696f757320636c61696d20706572696f64206e6f74207965742066696040820152661b985b1a5cd95960ca1b606082015260800190565b6020808252600e908201526d34b73b30b634b2103632b233b2b960911b604082015260600190565b60208082526035908201527f626c6f636b2e74696d657374616d70203c3d20636861696e735b636861696e496040820152740645d2e66696e616c6973656454696d657374616d7605c1b606082015260800190565b6020808252601690820152750636c61696d506572696f644c656e677468203d3d20360541b604082015260600190565b6020808252601e908201527f6c6f636174696f6e4861736820616c72656164792066696e616c697365640000604082015260600190565b602080825260149082015273696e697469616c6973656420213d2066616c736560601b604082015260600190565b60208082526017908201527f496e76616c696420636c61696d506572696f6448617368000000000000000000604082015260600190565b6020808252601c908201527f496e76616c696420626c6f636b2e636f696e626173652076616c756500000000604082015260600190565b6020808252601390820152721d1e125908191bd95cc81b9bdd08195e1a5cdd606a1b604082015260600190565b60208082526016908201527518da185a5b925908191bd95cc81b9bdd08195e1a5cdd60521b604082015260600190565b600063ffffffff861682526001600160401b03851660208301528360408301526080606083015282518060808401526118b88160a0850160208701611951565b601f01601f19169190910160a00195945050505050565b63ffffffff9490941684526001600160401b0392909216602084015261ffff166040830152606082015260800190565b6001600160401b0391909116815260200190565b6001600160401b039687168152948616602086015261ffff93909316604085015293166060830152608082019290925260a081019190915260c00190565b60005b8381101561196c578181015183820152602001611954565b8381111561197b576000848401525b5050505056fea2646970667358221220222fa9eff95d1712aa0c859545ba42e288dcb085516496c82477accd74f81f6664736f6c63430007060033",
    "sourcePath": "/home/my-usern/flare/sean/contracts/stateConnector.sol",
    "compiler": {
        "name": "solc",
        "version": "0.7.6+commit.7338295f"
    },
    "functionHashes": {
        "addChain(uint32,uint64,uint16,uint16,uint256)": "bd18dae3",
        "getClaimPeriodIndexFinality(uint32,uint64)": "e54caf92",
        "getClaimPeriodsMined(address)": "efe78272",
        "getGovernanceContract()": "ef2fa85f",
        "getLatestIndex(uint32)": "2a2434a2",
        "getPaymentFinality(bytes32,uint64,bytes32,bytes32,uint64,uint64)": "6879c67b",
        "initialiseChains()": "ef4c169e",
        "proveClaimPeriodFinality(uint32,uint64,uint64,bytes32)": "a57d0e25",
        "provePaymentFinality(uint32,uint64,bytes32,bytes32,string)": "13bb431c",
        "setGovernanceContract(address)": "1129753f",
        "updateChainTiming(uint32,uint256)": "ff695ef0"
    },
    "gasEstimates": {
        "creation": {
            "codeDepositCost": "1316600",
            "executionCost": "1369",
            "totalCost": "1317969"
        },
        "external": {
            "addChain(uint32,uint64,uint16,uint16,uint256)": "infinite",
            "getClaimPeriodIndexFinality(uint32,uint64)": "infinite",
            "getClaimPeriodsMined(address)": "1374",
            "getGovernanceContract()": "1114",
            "getLatestIndex(uint32)": "4171",
            "getPaymentFinality(bytes32,uint64,bytes32,bytes32,uint64,uint64)": "infinite",
            "initialiseChains()": "213989",
            "proveClaimPeriodFinality(uint32,uint64,uint64,bytes32)": "infinite",
            "provePaymentFinality(uint32,uint64,bytes32,bytes32,string)": "infinite",
            "setGovernanceContract(address)": "21977",
            "updateChainTiming(uint32,uint256)": "22278"
        },
        "internal": {
            "getClaimPeriodFinality(bytes32,uint32,uint64)": "infinite"
        }
    }
}