{
    "contractName": "StateConnector",
    "abi": [
        {
            "inputs": [],
            "stateMutability": "nonpayable",
            "type": "constructor"
        },
        {
            "anonymous": false,
            "inputs": [
                {
                    "indexed": false,
                    "internalType": "uint32",
                    "name": "chainId",
                    "type": "uint32"
                },
                {
                    "indexed": false,
                    "internalType": "bool",
                    "name": "add",
                    "type": "bool"
                }
            ],
            "name": "ChainAdded",
            "type": "event"
        },
        {
            "anonymous": false,
            "inputs": [
                {
                    "indexed": false,
                    "internalType": "uint32",
                    "name": "chainId",
                    "type": "uint32"
                },
                {
                    "indexed": false,
                    "internalType": "uint64",
                    "name": "ledger",
                    "type": "uint64"
                },
                {
                    "indexed": false,
                    "internalType": "enum StateConnector.DataAvailPeriodFinalityType",
                    "name": "finType",
                    "type": "uint8"
                },
                {
                    "indexed": false,
                    "internalType": "address",
                    "name": "sender",
                    "type": "address"
                }
            ],
            "name": "DataAvailPeriodFinalityProved",
            "type": "event"
        },
        {
            "anonymous": false,
            "inputs": [
                {
                    "indexed": false,
                    "internalType": "uint32",
                    "name": "chainId",
                    "type": "uint32"
                },
                {
                    "indexed": false,
                    "internalType": "uint64",
                    "name": "ledger",
                    "type": "uint64"
                },
                {
                    "indexed": false,
                    "internalType": "string",
                    "name": "txId",
                    "type": "string"
                },
                {
                    "indexed": false,
                    "internalType": "bytes32",
                    "name": "paymentHash",
                    "type": "bytes32"
                },
                {
                    "indexed": false,
                    "internalType": "address",
                    "name": "sender",
                    "type": "address"
                }
            ],
            "name": "PaymentFinalityDisproved",
            "type": "event"
        },
        {
            "anonymous": false,
            "inputs": [
                {
                    "indexed": false,
                    "internalType": "uint32",
                    "name": "chainId",
                    "type": "uint32"
                },
                {
                    "indexed": false,
                    "internalType": "uint64",
                    "name": "ledger",
                    "type": "uint64"
                },
                {
                    "indexed": false,
                    "internalType": "string",
                    "name": "txId",
                    "type": "string"
                },
                {
                    "indexed": false,
                    "internalType": "bytes32",
                    "name": "paymentHash",
                    "type": "bytes32"
                },
                {
                    "indexed": false,
                    "internalType": "address",
                    "name": "sender",
                    "type": "address"
                }
            ],
            "name": "PaymentFinalityProved",
            "type": "event"
        },
        {
            "inputs": [
                {
                    "internalType": "uint32",
                    "name": "",
                    "type": "uint32"
                }
            ],
            "name": "chains",
            "outputs": [
                {
                    "internalType": "bool",
                    "name": "exists",
                    "type": "bool"
                },
                {
                    "internalType": "uint64",
                    "name": "genesisLedger",
                    "type": "uint64"
                },
                {
                    "internalType": "uint64",
                    "name": "ledgerHistorySize",
                    "type": "uint64"
                },
                {
                    "internalType": "uint16",
                    "name": "dataAvailPeriodLength",
                    "type": "uint16"
                },
                {
                    "internalType": "uint16",
                    "name": "numConfirmations",
                    "type": "uint16"
                },
                {
                    "internalType": "uint64",
                    "name": "finalisedDataAvailPeriodIndex",
                    "type": "uint64"
                },
                {
                    "internalType": "uint64",
                    "name": "finalisedLedgerIndex",
                    "type": "uint64"
                },
                {
                    "internalType": "uint256",
                    "name": "finalisedTimestamp",
                    "type": "uint256"
                },
                {
                    "internalType": "uint256",
                    "name": "timeDiffExpected",
                    "type": "uint256"
                },
                {
                    "internalType": "uint256",
                    "name": "timeDiffAvg",
                    "type": "uint256"
                }
            ],
            "stateMutability": "view",
            "type": "function"
        },
        {
            "inputs": [
                {
                    "internalType": "address",
                    "name": "",
                    "type": "address"
                },
                {
                    "internalType": "uint256",
                    "name": "",
                    "type": "uint256"
                }
            ],
            "name": "dataAvailPeriodsMined",
            "outputs": [
                {
                    "internalType": "uint64",
                    "name": "",
                    "type": "uint64"
                }
            ],
            "stateMutability": "view",
            "type": "function"
        },
        {
            "inputs": [
                {
                    "internalType": "uint32",
                    "name": "chainId",
                    "type": "uint32"
                },
                {
                    "internalType": "bytes32",
                    "name": "paymentHash",
                    "type": "bytes32"
                },
                {
                    "internalType": "uint64",
                    "name": "ledger",
                    "type": "uint64"
                },
                {
                    "internalType": "string",
                    "name": "txId",
                    "type": "string"
                }
            ],
            "name": "disprovePaymentFinality",
            "outputs": [
                {
                    "internalType": "uint32",
                    "name": "_chainId",
                    "type": "uint32"
                },
                {
                    "internalType": "uint64",
                    "name": "_ledger",
                    "type": "uint64"
                },
                {
                    "internalType": "uint64",
                    "name": "_finalisedLedgerIndex",
                    "type": "uint64"
                },
                {
                    "internalType": "bytes32",
                    "name": "_paymentHash",
                    "type": "bytes32"
                },
                {
                    "internalType": "string",
                    "name": "_txId",
                    "type": "string"
                }
            ],
            "stateMutability": "nonpayable",
            "type": "function"
        },
        {
            "inputs": [
                {
                    "internalType": "bytes32",
                    "name": "",
                    "type": "bytes32"
                }
            ],
            "name": "finalisedDataAvailPeriods",
            "outputs": [
                {
                    "internalType": "bool",
                    "name": "exists",
                    "type": "bool"
                },
                {
                    "internalType": "bytes32",
                    "name": "dataAvailPeriodHash",
                    "type": "bytes32"
                },
                {
                    "internalType": "bytes32",
                    "name": "commitHash",
                    "type": "bytes32"
                },
                {
                    "internalType": "uint256",
                    "name": "commitTime",
                    "type": "uint256"
                },
                {
                    "internalType": "uint256",
                    "name": "permittedRevealTime",
                    "type": "uint256"
                },
                {
                    "internalType": "bytes32",
                    "name": "revealHash",
                    "type": "bytes32"
                },
                {
                    "internalType": "uint64",
                    "name": "index",
                    "type": "uint64"
                },
                {
                    "internalType": "uint64",
                    "name": "indexSearchRegion",
                    "type": "uint64"
                },
                {
                    "internalType": "bool",
                    "name": "proven",
                    "type": "bool"
                },
                {
                    "internalType": "address",
                    "name": "provenBy",
                    "type": "address"
                }
            ],
            "stateMutability": "view",
            "type": "function"
        },
        {
            "inputs": [
                {
                    "internalType": "uint32",
                    "name": "",
                    "type": "uint32"
                },
                {
                    "internalType": "bytes32",
                    "name": "",
                    "type": "bytes32"
                }
            ],
            "name": "finalisedPayments",
            "outputs": [
                {
                    "internalType": "bool",
                    "name": "exists",
                    "type": "bool"
                },
                {
                    "internalType": "bytes32",
                    "name": "dataAvailPeriodHash",
                    "type": "bytes32"
                },
                {
                    "internalType": "bytes32",
                    "name": "commitHash",
                    "type": "bytes32"
                },
                {
                    "internalType": "uint256",
                    "name": "commitTime",
                    "type": "uint256"
                },
                {
                    "internalType": "uint256",
                    "name": "permittedRevealTime",
                    "type": "uint256"
                },
                {
                    "internalType": "bytes32",
                    "name": "revealHash",
                    "type": "bytes32"
                },
                {
                    "internalType": "uint64",
                    "name": "index",
                    "type": "uint64"
                },
                {
                    "internalType": "uint64",
                    "name": "indexSearchRegion",
                    "type": "uint64"
                },
                {
                    "internalType": "bool",
                    "name": "proven",
                    "type": "bool"
                },
                {
                    "internalType": "address",
                    "name": "provenBy",
                    "type": "address"
                }
            ],
            "stateMutability": "view",
            "type": "function"
        },
        {
            "inputs": [
                {
                    "internalType": "uint32",
                    "name": "chainId",
                    "type": "uint32"
                },
                {
                    "internalType": "uint64",
                    "name": "dataAvailPeriodIndex",
                    "type": "uint64"
                }
            ],
            "name": "getDataAvailPeriodIndexFinality",
            "outputs": [
                {
                    "internalType": "bool",
                    "name": "finality",
                    "type": "bool"
                }
            ],
            "stateMutability": "view",
            "type": "function"
        },
        {
            "inputs": [
                {
                    "internalType": "address",
                    "name": "miner",
                    "type": "address"
                },
                {
                    "internalType": "uint256",
                    "name": "rewardSchedule",
                    "type": "uint256"
                }
            ],
            "name": "getDataAvailPeriodsMined",
            "outputs": [
                {
                    "internalType": "uint64",
                    "name": "numMined",
                    "type": "uint64"
                }
            ],
            "stateMutability": "view",
            "type": "function"
        },
        {
            "inputs": [
                {
                    "internalType": "uint32",
                    "name": "chainId",
                    "type": "uint32"
                }
            ],
            "name": "getLatestIndex",
            "outputs": [
                {
                    "internalType": "uint64",
                    "name": "genesisLedger",
                    "type": "uint64"
                },
                {
                    "internalType": "uint64",
                    "name": "finalisedDataAvailPeriodIndex",
                    "type": "uint64"
                },
                {
                    "internalType": "uint16",
                    "name": "dataAvailPeriodLength",
                    "type": "uint16"
                },
                {
                    "internalType": "uint64",
                    "name": "finalisedLedgerIndex",
                    "type": "uint64"
                },
                {
                    "internalType": "uint256",
                    "name": "finalisedTimestamp",
                    "type": "uint256"
                },
                {
                    "internalType": "uint256",
                    "name": "timeDiffAvg",
                    "type": "uint256"
                }
            ],
            "stateMutability": "view",
            "type": "function"
        },
        {
            "inputs": [
                {
                    "internalType": "uint32",
                    "name": "chainId",
                    "type": "uint32"
                },
                {
                    "internalType": "bytes32",
                    "name": "txId",
                    "type": "bytes32"
                },
                {
                    "internalType": "bytes32",
                    "name": "destinationHash",
                    "type": "bytes32"
                },
                {
                    "internalType": "uint64",
                    "name": "amount",
                    "type": "uint64"
                },
                {
                    "internalType": "bytes32",
                    "name": "currencyHash",
                    "type": "bytes32"
                }
            ],
            "name": "getPaymentFinality",
            "outputs": [
                {
                    "internalType": "uint64",
                    "name": "ledger",
                    "type": "uint64"
                },
                {
                    "internalType": "uint64",
                    "name": "indexSearchRegion",
                    "type": "uint64"
                },
                {
                    "internalType": "bool",
                    "name": "finality",
                    "type": "bool"
                }
            ],
            "stateMutability": "view",
            "type": "function"
        },
        {
            "inputs": [],
            "name": "getRewardPeriod",
            "outputs": [
                {
                    "internalType": "uint256",
                    "name": "rewardSchedule",
                    "type": "uint256"
                }
            ],
            "stateMutability": "view",
            "type": "function"
        },
        {
            "inputs": [
                {
                    "internalType": "uint256",
                    "name": "rewardSchedule",
                    "type": "uint256"
                }
            ],
            "name": "getTotalDataAvailPeriodsMined",
            "outputs": [
                {
                    "internalType": "uint64",
                    "name": "numMined",
                    "type": "uint64"
                }
            ],
            "stateMutability": "view",
            "type": "function"
        },
        {
            "inputs": [],
            "name": "initialiseChains",
            "outputs": [
                {
                    "internalType": "bool",
                    "name": "success",
                    "type": "bool"
                }
            ],
            "stateMutability": "nonpayable",
            "type": "function"
        },
        {
            "inputs": [],
            "name": "initialiseTime",
            "outputs": [
                {
                    "internalType": "uint256",
                    "name": "",
                    "type": "uint256"
                }
            ],
            "stateMutability": "view",
            "type": "function"
        },
        {
            "inputs": [],
            "name": "initialised",
            "outputs": [
                {
                    "internalType": "bool",
                    "name": "",
                    "type": "bool"
                }
            ],
            "stateMutability": "view",
            "type": "function"
        },
        {
            "inputs": [],
            "name": "numChains",
            "outputs": [
                {
                    "internalType": "uint32",
                    "name": "",
                    "type": "uint32"
                }
            ],
            "stateMutability": "view",
            "type": "function"
        },
        {
            "inputs": [
                {
                    "internalType": "address",
                    "name": "",
                    "type": "address"
                },
                {
                    "internalType": "bytes32",
                    "name": "",
                    "type": "bytes32"
                }
            ],
            "name": "proposedProofs",
            "outputs": [
                {
                    "internalType": "bool",
                    "name": "exists",
                    "type": "bool"
                },
                {
                    "internalType": "bytes32",
                    "name": "dataAvailPeriodHash",
                    "type": "bytes32"
                },
                {
                    "internalType": "bytes32",
                    "name": "commitHash",
                    "type": "bytes32"
                },
                {
                    "internalType": "uint256",
                    "name": "commitTime",
                    "type": "uint256"
                },
                {
                    "internalType": "uint256",
                    "name": "permittedRevealTime",
                    "type": "uint256"
                },
                {
                    "internalType": "bytes32",
                    "name": "revealHash",
                    "type": "bytes32"
                },
                {
                    "internalType": "uint64",
                    "name": "index",
                    "type": "uint64"
                },
                {
                    "internalType": "uint64",
                    "name": "indexSearchRegion",
                    "type": "uint64"
                },
                {
                    "internalType": "bool",
                    "name": "proven",
                    "type": "bool"
                },
                {
                    "internalType": "address",
                    "name": "provenBy",
                    "type": "address"
                }
            ],
            "stateMutability": "view",
            "type": "function"
        },
        {
            "inputs": [
                {
                    "internalType": "uint32",
                    "name": "chainId",
                    "type": "uint32"
                },
                {
                    "internalType": "uint64",
                    "name": "ledger",
                    "type": "uint64"
                },
                {
                    "internalType": "bytes32",
                    "name": "dataAvailPeriodHash",
                    "type": "bytes32"
                },
                {
                    "internalType": "bytes32",
                    "name": "chainTipHash",
                    "type": "bytes32"
                }
            ],
            "name": "proveDataAvailPeriodFinality",
            "outputs": [
                {
                    "internalType": "uint32",
                    "name": "_chainId",
                    "type": "uint32"
                },
                {
                    "internalType": "uint64",
                    "name": "_ledger",
                    "type": "uint64"
                },
                {
                    "internalType": "uint16",
                    "name": "_numConfirmations",
                    "type": "uint16"
                },
                {
                    "internalType": "bytes32",
                    "name": "_dataAvailPeriodHash",
                    "type": "bytes32"
                }
            ],
            "stateMutability": "nonpayable",
            "type": "function"
        },
        {
            "inputs": [
                {
                    "internalType": "uint32",
                    "name": "chainId",
                    "type": "uint32"
                },
                {
                    "internalType": "bytes32",
                    "name": "paymentHash",
                    "type": "bytes32"
                },
                {
                    "internalType": "uint64",
                    "name": "ledger",
                    "type": "uint64"
                },
                {
                    "internalType": "string",
                    "name": "txId",
                    "type": "string"
                }
            ],
            "name": "provePaymentFinality",
            "outputs": [
                {
                    "internalType": "uint32",
                    "name": "_chainId",
                    "type": "uint32"
                },
                {
                    "internalType": "uint64",
                    "name": "_ledger",
                    "type": "uint64"
                },
                {
                    "internalType": "uint64",
                    "name": "_finalisedLedgerIndex",
                    "type": "uint64"
                },
                {
                    "internalType": "bytes32",
                    "name": "_paymentHash",
                    "type": "bytes32"
                },
                {
                    "internalType": "string",
                    "name": "_txId",
                    "type": "string"
                }
            ],
            "stateMutability": "nonpayable",
            "type": "function"
        },
        {
            "inputs": [],
            "name": "rewardPeriodTimespan",
            "outputs": [
                {
                    "internalType": "uint64",
                    "name": "",
                    "type": "uint64"
                }
            ],
            "stateMutability": "view",
            "type": "function"
        },
        {
            "inputs": [
                {
                    "internalType": "address",
                    "name": "",
                    "type": "address"
                }
            ],
            "name": "senderBannedUntil",
            "outputs": [
                {
                    "internalType": "uint256",
                    "name": "",
                    "type": "uint256"
                }
            ],
            "stateMutability": "view",
            "type": "function"
        },
        {
            "inputs": [
                {
                    "internalType": "uint256",
                    "name": "",
                    "type": "uint256"
                }
            ],
            "name": "totalDataAvailPeriodsMined",
            "outputs": [
                {
                    "internalType": "uint64",
                    "name": "",
                    "type": "uint64"
                }
            ],
            "stateMutability": "view",
            "type": "function"
        }
    ],
    "bytecode": "608060405234801561001057600080fd5b506138c7806100206000396000f3fe608060405234801561001057600080fd5b50600436106101375760003560e01c80638b203dd4116100b8578063d3fb3e9f1161007c578063d3fb3e9f14610710578063d46117aa14610731578063e3fe3fbf1461075a578063e8b174b414610777578063ef4c169e146107a3578063f9c490ee146107ab57610137565b80638b203dd4146106185780639c531f8c146106a2578063a79ab7f6146106aa578063adc89032146106dc578063b02bca3c146106e457610137565b806334cb37c7116100ff57806334cb37c714610316578063388492dd146103335780634897b35b146104a757806371e8d61a146104e05780637f5824321461055057610137565b80630525cb9c1461013c57806307003bb4146101b257806313108e5b146101ce57806322ce7387146102635780632a2434a21461029b575b600080fd5b61017a6004803603608081101561015257600080fd5b5063ffffffff813516906001600160401b0360208201351690604081013590606001356107b3565b6040805163ffffffff90951685526001600160401b03909316602085015261ffff909116838301526060830152519081900360800190f35b6101ba61189c565b604080519115158252519081900360200190f35b6101fa600480360360408110156101e457600080fd5b506001600160a01b0381351690602001356118a5565b604080519a15158b5260208b0199909952898901979097526060890195909552608088019390935260a08701919091526001600160401b0390811660c08701521660e085015215156101008401526001600160a01b031661012083015251908190036101400190f35b6102896004803603602081101561027957600080fd5b50356001600160a01b0316611920565b60408051918252519081900360200190f35b6102be600480360360208110156102b157600080fd5b503563ffffffff16611932565b60405180876001600160401b03168152602001866001600160401b031681526020018561ffff168152602001846001600160401b03168152602001838152602001828152602001965050505050505060405180910390f35b6101fa6004803603602081101561032c57600080fd5b5035611b20565b6103fb6004803603608081101561034957600080fd5b63ffffffff823516916020810135916001600160401b03604083013516919081019060808101606082013564010000000081111561038657600080fd5b82018360208201111561039857600080fd5b803590602001918460018302840111640100000000831117156103ba57600080fd5b91908080601f016020809104026020016040519081016040528093929190818152602001838380828437600092019190915250929550611b94945050505050565b604051808663ffffffff168152602001856001600160401b03168152602001846001600160401b0316815260200183815260200180602001828103825283818151815260200191508051906020019080838360005b83811015610468578181015183820152602001610450565b50505050905090810190601f1680156104955780820380516001836020036101000a031916815260200191505b50965050505050505060405180910390f35b6104c4600480360360208110156104bd57600080fd5b50356121b8565b604080516001600160401b039092168252519081900360200190f35b610524600480360360a08110156104f657600080fd5b5063ffffffff813516906020810135906040810135906001600160401b0360608201351690608001356121d3565b604080516001600160401b03948516815292909316602083015215158183015290519081900360600190f35b6103fb6004803603608081101561056657600080fd5b63ffffffff823516916020810135916001600160401b0360408301351691908101906080810160608201356401000000008111156105a357600080fd5b8201836020820111156105b557600080fd5b803590602001918460018302840111640100000000831117156105d757600080fd5b91908080601f0160208091040260200160405190810160405280939291908181526020018383808284376000920191909152509295506123ba945050505050565b61063b6004803603602081101561062e57600080fd5b503563ffffffff166129d7565b604080519a15158b526001600160401b03998a1660208c01529789168a89015261ffff96871660608b015294909516608089015291861660a088015290941660c086015260e085019390935261010084015261012083019190915251908190036101400190f35b6104c4612a48565b6101ba600480360360408110156106c057600080fd5b50803563ffffffff1690602001356001600160401b0316612a57565b610289612b11565b6104c4600480360360408110156106fa57600080fd5b506001600160a01b038135169060200135612b74565b610718612b9a565b6040805163ffffffff9092168252519081900360200190f35b6101fa6004803603604081101561074757600080fd5b5063ffffffff8135169060200135612bab565b6104c46004803603602081101561077057600080fd5b5035612c28565b6104c46004803603604081101561078d57600080fd5b506001600160a01b038135169060200135612c43565b6101ba612c74565b610289613674565b63ffffffff8416600090815260036020526040812054819081908190889060ff16610813576040805162461bcd60e51b81526020600482015260166024820152600080516020613872833981519152604482015290519081900360640190fd5b3360009081526009602052604090205442116108605760405162461bcd60e51b81526004018080602001828103825260458152602001806136fb6045913960600191505060405180910390fd5b866108b2576040805162461bcd60e51b815260206004820152601a60248201527f64617461417661696c506572696f6448617368203d3d20307830000000000000604482015290519081900360640190fd5b856108fa576040805162461bcd60e51b81526020600482015260136024820152720636861696e54697048617368203d3d2030783606c1b604482015290519081900360640190fd5b4133148061090b575041600160981b145b61095c576040805162461bcd60e51b815260206004820152601c60248201527f696e76616c696420626c6f636b2e636f696e626173652076616c756500000000604482015290519081900360640190fd5b63ffffffff891660009081526003602052604090208054600190910154600160881b90910461ffff166001600160401b03918216018116908916146109d9576040805162461bcd60e51b815260206004820152600e60248201526d34b73b30b634b2103632b233b2b960911b604482015290519081900360640190fd5b63ffffffff89166000908152600360205260409020600201544211610a2f5760405162461bcd60e51b81526004018080602001828103825260358152602001806137b66035913960400191505060405180910390fd5b63ffffffff89166000908152600360208190526040909120908101546004909101546002021015610ac95763ffffffff891660009081526003602081905260409091206004810154600291820154910242919091039091021015610ac45760405162461bcd60e51b815260040180806020018281038252602c8152602001806136cf602c913960400191505060405180910390fd5b610b2b565b63ffffffff8916600090815260036020526040902060048101546002909101544203600f011015610b2b5760405162461bcd60e51b815260040180806020018281038252602c8152602001806136cf602c913960400191505060405180910390fd5b63ffffffff8916600090815260036020908152604080832054815160e08e901b6001600160e01b03191681850152600160a81b90910460c01b6001600160c01b03191660248201528151808203600c018152602c9091018252805190830120808452600590925290912060060154600160801b900460ff1615610bf5576040805162461bcd60e51b815260206004820152601e60248201527f6c6f636174696f6e4861736820616c72656164792066696e616c697365640000604482015290519081900360640190fd5b63ffffffff8a16600090815260036020526040902054600160a81b90046001600160401b031615610d015760008a6001600360008e63ffffffff1663ffffffff16815260200190815260200160002060000160159054906101000a90046001600160401b031603604051602001808363ffffffff1660e01b8152600401826001600160401b031660c01b8152600801925050506040516020818303038152906040528051906020012090506005600082815260200190815260200160002060060160109054906101000a900460ff16610cff5760405162461bcd60e51b815260040180806020018281038252602781526020018061376e6027913960400191505060405180910390fd5b505b33600090815260046020908152604080832084845290915290205460ff1615610e1c573360009081526004602081815260408084208585529091529091200154421015610d7f5760405162461bcd60e51b815260040180806020018281038252604e815260200180613824604e913960600191505060405180910390fd5b6040805133606081901b60208084019190915260348084018c90528451808503909101815260549093018452825192810192909220600091825260048352838220858352909252919091206002015414610e17576040805162461bcd60e51b81526020600482015260146024820152730d2dcecc2d8d2c840c6d0c2d2dca8d2e090c2e6d60631b604482015290519081900360640190fd5b610e39565b413314801590610e2f575041600160981b145b15610e3957600097505b4133148015610e4c575041600160981b14155b156118665733600090815260046020908152604080832084845290915290205460ff166110a7576040518061014001604052806001151581526020018981526020018881526020014281526020016002600360008e63ffffffff1663ffffffff1681526020019081526020016000206004015481610ec657fe5b04420181526020016000801b81526020018a6001600160401b0316815260200160006001600160401b0316815260200160001515815260200160006001600160a01b031681525060046000336001600160a01b03166001600160a01b03168152602001908152602001600020600083815260200190815260200160002060008201518160000160006101000a81548160ff0219169083151502179055506020820151816001015560408201518160020155606082015181600301556080820151816004015560a0820151816005015560c08201518160060160006101000a8154816001600160401b0302191690836001600160401b0316021790555060e08201518160060160086101000a8154816001600160401b0302191690836001600160401b031602179055506101008201518160060160106101000a81548160ff0219169083151502179055506101208201518160070160006101000a8154816001600160a01b0302191690836001600160a01b0316021790555090505060008051602061367b8339815191528a8a600033604051808563ffffffff168152602001846001600160401b0316815260200183600381111561108057fe5b8152602001826001600160a01b0316815260200194505050505060405180910390a1611866565b63ffffffff8a16600090815260036020526040902054600160981b810461ffff16600160a81b9091046001600160401b031611156114785760008a600360008d63ffffffff1663ffffffff16815260200190815260200160002060000160139054906101000a900461ffff1661ffff16600360008e63ffffffff1663ffffffff16815260200190815260200160002060000160159054906101000a90046001600160401b031603604051602001808363ffffffff1660e01b8152600401826001600160401b031660c01b815260080192505050604051602081830303815290604052805190602001209050886005600083815260200190815260200160002060050154141561133a5760006111ba612b11565b90506001600760006005600086815260200190815260200160002060070160009054906101000a90046001600160a01b03166001600160a01b03166001600160a01b03168152602001908152602001600020600083815260200190815260200160002060008282829054906101000a90046001600160401b03160192506101000a8154816001600160401b0302191690836001600160401b0316021790555060016008600083815260200190815260200160002060008282829054906101000a90046001600160401b03160192506101000a8154816001600160401b0302191690836001600160401b0316021790555060008051602061367b8339815191528c8c60026005600087815260200190815260200160002060070160009054906101000a90046001600160a01b0316604051808563ffffffff168152602001846001600160401b0316815260200183600381111561131257fe5b8152602001826001600160a01b0316815260200194505050505060405180910390a150611472565b600360008c63ffffffff1663ffffffff16815260200190815260200160002060030154600360008d63ffffffff1663ffffffff16815260200190815260200160002060000160139054906101000a900461ffff1661ffff16024201600960006005600085815260200190815260200160002060070160009054906101000a90046001600160a01b03166001600160a01b03166001600160a01b031681526020019081526020016000208190555060008051602061367b8339815191528b8b60036005600086815260200190815260200160002060070160009054906101000a90046001600160a01b0316604051808563ffffffff168152602001846001600160401b0316815260200183600381111561144f57fe5b8152602001826001600160a01b0316815260200194505050505060405180910390a15b506114da565b60008051602061367b8339815191528a8a600133604051808563ffffffff168152602001846001600160401b031681526020018360038111156114b757fe5b8152602001826001600160a01b0316815260200194505050505060405180910390a15b6040518061014001604052806001151581526020018981526020016000801b815260200160046000336001600160a01b03166001600160a01b0316815260200190815260200160002060008481526020019081526020016000206003015481526020014281526020018881526020018a6001600160401b0316815260200160006001600160401b03168152602001600115158152602001336001600160a01b03168152506005600083815260200190815260200160002060008201518160000160006101000a81548160ff0219169083151502179055506020820151816001015560408201518160020155606082015181600301556080820151816004015560a0820151816005015560c08201518160060160006101000a8154816001600160401b0302191690836001600160401b0316021790555060e08201518160060160086101000a8154816001600160401b0302191690836001600160401b031602179055506101008201518160060160106101000a81548160ff0219169083151502179055506101208201518160070160006101000a8154816001600160a01b0302191690836001600160a01b031602179055509050506001600360008c63ffffffff1663ffffffff16815260200190815260200160002060000160158282829054906101000a90046001600160401b03160192506101000a8154816001600160401b0302191690836001600160401b0316021790555088600360008c63ffffffff1663ffffffff16815260200190815260200160002060010160006101000a8154816001600160401b0302191690836001600160401b0316021790555060006002600360008d63ffffffff1663ffffffff16815260200190815260200160002060040154600360008e63ffffffff1663ffffffff1681526020019081526020016000206002015460046000336001600160a01b03166001600160a01b031681526020019081526020016000206000868152602001908152602001600020600301540301816117c357fe5b63ffffffff8d166000908152600360208190526040909120015491900491506002028111156118165763ffffffff8b16600090815260036020819052604090912090810154600202600490910155611832565b63ffffffff8b1660009081526003602052604090206004018190555b50336000908152600460209081526040808320848452825280832060039081015463ffffffff8f1685529252909120600201555b5050505063ffffffff861660009081526003602052604090205495966000199590950195600160981b900461ffff169492505050565b60005460ff1681565b600460208181526000938452604080852090915291835291208054600182015460028301546003840154948401546005850154600686015460079096015460ff9586169794969395929391926001600160401b0380841693600160401b810490911692600160801b909104909116906001600160a01b03168a565b60096020526000908152604090205481565b63ffffffff811660009081526003602052604081205481908190819081908190879060ff16611996576040805162461bcd60e51b81526020600482015260166024820152600080516020613872833981519152604482015290519081900360640190fd5b600360008963ffffffff1663ffffffff168152602001908152602001600020600201549250600360008963ffffffff1663ffffffff168152602001908152602001600020600401549150600088600360008b63ffffffff1663ffffffff16815260200190815260200160002060000160159054906101000a90046001600160401b0316604051602001808363ffffffff1660e01b8152600401826001600160401b031660c01b81526008019250505060405160208183030381529060405280519060200120905060046000336001600160a01b03166001600160a01b03168152602001908152602001600020600082815260200190815260200160002060000160009054906101000a900460ff1615611acb573360009081526004602081815260408084208585529091528220015490945092505b505063ffffffff969096166000908152600360205260409020805460019091015461010082046001600160401b0390811699600160a81b8404821699600160881b90940461ffff169850911695509193509150565b60056020819052600091825260409091208054600182015460028301546003840154600485015495850154600686015460079096015460ff958616979496939592949391926001600160401b0380841693600160401b810490911692600160801b909104909116906001600160a01b03168a565b63ffffffff8416600090815260036020526040812054819081908190606090899060ff16611bf7576040805162461bcd60e51b81526020600482015260166024820152600080516020613872833981519152604482015290519081900360640190fd5b6000876040516020018082805190602001908083835b60208310611c2c5780518252601f199092019160209182019101611c0d565b6001836020036101000a038019825116818451168082178552505050505050905001915050604051602081830303815290604052805190602001209050600660008c63ffffffff1663ffffffff168152602001908152602001600020600082815260200190815260200160002060060160109054906101000a900460ff1615611cf2576040805162461bcd60e51b81526020600482015260136024820152723a3c24b21030b63932b0b23c90383937bb32b760691b604482015290519081900360640190fd5b63ffffffff8b166000908152600360205260409020600101546001600160401b03908116908a1610611d555760405162461bcd60e51b815260040180806020018281038252602e815260200180613740602e913960400191505060405180910390fd5b63ffffffff8b166000908152600360205260409020546001600160401b036101008204811691600160481b90041615611e365763ffffffff8c16600090815260036020526040902080546001909101546001600160401b03600160481b830481166101009093048116918116919091031611611e025760405162461bcd60e51b81526004018080602001828103825260398152602001806137eb6039913960400191505060405180910390fd5b5063ffffffff8b16600090815260036020526040902080546001909101546001600160401b03600160481b90920482169116035b806001600160401b03168a6001600160401b03161015611e9d576040805162461bcd60e51b815260206004820152601a60248201527f6c6564676572203c20696e646578536561726368526567696f6e000000000000604482015290519081900360640190fd5b41331480611eae575041600160981b145b611eff576040805162461bcd60e51b815260206004820152601c60248201527f696e76616c696420626c6f636b2e636f696e626173652076616c756500000000604482015290519081900360640190fd5b4133148015611f12575041600160981b14155b15612185576040518061014001604052806001151581526020016000801b81526020016000801b8152602001600081526020014281526020018c81526020018b6001600160401b03168152602001826001600160401b03168152602001600115158152602001336001600160a01b0316815250600660008e63ffffffff1663ffffffff168152602001908152602001600020600084815260200190815260200160002060008201518160000160006101000a81548160ff0219169083151502179055506020820151816001015560408201518160020155606082015181600301556080820151816004015560a0820151816005015560c08201518160060160006101000a8154816001600160401b0302191690836001600160401b0316021790555060e08201518160060160086101000a8154816001600160401b0302191690836001600160401b031602179055506101008201518160060160106101000a81548160ff0219169083151502179055506101208201518160070160006101000a8154816001600160a01b0302191690836001600160a01b031602179055509050507ff794f5b9b6791b3ab0eb97342cf2efbb7e710a478d4512a2505ea60c93fd85d38c8b8b8e33604051808663ffffffff168152602001856001600160401b0316815260200180602001848152602001836001600160a01b03168152602001828103825285818151815260200191508051906020019080838360005b8381101561214657818101518382015260200161212e565b50505050905090810190601f1680156121735780820380516001836020036101000a031916815260200191505b50965050505050505060405180910390a15b5050505063ffffffff8816600090815260036020526040902060010154979895976001600160401b031696959350505050565b6008602052600090815260409020546001600160401b031681565b63ffffffff851660009081526003602052604081205481908190889060ff16612231576040805162461bcd60e51b81526020600482015260166024820152600080516020613872833981519152604482015290519081900360640190fd5b63ffffffff891660009081526006602090815260408083208b845290915290205460ff1661229c576040805162461bcd60e51b81526020600482015260136024820152721d1e125908191bd95cc81b9bdd08195e1a5cdd606a1b604482015290519081900360640190fd5b604080516001600160401b0388166020808301919091528251808303820181528284018452805190820120606083018c9052608083018b905260a083015260c08083018990528351808403909101815260e0909201835281519181019190912063ffffffff8c166000908152600683528381208c8252909252919020600501548114612365576040805162461bcd60e51b81526020600482015260136024820152720d2dcecc2d8d2c840e0c2f2dacadce890c2e6d606b1b604482015290519081900360640190fd5b5050505063ffffffff959095166000908152600660208181526040808420978452969052949020909301546001600160401b0380821696600160401b83049091169550600160801b90910460ff169350915050565b63ffffffff8416600090815260036020526040812054819081908190606090899060ff1661241d576040805162461bcd60e51b81526020600482015260166024820152600080516020613872833981519152604482015290519081900360640190fd5b6000876040516020018082805190602001908083835b602083106124525780518252601f199092019160209182019101612433565b6001836020036101000a038019825116818451168082178552505050505050905001915050604051602081830303815290604052805190602001209050600660008c63ffffffff1663ffffffff168152602001908152602001600020600082815260200190815260200160002060060160109054906101000a900460ff1615612518576040805162461bcd60e51b81526020600482015260136024820152723a3c24b21030b63932b0b23c90383937bb32b760691b604482015290519081900360640190fd5b63ffffffff8b16600090815260066020818152604080842085855290915290912001546001600160401b03808b169116106125845760405162461bcd60e51b815260040180806020018281038252603481526020018061369b6034913960400191505060405180910390fd5b63ffffffff8b166000908152600360205260409020600101546001600160401b03908116908a16106125e75760405162461bcd60e51b815260040180806020018281038252602e815260200180613740602e913960400191505060405180910390fd5b63ffffffff8b166000908152600360205260409020546001600160401b036101008204811691600160481b900416156126c85763ffffffff8c16600090815260036020526040902080546001909101546001600160401b03600160481b8304811661010090930481169181169190910316116126945760405162461bcd60e51b81526004018080602001828103825260398152602001806137eb6039913960400191505060405180910390fd5b5063ffffffff8b16600090815260036020526040902080546001909101546001600160401b03600160481b90920482169116035b806001600160401b03168a6001600160401b0316101561272f576040805162461bcd60e51b815260206004820152601a60248201527f6c6564676572203c20696e646578536561726368526567696f6e000000000000604482015290519081900360640190fd5b41331480612740575041600160981b145b612791576040805162461bcd60e51b815260206004820152601c60248201527f696e76616c696420626c6f636b2e636f696e626173652076616c756500000000604482015290519081900360640190fd5b41331480156127a4575041600160981b14155b15612185576040518061014001604052806001151581526020016000801b81526020016000801b8152602001600081526020014281526020018c81526020018b6001600160401b03168152602001826001600160401b03168152602001600015158152602001336001600160a01b0316815250600660008e63ffffffff1663ffffffff168152602001908152602001600020600084815260200190815260200160002060008201518160000160006101000a81548160ff0219169083151502179055506020820151816001015560408201518160020155606082015181600301556080820151816004015560a0820151816005015560c08201518160060160006101000a8154816001600160401b0302191690836001600160401b0316021790555060e08201518160060160086101000a8154816001600160401b0302191690836001600160401b031602179055506101008201518160060160106101000a81548160ff0219169083151502179055506101208201518160070160006101000a8154816001600160a01b0302191690836001600160a01b031602179055509050507fbcb0b925915042be1878d008c6a757ec966b40294f7aa336b7f9631bae9546e08c8b8b8e33604051808663ffffffff168152602001856001600160401b0316815260200180602001848152602001836001600160a01b03168152602001828103825285818151815260200191508051906020019080838360008381101561214657818101518382015260200161212e565b60036020819052600091825260409091208054600182015460028301549383015460049093015460ff8316946001600160401b036101008504811695600160481b860482169561ffff600160881b8204811696600160981b830490911695600160a81b90920484169493169291908a565b6002546001600160401b031681565b63ffffffff8216600090815260036020526040812054839060ff16612ab1576040805162461bcd60e51b81526020600482015260166024820152600080516020613872833981519152604482015290519081900360640190fd5b50506040805160e09390931b6001600160e01b03191660208085019190915260c09290921b6001600160c01b03191660248401528051808403600c018152602c909301815282519282019290922060009081526005909152205460ff1690565b60006001544211612b535760405162461bcd60e51b81526004018080602001828103825260218152602001806137956021913960400191505060405180910390fd5b6002546001546001600160401b0390911690420381612b6e57fe5b04905090565b60076020908152600092835260408084209091529082529020546001600160401b031681565b600054610100900463ffffffff1681565b600660208181526000938452604080852090915291835291208054600182015460028301546003840154600485015460058601549686015460079096015460ff95861697949693959294919391926001600160401b0380841693600160401b810490911692600160801b909104909116906001600160a01b03168a565b6000908152600860205260409020546001600160401b031690565b6001600160a01b0391909116600090815260076020908152604080832093835292905220546001600160401b031690565b6000805460ff1615612cc4576040805162461bcd60e51b8152602060048201526014602482015273696e697469616c6973656420213d2066616c736560601b604482015290519081900360640190fd5b604051806101400160405280600115158152602001620a84946001600160401b0316815260200160006001600160401b03168152602001600161ffff168152602001600461ffff16815260200160006001600160401b03168152602001620a84946001600160401b0316815260200142815260200161038481526020016000815250600360008063ffffffff16815260200190815260200160002060008201518160000160006101000a81548160ff02191690831515021790555060208201518160000160016101000a8154816001600160401b0302191690836001600160401b0316021790555060408201518160000160096101000a8154816001600160401b0302191690836001600160401b0316021790555060608201518160000160116101000a81548161ffff021916908361ffff16021790555060808201518160000160136101000a81548161ffff021916908361ffff16021790555060a08201518160000160156101000a8154816001600160401b0302191690836001600160401b0316021790555060c08201518160010160006101000a8154816001600160401b0302191690836001600160401b0316021790555060e0820151816002015561010082015181600301556101208201518160040155905050604051806101400160405280600115158152602001621fd4de6001600160401b0316815260200160006001600160401b03168152602001600161ffff168152602001600c61ffff16815260200160006001600160401b03168152602001621fd4de6001600160401b0316815260200142815260200160968152602001600081525060036000600163ffffffff16815260200190815260200160002060008201518160000160006101000a81548160ff02191690831515021790555060208201518160000160016101000a8154816001600160401b0302191690836001600160401b0316021790555060408201518160000160096101000a8154816001600160401b0302191690836001600160401b0316021790555060608201518160000160116101000a81548161ffff021916908361ffff16021790555060808201518160000160136101000a81548161ffff021916908361ffff16021790555060a08201518160000160156101000a8154816001600160401b0302191690836001600160401b0316021790555060c08201518160010160006101000a8154816001600160401b0302191690836001600160401b0316021790555060e0820151816002015561010082015181600301556101208201518160040155905050604051806101400160405280600115158152602001623980b46001600160401b0316815260200160006001600160401b03168152602001600261ffff168152602001602861ffff16815260200160006001600160401b03168152602001623980b46001600160401b0316815260200142815260200160788152602001600081525060036000600263ffffffff16815260200190815260200160002060008201518160000160006101000a81548160ff02191690831515021790555060208201518160000160016101000a8154816001600160401b0302191690836001600160401b0316021790555060408201518160000160096101000a8154816001600160401b0302191690836001600160401b0316021790555060608201518160000160116101000a81548161ffff021916908361ffff16021790555060808201518160000160136101000a81548161ffff021916908361ffff16021790555060a08201518160000160156101000a8154816001600160401b0302191690836001600160401b0316021790555060c08201518160010160006101000a8154816001600160401b0302191690836001600160401b0316021790555060e08201518160020155610100820151816003015561012082015181600401559050506040518061014001604052806001151581526020016303bf79006001600160401b0316815260200160006001600160401b03168152602001601e61ffff168152602001600161ffff16815260200160006001600160401b031681526020016303bf79006001600160401b0316815260200142815260200160788152602001600081525060036000600363ffffffff16815260200190815260200160002060008201518160000160006101000a81548160ff02191690831515021790555060208201518160000160016101000a8154816001600160401b0302191690836001600160401b0316021790555060408201518160000160096101000a8154816001600160401b0302191690836001600160401b0316021790555060608201518160000160116101000a81548161ffff021916908361ffff16021790555060808201518160000160136101000a81548161ffff021916908361ffff16021790555060a08201518160000160156101000a8154816001600160401b0302191690836001600160401b0316021790555060c08201518160010160006101000a8154816001600160401b0302191690836001600160401b0316021790555060e082015181600201556101008201518160030155610120820151816004015590505060405180610140016040528060011515815260200163022339d86001600160401b0316815260200160006001600160401b03168152602001601461ffff168152602001600161ffff16815260200160006001600160401b0316815260200163022339d86001600160401b0316815260200142815260200160788152602001600081525060036000600463ffffffff16815260200190815260200160002060008201518160000160006101000a81548160ff02191690831515021790555060208201518160000160016101000a8154816001600160401b0302191690836001600160401b0316021790555060408201518160000160096101000a8154816001600160401b0302191690836001600160401b0316021790555060608201518160000160116101000a81548161ffff021916908361ffff16021790555060808201518160000160136101000a81548161ffff021916908361ffff16021790555060a08201518160000160156101000a8154816001600160401b0302191690836001600160401b0316021790555060c08201518160010160006101000a8154816001600160401b0302191690836001600160401b0316021790555060e08201518160020155610100820151816003015561012082015181600401559050506005600060016101000a81548163ffffffff021916908363ffffffff16021790555062093a80600260006101000a8154816001600160401b0302191690836001600160401b031602179055504260018190555060016000806101000a81548160ff0219169083151502179055506001905090565b6001548156fe50fbe878649db954bd70bc8bf6cddb898a758966802e8d88702697e6f362ec2d66696e616c697365645061796d656e74735b636861696e49645d5b74784964486173685d2e696e646578203e3d206c65646765726e6f7420656e6f7567682074696d6520656c61707365642073696e6365207072696f722066696e616c6974796d73672e73656e6465722069732063757272656e746c792062616e6e656420666f722073656e64696e6720616e20756e616363657074656420636861696e546970486173686c6564676572203e3d20636861696e735b636861696e49645d2e66696e616c697365644c6564676572496e64657870726576696f757320636c61696d20706572696f64206e6f74207965742066696e616c69736564626c6f636b2e74696d657374616d70203c3d20696e697469616c69736554696d65626c6f636b2e74696d657374616d70203c3d20636861696e735b636861696e49645d2e66696e616c6973656454696d657374616d7066696e616c697365644c6564676572496e646578202d2067656e657369734c6564676572203c3d206c6564676572486973746f727953697a65626c6f636b2e74696d657374616d70203c2070726f706f73656450726f6f66735b6d73672e73656e6465725d5b6c6f636174696f6e486173685d2e7065726d697474656452657665616c54696d65636861696e496420646f6573206e6f7420657869737400000000000000000000a2646970667358221220996358964aa6cf4a026d7343cc62b043117eb4a0a8debea961cf5d82f858ef9464736f6c63430007060033",
    "sourcePath": "/home/my-usern/flare/src/stateco/StateConnector.sol",
    "compiler": {
        "name": "solc",
        "version": "0.7.6+commit.7338295f"
    },
    "functionHashes": {
        "chains(uint32)": "8b203dd4",
        "dataAvailPeriodsMined(address,uint256)": "b02bca3c",
        "disprovePaymentFinality(uint32,bytes32,uint64,string)": "7f582432",
        "finalisedDataAvailPeriods(bytes32)": "34cb37c7",
        "finalisedPayments(uint32,bytes32)": "d46117aa",
        "getDataAvailPeriodIndexFinality(uint32,uint64)": "a79ab7f6",
        "getDataAvailPeriodsMined(address,uint256)": "e8b174b4",
        "getLatestIndex(uint32)": "2a2434a2",
        "getPaymentFinality(uint32,bytes32,bytes32,uint64,bytes32)": "71e8d61a",
        "getRewardPeriod()": "adc89032",
        "getTotalDataAvailPeriodsMined(uint256)": "e3fe3fbf",
        "initialiseChains()": "ef4c169e",
        "initialiseTime()": "f9c490ee",
        "initialised()": "07003bb4",
        "numChains()": "d3fb3e9f",
        "proposedProofs(address,bytes32)": "13108e5b",
        "proveDataAvailPeriodFinality(uint32,uint64,bytes32,bytes32)": "0525cb9c",
        "provePaymentFinality(uint32,bytes32,uint64,string)": "388492dd",
        "rewardPeriodTimespan()": "9c531f8c",
        "senderBannedUntil(address)": "22ce7387",
        "totalDataAvailPeriodsMined(uint256)": "4897b35b"
    },
    "gasEstimates": {
        "creation": {
            "codeDepositCost": "2907000",
            "executionCost": "3185",
            "totalCost": "2910185"
        },
        "external": {
            "chains(uint32)": "4795",
            "dataAvailPeriodsMined(address,uint256)": "1361",
            "disprovePaymentFinality(uint32,bytes32,uint64,string)": "infinite",
            "finalisedDataAvailPeriods(bytes32)": "7192",
            "finalisedPayments(uint32,bytes32)": "7300",
            "getDataAvailPeriodIndexFinality(uint32,uint64)": "infinite",
            "getDataAvailPeriodsMined(address,uint256)": "1362",
            "getLatestIndex(uint32)": "infinite",
            "getPaymentFinality(uint32,bytes32,bytes32,uint64,bytes32)": "infinite",
            "getRewardPeriod()": "infinite",
            "getTotalDataAvailPeriodsMined(uint256)": "1211",
            "initialiseChains()": "1043671",
            "initialiseTime()": "1130",
            "initialised()": "1056",
            "numChains()": "1046",
            "proposedProofs(address,bytes32)": "7330",
            "proveDataAvailPeriodFinality(uint32,uint64,bytes32,bytes32)": "infinite",
            "provePaymentFinality(uint32,bytes32,uint64,string)": "infinite",
            "rewardPeriodTimespan()": "1082",
            "senderBannedUntil(address)": "1214",
            "totalDataAvailPeriodsMined(uint256)": "1212"
        }
    }
}