{
    "contractName": "StateConnector",
    "abi": [
        {
            "inputs": [],
            "stateMutability": "nonpayable",
            "type": "constructor"
        },
        {
            "anonymous": false,
            "inputs": [
                {
                    "indexed": false,
                    "internalType": "uint32",
                    "name": "chainId",
                    "type": "uint32"
                },
                {
                    "indexed": false,
                    "internalType": "uint64",
                    "name": "ledger",
                    "type": "uint64"
                },
                {
                    "indexed": false,
                    "internalType": "enum StateConnector.DataAvailabilityPeriodFinalityType",
                    "name": "finType",
                    "type": "uint8"
                },
                {
                    "indexed": false,
                    "internalType": "address",
                    "name": "sender",
                    "type": "address"
                }
            ],
            "name": "DataAvailabilityPeriodFinalityProved",
            "type": "event"
        },
        {
            "anonymous": false,
            "inputs": [
                {
                    "indexed": false,
                    "internalType": "uint32",
                    "name": "chainId",
                    "type": "uint32"
                },
                {
                    "indexed": false,
                    "internalType": "uint64",
                    "name": "ledger",
                    "type": "uint64"
                },
                {
                    "indexed": false,
                    "internalType": "string",
                    "name": "txId",
                    "type": "string"
                },
                {
                    "indexed": false,
                    "internalType": "bytes32",
                    "name": "paymentHash",
                    "type": "bytes32"
                },
                {
                    "indexed": false,
                    "internalType": "address",
                    "name": "sender",
                    "type": "address"
                }
            ],
            "name": "PaymentFinalityDisproved",
            "type": "event"
        },
        {
            "anonymous": false,
            "inputs": [
                {
                    "indexed": false,
                    "internalType": "uint32",
                    "name": "chainId",
                    "type": "uint32"
                },
                {
                    "indexed": false,
                    "internalType": "uint64",
                    "name": "ledger",
                    "type": "uint64"
                },
                {
                    "indexed": false,
                    "internalType": "string",
                    "name": "txId",
                    "type": "string"
                },
                {
                    "indexed": false,
                    "internalType": "bytes32",
                    "name": "paymentHash",
                    "type": "bytes32"
                },
                {
                    "indexed": false,
                    "internalType": "address",
                    "name": "sender",
                    "type": "address"
                }
            ],
            "name": "PaymentFinalityProved",
            "type": "event"
        },
        {
            "inputs": [
                {
                    "internalType": "uint32",
                    "name": "",
                    "type": "uint32"
                }
            ],
            "name": "chains",
            "outputs": [
                {
                    "internalType": "bool",
                    "name": "exists",
                    "type": "bool"
                },
                {
                    "internalType": "uint64",
                    "name": "genesisLedger",
                    "type": "uint64"
                },
                {
                    "internalType": "uint64",
                    "name": "ledgerHistorySize",
                    "type": "uint64"
                },
                {
                    "internalType": "uint16",
                    "name": "dataAvailabilityPeriodLength",
                    "type": "uint16"
                },
                {
                    "internalType": "uint16",
                    "name": "numConfirmations",
                    "type": "uint16"
                },
                {
                    "internalType": "uint64",
                    "name": "finalisedDataAvailabilityPeriodIndex",
                    "type": "uint64"
                },
                {
                    "internalType": "uint64",
                    "name": "finalisedLedgerIndex",
                    "type": "uint64"
                },
                {
                    "internalType": "uint256",
                    "name": "finalisedTimestamp",
                    "type": "uint256"
                },
                {
                    "internalType": "uint256",
                    "name": "timeDiffExpected",
                    "type": "uint256"
                },
                {
                    "internalType": "uint256",
                    "name": "timeDiffAvg",
                    "type": "uint256"
                }
            ],
            "stateMutability": "view",
            "type": "function"
        },
        {
            "inputs": [
                {
                    "internalType": "address",
                    "name": "",
                    "type": "address"
                },
                {
                    "internalType": "uint256",
                    "name": "",
                    "type": "uint256"
                }
            ],
            "name": "dataAvailabilityPeriodsMined",
            "outputs": [
                {
                    "internalType": "uint64",
                    "name": "",
                    "type": "uint64"
                }
            ],
            "stateMutability": "view",
            "type": "function"
        },
        {
            "inputs": [
                {
                    "internalType": "uint32",
                    "name": "chainId",
                    "type": "uint32"
                },
                {
                    "internalType": "bytes32",
                    "name": "paymentHash",
                    "type": "bytes32"
                },
                {
                    "internalType": "uint64",
                    "name": "ledger",
                    "type": "uint64"
                },
                {
                    "internalType": "string",
                    "name": "txId",
                    "type": "string"
                }
            ],
            "name": "disprovePaymentFinality",
            "outputs": [
                {
                    "internalType": "uint32",
                    "name": "_chainId",
                    "type": "uint32"
                },
                {
                    "internalType": "uint64",
                    "name": "_ledger",
                    "type": "uint64"
                },
                {
                    "internalType": "uint64",
                    "name": "_finalisedLedgerIndex",
                    "type": "uint64"
                },
                {
                    "internalType": "bytes32",
                    "name": "_paymentHash",
                    "type": "bytes32"
                },
                {
                    "internalType": "string",
                    "name": "_txId",
                    "type": "string"
                }
            ],
            "stateMutability": "nonpayable",
            "type": "function"
        },
        {
            "inputs": [
                {
                    "internalType": "bytes32",
                    "name": "",
                    "type": "bytes32"
                }
            ],
            "name": "finalisedDataAvailabilityPeriods",
            "outputs": [
                {
                    "internalType": "bool",
                    "name": "exists",
                    "type": "bool"
                },
                {
                    "internalType": "bytes32",
                    "name": "dataAvailabilityPeriodHash",
                    "type": "bytes32"
                },
                {
                    "internalType": "bytes32",
                    "name": "commitHash",
                    "type": "bytes32"
                },
                {
                    "internalType": "uint256",
                    "name": "commitTime",
                    "type": "uint256"
                },
                {
                    "internalType": "uint256",
                    "name": "permittedRevealTime",
                    "type": "uint256"
                },
                {
                    "internalType": "bytes32",
                    "name": "revealHash",
                    "type": "bytes32"
                },
                {
                    "internalType": "uint64",
                    "name": "index",
                    "type": "uint64"
                },
                {
                    "internalType": "uint64",
                    "name": "indexSearchRegion",
                    "type": "uint64"
                },
                {
                    "internalType": "bool",
                    "name": "proven",
                    "type": "bool"
                },
                {
                    "internalType": "address",
                    "name": "provenBy",
                    "type": "address"
                }
            ],
            "stateMutability": "view",
            "type": "function"
        },
        {
            "inputs": [
                {
                    "internalType": "bytes32",
                    "name": "",
                    "type": "bytes32"
                }
            ],
            "name": "finalisedPayments",
            "outputs": [
                {
                    "internalType": "bool",
                    "name": "exists",
                    "type": "bool"
                },
                {
                    "internalType": "bytes32",
                    "name": "dataAvailabilityPeriodHash",
                    "type": "bytes32"
                },
                {
                    "internalType": "bytes32",
                    "name": "commitHash",
                    "type": "bytes32"
                },
                {
                    "internalType": "uint256",
                    "name": "commitTime",
                    "type": "uint256"
                },
                {
                    "internalType": "uint256",
                    "name": "permittedRevealTime",
                    "type": "uint256"
                },
                {
                    "internalType": "bytes32",
                    "name": "revealHash",
                    "type": "bytes32"
                },
                {
                    "internalType": "uint64",
                    "name": "index",
                    "type": "uint64"
                },
                {
                    "internalType": "uint64",
                    "name": "indexSearchRegion",
                    "type": "uint64"
                },
                {
                    "internalType": "bool",
                    "name": "proven",
                    "type": "bool"
                },
                {
                    "internalType": "address",
                    "name": "provenBy",
                    "type": "address"
                }
            ],
            "stateMutability": "view",
            "type": "function"
        },
        {
            "inputs": [
                {
                    "internalType": "uint32",
                    "name": "chainId",
                    "type": "uint32"
                },
                {
                    "internalType": "uint64",
                    "name": "dataAvailabilityPeriodIndex",
                    "type": "uint64"
                }
            ],
            "name": "getDataAvailabilityPeriodIndexFinality",
            "outputs": [
                {
                    "internalType": "bool",
                    "name": "finality",
                    "type": "bool"
                }
            ],
            "stateMutability": "view",
            "type": "function"
        },
        {
            "inputs": [
                {
                    "internalType": "address",
                    "name": "miner",
                    "type": "address"
                },
                {
                    "internalType": "uint256",
                    "name": "rewardSchedule",
                    "type": "uint256"
                }
            ],
            "name": "getDataAvailabilityPeriodsMined",
            "outputs": [
                {
                    "internalType": "uint64",
                    "name": "numMined",
                    "type": "uint64"
                }
            ],
            "stateMutability": "view",
            "type": "function"
        },
        {
            "inputs": [
                {
                    "internalType": "uint32",
                    "name": "chainId",
                    "type": "uint32"
                }
            ],
            "name": "getLatestIndex",
            "outputs": [
                {
                    "internalType": "uint64",
                    "name": "genesisLedger",
                    "type": "uint64"
                },
                {
                    "internalType": "uint64",
                    "name": "finalisedDataAvailabilityPeriodIndex",
                    "type": "uint64"
                },
                {
                    "internalType": "uint16",
                    "name": "dataAvailabilityPeriodLength",
                    "type": "uint16"
                },
                {
                    "internalType": "uint64",
                    "name": "finalisedLedgerIndex",
                    "type": "uint64"
                },
                {
                    "internalType": "uint256",
                    "name": "finalisedTimestamp",
                    "type": "uint256"
                },
                {
                    "internalType": "uint256",
                    "name": "timeDiffAvg",
                    "type": "uint256"
                }
            ],
            "stateMutability": "view",
            "type": "function"
        },
        {
            "inputs": [
                {
                    "internalType": "uint32",
                    "name": "chainId",
                    "type": "uint32"
                },
                {
                    "internalType": "bytes32",
                    "name": "txId",
                    "type": "bytes32"
                },
                {
                    "internalType": "bytes32",
                    "name": "destinationHash",
                    "type": "bytes32"
                },
                {
                    "internalType": "uint64",
                    "name": "amount",
                    "type": "uint64"
                },
                {
                    "internalType": "bytes32",
                    "name": "currencyHash",
                    "type": "bytes32"
                }
            ],
            "name": "getPaymentFinality",
            "outputs": [
                {
                    "internalType": "uint64",
                    "name": "ledger",
                    "type": "uint64"
                },
                {
                    "internalType": "uint64",
                    "name": "indexSearchRegion",
                    "type": "uint64"
                },
                {
                    "internalType": "bool",
                    "name": "finality",
                    "type": "bool"
                }
            ],
            "stateMutability": "view",
            "type": "function"
        },
        {
            "inputs": [],
            "name": "getRewardPeriod",
            "outputs": [
                {
                    "internalType": "uint256",
                    "name": "rewardSchedule",
                    "type": "uint256"
                }
            ],
            "stateMutability": "view",
            "type": "function"
        },
        {
            "inputs": [
                {
                    "internalType": "uint256",
                    "name": "rewardSchedule",
                    "type": "uint256"
                }
            ],
            "name": "getTotalDataAvailabilityPeriodsMined",
            "outputs": [
                {
                    "internalType": "uint64",
                    "name": "numMined",
                    "type": "uint64"
                }
            ],
            "stateMutability": "view",
            "type": "function"
        },
        {
            "inputs": [],
            "name": "initialiseChains",
            "outputs": [
                {
                    "internalType": "bool",
                    "name": "success",
                    "type": "bool"
                }
            ],
            "stateMutability": "nonpayable",
            "type": "function"
        },
        {
            "inputs": [],
            "name": "initialiseTime",
            "outputs": [
                {
                    "internalType": "uint256",
                    "name": "",
                    "type": "uint256"
                }
            ],
            "stateMutability": "view",
            "type": "function"
        },
        {
            "inputs": [],
            "name": "initialised",
            "outputs": [
                {
                    "internalType": "bool",
                    "name": "",
                    "type": "bool"
                }
            ],
            "stateMutability": "view",
            "type": "function"
        },
        {
            "inputs": [],
            "name": "numChains",
            "outputs": [
                {
                    "internalType": "uint32",
                    "name": "",
                    "type": "uint32"
                }
            ],
            "stateMutability": "view",
            "type": "function"
        },
        {
            "inputs": [],
            "name": "paymentCommitDelay",
            "outputs": [
                {
                    "internalType": "uint64",
                    "name": "",
                    "type": "uint64"
                }
            ],
            "stateMutability": "view",
            "type": "function"
        },
        {
            "inputs": [
                {
                    "internalType": "address",
                    "name": "",
                    "type": "address"
                },
                {
                    "internalType": "bytes32",
                    "name": "",
                    "type": "bytes32"
                }
            ],
            "name": "proposedDataAvailabilityProofs",
            "outputs": [
                {
                    "internalType": "bool",
                    "name": "exists",
                    "type": "bool"
                },
                {
                    "internalType": "bytes32",
                    "name": "dataAvailabilityPeriodHash",
                    "type": "bytes32"
                },
                {
                    "internalType": "bytes32",
                    "name": "commitHash",
                    "type": "bytes32"
                },
                {
                    "internalType": "uint256",
                    "name": "commitTime",
                    "type": "uint256"
                },
                {
                    "internalType": "uint256",
                    "name": "permittedRevealTime",
                    "type": "uint256"
                },
                {
                    "internalType": "bytes32",
                    "name": "revealHash",
                    "type": "bytes32"
                },
                {
                    "internalType": "uint64",
                    "name": "index",
                    "type": "uint64"
                },
                {
                    "internalType": "uint64",
                    "name": "indexSearchRegion",
                    "type": "uint64"
                },
                {
                    "internalType": "bool",
                    "name": "proven",
                    "type": "bool"
                },
                {
                    "internalType": "address",
                    "name": "provenBy",
                    "type": "address"
                }
            ],
            "stateMutability": "view",
            "type": "function"
        },
        {
            "inputs": [
                {
                    "internalType": "bytes32",
                    "name": "",
                    "type": "bytes32"
                },
                {
                    "internalType": "uint64",
                    "name": "",
                    "type": "uint64"
                }
            ],
            "name": "proposedNonPaymentProofs",
            "outputs": [
                {
                    "internalType": "bool",
                    "name": "exists",
                    "type": "bool"
                },
                {
                    "internalType": "bytes32",
                    "name": "dataAvailabilityPeriodHash",
                    "type": "bytes32"
                },
                {
                    "internalType": "bytes32",
                    "name": "commitHash",
                    "type": "bytes32"
                },
                {
                    "internalType": "uint256",
                    "name": "commitTime",
                    "type": "uint256"
                },
                {
                    "internalType": "uint256",
                    "name": "permittedRevealTime",
                    "type": "uint256"
                },
                {
                    "internalType": "bytes32",
                    "name": "revealHash",
                    "type": "bytes32"
                },
                {
                    "internalType": "uint64",
                    "name": "index",
                    "type": "uint64"
                },
                {
                    "internalType": "uint64",
                    "name": "indexSearchRegion",
                    "type": "uint64"
                },
                {
                    "internalType": "bool",
                    "name": "proven",
                    "type": "bool"
                },
                {
                    "internalType": "address",
                    "name": "provenBy",
                    "type": "address"
                }
            ],
            "stateMutability": "view",
            "type": "function"
        },
        {
            "inputs": [
                {
                    "internalType": "bytes32",
                    "name": "",
                    "type": "bytes32"
                },
                {
                    "internalType": "uint64",
                    "name": "",
                    "type": "uint64"
                }
            ],
            "name": "proposedPaymentProofs",
            "outputs": [
                {
                    "internalType": "bool",
                    "name": "exists",
                    "type": "bool"
                },
                {
                    "internalType": "bytes32",
                    "name": "dataAvailabilityPeriodHash",
                    "type": "bytes32"
                },
                {
                    "internalType": "bytes32",
                    "name": "commitHash",
                    "type": "bytes32"
                },
                {
                    "internalType": "uint256",
                    "name": "commitTime",
                    "type": "uint256"
                },
                {
                    "internalType": "uint256",
                    "name": "permittedRevealTime",
                    "type": "uint256"
                },
                {
                    "internalType": "bytes32",
                    "name": "revealHash",
                    "type": "bytes32"
                },
                {
                    "internalType": "uint64",
                    "name": "index",
                    "type": "uint64"
                },
                {
                    "internalType": "uint64",
                    "name": "indexSearchRegion",
                    "type": "uint64"
                },
                {
                    "internalType": "bool",
                    "name": "proven",
                    "type": "bool"
                },
                {
                    "internalType": "address",
                    "name": "provenBy",
                    "type": "address"
                }
            ],
            "stateMutability": "view",
            "type": "function"
        },
        {
            "inputs": [
                {
                    "internalType": "uint32",
                    "name": "chainId",
                    "type": "uint32"
                },
                {
                    "internalType": "uint64",
                    "name": "ledger",
                    "type": "uint64"
                },
                {
                    "internalType": "bytes32",
                    "name": "dataAvailabilityPeriodHash",
                    "type": "bytes32"
                },
                {
                    "internalType": "bytes32",
                    "name": "chainTipHash",
                    "type": "bytes32"
                }
            ],
            "name": "proveDataAvailabilityPeriodFinality",
            "outputs": [
                {
                    "internalType": "uint32",
                    "name": "_chainId",
                    "type": "uint32"
                },
                {
                    "internalType": "uint64",
                    "name": "_ledger",
                    "type": "uint64"
                },
                {
                    "internalType": "uint16",
                    "name": "_numConfirmations",
                    "type": "uint16"
                },
                {
                    "internalType": "bytes32",
                    "name": "_dataAvailabilityPeriodHash",
                    "type": "bytes32"
                }
            ],
            "stateMutability": "nonpayable",
            "type": "function"
        },
        {
            "inputs": [
                {
                    "internalType": "uint32",
                    "name": "chainId",
                    "type": "uint32"
                },
                {
                    "internalType": "bytes32",
                    "name": "paymentHash",
                    "type": "bytes32"
                },
                {
                    "internalType": "uint64",
                    "name": "ledger",
                    "type": "uint64"
                },
                {
                    "internalType": "string",
                    "name": "txId",
                    "type": "string"
                }
            ],
            "name": "provePaymentFinality",
            "outputs": [
                {
                    "internalType": "uint32",
                    "name": "_chainId",
                    "type": "uint32"
                },
                {
                    "internalType": "uint64",
                    "name": "_ledger",
                    "type": "uint64"
                },
                {
                    "internalType": "uint64",
                    "name": "_finalisedLedgerIndex",
                    "type": "uint64"
                },
                {
                    "internalType": "bytes32",
                    "name": "_paymentHash",
                    "type": "bytes32"
                },
                {
                    "internalType": "string",
                    "name": "_txId",
                    "type": "string"
                }
            ],
            "stateMutability": "nonpayable",
            "type": "function"
        },
        {
            "inputs": [],
            "name": "revealTimespan",
            "outputs": [
                {
                    "internalType": "uint64",
                    "name": "",
                    "type": "uint64"
                }
            ],
            "stateMutability": "view",
            "type": "function"
        },
        {
            "inputs": [],
            "name": "rewardPeriodTimespan",
            "outputs": [
                {
                    "internalType": "uint64",
                    "name": "",
                    "type": "uint64"
                }
            ],
            "stateMutability": "view",
            "type": "function"
        },
        {
            "inputs": [
                {
                    "internalType": "address",
                    "name": "",
                    "type": "address"
                }
            ],
            "name": "senderBannedUntil",
            "outputs": [
                {
                    "internalType": "uint256",
                    "name": "",
                    "type": "uint256"
                }
            ],
            "stateMutability": "view",
            "type": "function"
        },
        {
            "inputs": [
                {
                    "internalType": "uint256",
                    "name": "",
                    "type": "uint256"
                }
            ],
            "name": "totalDataAvailabilityPeriodsMined",
            "outputs": [
                {
                    "internalType": "uint64",
                    "name": "",
                    "type": "uint64"
                }
            ],
            "stateMutability": "view",
            "type": "function"
        }
    ],
    "bytecode": "608060405234801561001057600080fd5b50614567806100206000396000f3fe608060405234801561001057600080fd5b50600436106101735760003560e01c80637ec93e9f116100de578063cbdd188211610097578063dccb2d3211610071578063dccb2d32146107f2578063ee2d87371461081e578063ef4c169e1461083b578063f9c490ee1461084357610173565b8063cbdd1882146107ac578063d3b92926146107b4578063d3fb3e9f146107d157610173565b80637ec93e9f146105a85780637f582432146105d45780638b203dd41461069c5780639c531f8c14610726578063adc890321461072e578063c5d64cd11461073657610173565b8063464c6e9311610130578063464c6e931461043557806347453f371461043d5780634bdc9c8f1461045a57806355d14c15146104e057806371e8d61a1461050c57806379fd4e1a1461057c57610173565b806307003bb41461017857806322ce7387146101945780632a2434a2146101cc5780632bec6f8714610247578063388492dd1461028f5780633f57987d14610403575b600080fd5b61018061084b565b604080519115158252519081900360200190f35b6101ba600480360360208110156101aa57600080fd5b50356001600160a01b0316610854565b60408051918252519081900360200190f35b6101ef600480360360208110156101e257600080fd5b503563ffffffff16610866565b60405180876001600160401b03168152602001866001600160401b031681526020018561ffff168152602001846001600160401b03168152602001838152602001828152602001965050505050505060405180910390f35b6102736004803603604081101561025d57600080fd5b506001600160a01b038135169060200135610a96565b604080516001600160401b039092168252519081900360200190f35b610357600480360360808110156102a557600080fd5b63ffffffff823516916020810135916001600160401b0360408301351691908101906080810160608201356401000000008111156102e257600080fd5b8201836020820111156102f457600080fd5b8035906020019184600183028401116401000000008311171561031657600080fd5b91908080601f016020809104026020016040519081016040528093929190818152602001838380828437600092019190915250929550610abc945050505050565b604051808663ffffffff168152602001856001600160401b03168152602001846001600160401b0316815260200183815260200180602001828103825283818151815260200191508051906020019080838360005b838110156103c45781810151838201526020016103ac565b50505050905090810190601f1680156103f15780820380516001836020036101000a031916815260200191505b50965050505050505060405180910390f35b6101806004803603604081101561041957600080fd5b50803563ffffffff1690602001356001600160401b0316611501565b6102736115fd565b6102736004803603602081101561045357600080fd5b503561160c565b6104776004803603602081101561047057600080fd5b503561166a565b604080519a15158b5260208b0199909952898901979097526060890195909552608088019390935260a08701919091526001600160401b0390811660c08701521660e085015215156101008401526001600160a01b031661012083015251908190036101400190f35b610477600480360360408110156104f657600080fd5b50803590602001356001600160401b03166116de565b610550600480360360a081101561052257600080fd5b5063ffffffff813516906020810135906040810135906001600160401b03606082013516906080013561175b565b604080516001600160401b03948516815292909316602083015215158183015290519081900360600190f35b6104776004803603604081101561059257600080fd5b50803590602001356001600160401b031661198e565b610477600480360360408110156105be57600080fd5b506001600160a01b038135169060200135611a0b565b610357600480360360808110156105ea57600080fd5b63ffffffff823516916020810135916001600160401b03604083013516919081019060808101606082013564010000000081111561062757600080fd5b82018360208201111561063957600080fd5b8035906020019184600183028401116401000000008311171561065b57600080fd5b91908080601f016020809104026020016040519081016040528093929190818152602001838380828437600092019190915250929550611a86945050505050565b6106bf600480360360208110156106b257600080fd5b503563ffffffff166124d2565b604080519a15158b526001600160401b03998a1660208c01529789168a89015261ffff96871660608b015294909516608089015291861660a088015290941660c086015260e085019390935261010084015261012083019190915251908190036101400190f35b610273612543565b6101ba612559565b6107746004803603608081101561074c57600080fd5b5063ffffffff813516906001600160401b036020820135169060408101359060600135612602565b6040805163ffffffff90951685526001600160401b03909316602085015261ffff909116838301526060830152519081900360800190f35b610273613819565b610273600480360360208110156107ca57600080fd5b503561382f565b6107d961384a565b6040805163ffffffff9092168252519081900360200190f35b6102736004803603604081101561080857600080fd5b506001600160a01b03813516906020013561385b565b6104776004803603602081101561083457600080fd5b50356138cf565b610180613942565b6101ba6141ba565b60005460ff1681565b600b6020526000908152604090205481565b600080548190819081908190819060ff166108b25760405162461bcd60e51b815260040180806020018281038252603a815260200180614428603a913960400191505060405180910390fd5b63ffffffff8716600090815260036020526040902054879060ff1661090c576040805162461bcd60e51b815260206004820152601660248201526000805160206144f1833981519152604482015290519081900360640190fd5b600360008963ffffffff1663ffffffff168152602001908152602001600020600201549250600360008963ffffffff1663ffffffff168152602001908152602001600020600401549150600088600360008b63ffffffff1663ffffffff16815260200190815260200160002060000160159054906101000a90046001600160401b0316604051602001808363ffffffff1660e01b8152600401826001600160401b031660c01b81526008019250505060405160208183030381529060405280519060200120905060046000336001600160a01b03166001600160a01b03168152602001908152602001600020600082815260200190815260200160002060000160009054906101000a900460ff1615610a41573360009081526004602081815260408084208585529091528220015490945092505b505063ffffffff969096166000908152600360205260409020805460019091015461010082046001600160401b0390811699600160a81b8404821699600160881b90940461ffff169850911695509193509150565b60096020908152600092835260408084209091529082529020546001600160401b031681565b6000805481908190819060609060ff16610b075760405162461bcd60e51b815260040180806020018281038252603a815260200180614428603a913960400191505060405180910390fd5b63ffffffff8916600090815260036020526040902054899060ff16610b61576040805162461bcd60e51b815260206004820152601660248201526000805160206144f1833981519152604482015290519081900360640190fd5b88610ba8576040805162461bcd60e51b815260206004820152601260248201527107061796d656e7448617368203d3d203078360741b604482015290519081900360640190fd5b63ffffffff8a166000908152600360205260409020600101546001600160401b0316610c055760405162461bcd60e51b81526004018080602001828103825260298152602001806143aa6029913960400191505060405180910390fd5b41331480610c16575041600160981b145b610c67576040805162461bcd60e51b815260206004820152601c60248201527f696e76616c696420626c6f636b2e636f696e626173652076616c756500000000604482015290519081900360640190fd5b6040805160e08c901b6001600160e01b03191660208083019190915260248083018d905283518084039091018152604490920183528151918101919091206000818152600890925291902060060154600160801b900460ff1615610d0b576040805162461bcd60e51b81526020600482015260166024820152753830bcb6b2b73a1030b63932b0b23c90383937bb32b760511b604482015290519081900360640190fd5b63ffffffff8b166000908152600360205260409020600101546001600160401b03908116908a1610610d6e5760405162461bcd60e51b815260040180806020018281038252602e81526020018061437c602e913960400191505060405180910390fd5b63ffffffff8b166000908152600360205260409020546001600160401b036101008204811691600160481b90041615610e4f5763ffffffff8c16600090815260036020526040902080546001909101546001600160401b03600160481b830481166101009093048116918116919091031611610e1b5760405162461bcd60e51b81526004018080602001828103825260398152602001806144b86039913960400191505060405180910390fd5b5063ffffffff8b16600090815260036020526040902080546001909101546001600160401b03600160481b90920482169116035b806001600160401b03168a6001600160401b03161015610eb6576040805162461bcd60e51b815260206004820152601a60248201527f6c6564676572203c20696e646578536561726368526567696f6e000000000000604482015290519081900360640190fd5b60008281526006602090815260408083206001600160401b038e16845290915281205460ff161561105b5760008381526006602090815260408083206001600160401b038f168452909152902060040154421015610f455760405162461bcd60e51b815260040180806020018281038252604981526020018061429f6049913960600191505060405180910390fd5b60008381526006602090815260408083206001600160401b038f1684529091529020600501548c14610fb4576040805162461bcd60e51b81526020600482015260136024820152720d2dcecc2d8d2c840e0c2f2dacadce890c2e6d606b1b604482015290519081900360640190fd5b42600260089054906101000a90046001600160401b03166001600160401b03166006600086815260200190815260200160002060008e6001600160401b03166001600160401b03168152602001908152602001600020600301540111611056576040805162461bcd60e51b815260206004820152601260248201527172657665616c20697320746f6f206c61746560701b604482015290519081900360640190fd5b611097565b41331480159061106e575041600160981b145b15611097575063ffffffff8c166000908152600360205260409020600101546001600160401b03165b41331480156110aa575041600160981b14155b156114f05760008381526006602090815260408083206001600160401b038f16845290915290205460ff1661129f576040518061014001604052806001151581526020016000801b81526020016000801b8152602001428152602001600260009054906101000a90046001600160401b03166001600160401b0316420181526020018d81526020018c6001600160401b03168152602001836001600160401b03168152602001600015158152602001336001600160a01b03168152506006600085815260200190815260200160002060008d6001600160401b03166001600160401b0316815260200190815260200160002060008201518160000160006101000a81548160ff0219169083151502179055506020820151816001015560408201518160020155606082015181600301556080820151816004015560a0820151816005015560c08201518160060160006101000a8154816001600160401b0302191690836001600160401b0316021790555060e08201518160060160086101000a8154816001600160401b0302191690836001600160401b031602179055506101008201518160060160106101000a81548160ff0219169083151502179055506101208201518160070160006101000a8154816001600160a01b0302191690836001600160a01b031602179055509050506114f0565b6040518061014001604052806001151581526020016000801b81526020016000801b8152602001600081526020014281526020018d81526020018c6001600160401b03168152602001836001600160401b03168152602001600115158152602001336001600160a01b03168152506008600085815260200190815260200160002060008201518160000160006101000a81548160ff0219169083151502179055506020820151816001015560408201518160020155606082015181600301556080820151816004015560a0820151816005015560c08201518160060160006101000a8154816001600160401b0302191690836001600160401b0316021790555060e08201518160060160086101000a8154816001600160401b0302191690836001600160401b031602179055506101008201518160060160106101000a81548160ff0219169083151502179055506101208201518160070160006101000a8154816001600160a01b0302191690836001600160a01b031602179055509050507ff794f5b9b6791b3ab0eb97342cf2efbb7e710a478d4512a2505ea60c93fd85d38d8c8c8f33604051808663ffffffff168152602001856001600160401b0316815260200180602001848152602001836001600160a01b03168152602001828103825285818151815260200191508051906020019080838360005b838110156114b1578181015183820152602001611499565b50505050905090810190601f1680156114de5780820380516001836020036101000a031916815260200191505b50965050505050505060405180910390a15b9b9c999b9a99975050505050505050565b6000805460ff166115435760405162461bcd60e51b815260040180806020018281038252603a815260200180614428603a913960400191505060405180910390fd5b63ffffffff8316600090815260036020526040902054839060ff1661159d576040805162461bcd60e51b815260206004820152601660248201526000805160206144f1833981519152604482015290519081900360640190fd5b50506040805160e09390931b6001600160e01b03191660208085019190915260c09290921b6001600160c01b03191660248401528051808403600c018152602c909301815282519282019290922060009081526005909152205460ff1690565b6002546001600160401b031681565b6000805460ff1661164e5760405162461bcd60e51b815260040180806020018281038252603a815260200180614428603a913960400191505060405180910390fd5b506000908152600a60205260409020546001600160401b031690565b60056020819052600091825260409091208054600182015460028301546003840154600485015495850154600686015460079096015460ff958616979496939592949391926001600160401b0380841693600160401b810490911692600160801b909104909116906001600160a01b03168a565b600660208181526000938452604080852090915291835291208054600182015460028301546003840154600485015460058601549686015460079096015460ff95861697949693959294919391926001600160401b0380841693600160401b810490911692600160801b909104909116906001600160a01b03168a565b600080548190819060ff166117a15760405162461bcd60e51b815260040180806020018281038252603a815260200180614428603a913960400191505060405180910390fd5b63ffffffff8816600090815260036020526040902054889060ff166117fb576040805162461bcd60e51b815260206004820152601660248201526000805160206144f1833981519152604482015290519081900360640190fd5b604080516001600160401b0388166020808301919091528251808303820181528284018452805190820120606083018c9052608083018b905260a083015260c08083018990528351808403909101815260e08084018552815191830191909120908d901b6001600160e01b031916610100840152610104808401829052845180850390910181526101249093018452825192820192909220600081815260089092529290205490919060ff166118f1576040805162461bcd60e51b81526020600482015260166024820152751c185e5b595b9d08191bd95cc81b9bdd08195e1a5cdd60521b604482015290519081900360640190fd5b600081815260086020526040902060050154821461194c576040805162461bcd60e51b81526020600482015260136024820152720d2dcecc2d8d2c840e0c2f2dacadce890c2e6d606b1b604482015290519081900360640190fd5b6000908152600860205260409020600601546001600160401b038082169c600160401b83049091169b50600160801b90910460ff169950975050505050505050565b600760208181526000938452604080852090915291835291208054600182015460028301546003840154600485015460058601546006870154969097015460ff95861697949693959294919391926001600160401b0380841693600160401b810490911692600160801b909104909116906001600160a01b03168a565b600460208181526000938452604080852090915291835291208054600182015460028301546003840154948401546005850154600686015460079096015460ff9586169794969395929391926001600160401b0380841693600160401b810490911692600160801b909104909116906001600160a01b03168a565b6000805481908190819060609060ff16611ad15760405162461bcd60e51b815260040180806020018281038252603a815260200180614428603a913960400191505060405180910390fd5b63ffffffff8916600090815260036020526040902054899060ff16611b2b576040805162461bcd60e51b815260206004820152601660248201526000805160206144f1833981519152604482015290519081900360640190fd5b88611b72576040805162461bcd60e51b815260206004820152601260248201527107061796d656e7448617368203d3d203078360741b604482015290519081900360640190fd5b63ffffffff8a166000908152600360205260409020600101546001600160401b0316611bcf5760405162461bcd60e51b81526004018080602001828103825260298152602001806143aa6029913960400191505060405180910390fd5b41331480611be0575041600160981b145b611c31576040805162461bcd60e51b815260206004820152601c60248201527f696e76616c696420626c6f636b2e636f696e626173652076616c756500000000604482015290519081900360640190fd5b6040805160e08c901b6001600160e01b03191660208083019190915260248083018d905283518084039091018152604490920183528151918101919091206000818152600890925291902060060154600160801b900460ff1615611cd2576040805162461bcd60e51b81526020600482015260136024820152723a3c24b21030b63932b0b23c90383937bb32b760691b604482015290519081900360640190fd5b6000818152600860205260409020600601546001600160401b03808b16911610611d2d5760405162461bcd60e51b815260040180806020018281038252602f8152602001806142e8602f913960400191505060405180910390fd5b63ffffffff8b166000908152600360205260409020600101546001600160401b03908116908a1610611d905760405162461bcd60e51b815260040180806020018281038252602e81526020018061437c602e913960400191505060405180910390fd5b63ffffffff8b166000908152600360205260409020546001600160401b036101008204811691600160481b90041615611e715763ffffffff8c16600090815260036020526040902080546001909101546001600160401b03600160481b830481166101009093048116918116919091031611611e3d5760405162461bcd60e51b81526004018080602001828103825260398152602001806144b86039913960400191505060405180910390fd5b5063ffffffff8b16600090815260036020526040902080546001909101546001600160401b03600160481b90920482169116035b806001600160401b03168a6001600160401b03161015611ed8576040805162461bcd60e51b815260206004820152601a60248201527f6c6564676572203c20696e646578536561726368526567696f6e000000000000604482015290519081900360640190fd5b60008281526007602090815260408083206001600160401b038e16845290915281205460ff161561207d5760008381526007602090815260408083206001600160401b038f168452909152902060040154421015611f675760405162461bcd60e51b81526004018080602001828103825260548152602001806141c16054913960600191505060405180910390fd5b60008381526007602090815260408083206001600160401b038f1684529091529020600501548c14611fd6576040805162461bcd60e51b81526020600482015260136024820152720d2dcecc2d8d2c840e0c2f2dacadce890c2e6d606b1b604482015290519081900360640190fd5b42600260089054906101000a90046001600160401b03166001600160401b03166007600086815260200190815260200160002060008e6001600160401b03166001600160401b03168152602001908152602001600020600301540111612078576040805162461bcd60e51b815260206004820152601260248201527172657665616c20697320746f6f206c61746560701b604482015290519081900360640190fd5b6120b9565b413314801590612090575041600160981b145b156120b9575063ffffffff8c166000908152600360205260409020600101546001600160401b03165b41331480156120cc575041600160981b14155b156114f05760008381526007602090815260408083206001600160401b038f16845290915290205460ff166122c1576040518061014001604052806001151581526020016000801b81526020016000801b8152602001428152602001600260009054906101000a90046001600160401b03166001600160401b0316420181526020018d81526020018c6001600160401b03168152602001836001600160401b03168152602001600015158152602001336001600160a01b03168152506007600085815260200190815260200160002060008d6001600160401b03166001600160401b0316815260200190815260200160002060008201518160000160006101000a81548160ff0219169083151502179055506020820151816001015560408201518160020155606082015181600301556080820151816004015560a0820151816005015560c08201518160060160006101000a8154816001600160401b0302191690836001600160401b0316021790555060e08201518160060160086101000a8154816001600160401b0302191690836001600160401b031602179055506101008201518160060160106101000a81548160ff0219169083151502179055506101208201518160070160006101000a8154816001600160a01b0302191690836001600160a01b031602179055509050506114f0565b6040518061014001604052806001151581526020016000801b81526020016000801b8152602001600081526020014281526020018d81526020018c6001600160401b03168152602001836001600160401b03168152602001600015158152602001336001600160a01b03168152506008600085815260200190815260200160002060008201518160000160006101000a81548160ff0219169083151502179055506020820151816001015560408201518160020155606082015181600301556080820151816004015560a0820151816005015560c08201518160060160006101000a8154816001600160401b0302191690836001600160401b0316021790555060e08201518160060160086101000a8154816001600160401b0302191690836001600160401b031602179055506101008201518160060160106101000a81548160ff0219169083151502179055506101208201518160070160006101000a8154816001600160a01b0302191690836001600160a01b031602179055509050507ff794f5b9b6791b3ab0eb97342cf2efbb7e710a478d4512a2505ea60c93fd85d38d8c8c8f33604051808663ffffffff168152602001856001600160401b0316815260200180602001848152602001836001600160a01b0316815260200182810382528581815181526020019150805190602001908083836000838110156114b1578181015183820152602001611499565b60036020819052600091825260409091208054600182015460028301549383015460049093015460ff8316946001600160401b036101008504811695600160481b860482169561ffff600160881b8204811696600160981b830490911695600160a81b90920484169493169291908a565b600254600160801b90046001600160401b031681565b6000805460ff1661259b5760405162461bcd60e51b815260040180806020018281038252603a815260200180614428603a913960400191505060405180910390fd5b60015442116125db5760405162461bcd60e51b81526004018080602001828103825260218152602001806144626021913960400191505060405180910390fd5b600254600154600160801b9091046001600160401b0316904203816125fc57fe5b04905090565b6000805481908190819060ff1661264a5760405162461bcd60e51b815260040180806020018281038252603a815260200180614428603a913960400191505060405180910390fd5b63ffffffff8816600090815260036020526040902054889060ff166126a4576040805162461bcd60e51b815260206004820152601660248201526000805160206144f1833981519152604482015290519081900360640190fd5b336000908152600b602052604090205442116126f15760405162461bcd60e51b81526004018080602001828103825260458152602001806143176045913960600191505060405180910390fd5b8661272d5760405162461bcd60e51b81526004018080602001828103825260218152602001806145116021913960400191505060405180910390fd5b85612775576040805162461bcd60e51b81526020600482015260136024820152720636861696e54697048617368203d3d2030783606c1b604482015290519081900360640190fd5b63ffffffff8916600090815260036020526040902054600160981b900461ffff166127d15760405162461bcd60e51b81526004018080602001828103825260248152602001806144046024913960400191505060405180910390fd5b413314806127e2575041600160981b145b612833576040805162461bcd60e51b815260206004820152601c60248201527f696e76616c696420626c6f636b2e636f696e626173652076616c756500000000604482015290519081900360640190fd5b63ffffffff891660009081526003602052604090208054600190910154600160881b90910461ffff166001600160401b03918216018116908916146128b0576040805162461bcd60e51b815260206004820152600e60248201526d34b73b30b634b2103632b233b2b960911b604482015290519081900360640190fd5b63ffffffff891660009081526003602052604090206002015442116129065760405162461bcd60e51b81526004018080602001828103825260358152602001806144836035913960400191505060405180910390fd5b63ffffffff891660009081526003602081905260409091209081015460049091015460020210156129a05763ffffffff89166000908152600360208190526040909120600481015460029182015491024291909103909102101561299b5760405162461bcd60e51b815260040180806020018281038252602c815260200180614273602c913960400191505060405180910390fd5b612a02565b63ffffffff8916600090815260036020526040902060048101546002909101544203600f011015612a025760405162461bcd60e51b815260040180806020018281038252602c815260200180614273602c913960400191505060405180910390fd5b63ffffffff8916600090815260036020908152604080832054815160e08e901b6001600160e01b03191681850152600160a81b90910460c01b6001600160c01b03191660248201528151808203600c018152602c9091018252805190830120808452600590925290912060060154600160801b900460ff1615612acc576040805162461bcd60e51b815260206004820152601e60248201527f6c6f636174696f6e4861736820616c72656164792066696e616c697365640000604482015290519081900360640190fd5b63ffffffff8a16600090815260036020526040902054600160a81b90046001600160401b031615612bd85760008a6001600360008e63ffffffff1663ffffffff16815260200190815260200160002060000160159054906101000a90046001600160401b031603604051602001808363ffffffff1660e01b8152600401826001600160401b031660c01b8152600801925050506040516020818303038152906040528051906020012090506005600082815260200190815260200160002060060160109054906101000a900460ff16612bd65760405162461bcd60e51b81526004018080602001828103825260318152602001806143d36031913960400191505060405180910390fd5b505b33600090815260046020908152604080832084845290915281205460ff1615612d6e573360009081526004602081815260408084208685529091529091200154421015612c565760405162461bcd60e51b815260040180806020018281038252605e815260200180614215605e913960600191505060405180910390fd5b6040805133606081901b60208084019190915260348084018d90528451808503909101815260549093018452825192810192909220600091825260048352838220868352909252919091206002015414612cee576040805162461bcd60e51b81526020600482015260146024820152730d2dcecc2d8d2c840c6d0c2d2dca8d2e090c2e6d60631b604482015290519081900360640190fd5b60025433600090815260046020908152604080832086845290915290206003015442600160401b9092046001600160401b03160111612d69576040805162461bcd60e51b815260206004820152601260248201527172657665616c20697320746f6f206c61746560701b604482015290519081900360640190fd5b612da9565b413314801590612d81575041600160981b145b15612da9575063ffffffff8a16600090815260036020526040902054600160981b900461ffff165b4133148015612dbc575041600160981b14155b156138045733600090815260046020908152604080832085845290915290205460ff16613017576040518061014001604052806001151581526020018a81526020018981526020014281526020016002600360008f63ffffffff1663ffffffff1681526020019081526020016000206004015481612e3657fe5b04420181526020016000801b81526020018b6001600160401b0316815260200160006001600160401b0316815260200160001515815260200160006001600160a01b031681525060046000336001600160a01b03166001600160a01b03168152602001908152602001600020600084815260200190815260200160002060008201518160000160006101000a81548160ff0219169083151502179055506020820151816001015560408201518160020155606082015181600301556080820151816004015560a0820151816005015560c08201518160060160006101000a8154816001600160401b0302191690836001600160401b0316021790555060e08201518160060160086101000a8154816001600160401b0302191690836001600160401b031602179055506101008201518160060160106101000a81548160ff0219169083151502179055506101208201518160070160006101000a8154816001600160a01b0302191690836001600160a01b0316021790555090505060008051602061435c8339815191528b8b600033604051808563ffffffff168152602001846001600160401b03168152602001836003811115612ff057fe5b8152602001826001600160a01b0316815260200194505050505060405180910390a1613804565b63ffffffff8b16600090815260036020526040902054600160981b810461ffff16600160a81b9091046001600160401b031611156133e85760008b600360008e63ffffffff1663ffffffff16815260200190815260200160002060000160139054906101000a900461ffff1661ffff16600360008f63ffffffff1663ffffffff16815260200190815260200160002060000160159054906101000a90046001600160401b031603604051602001808363ffffffff1660e01b8152600401826001600160401b031660c01b81526008019250505060405160208183030381529060405280519060200120905089600560008381526020019081526020016000206005015414156132aa57600061312a612559565b90506001600960006005600086815260200190815260200160002060070160009054906101000a90046001600160a01b03166001600160a01b03166001600160a01b03168152602001908152602001600020600083815260200190815260200160002060008282829054906101000a90046001600160401b03160192506101000a8154816001600160401b0302191690836001600160401b031602179055506001600a600083815260200190815260200160002060008282829054906101000a90046001600160401b03160192506101000a8154816001600160401b0302191690836001600160401b0316021790555060008051602061435c8339815191528d8d60026005600087815260200190815260200160002060070160009054906101000a90046001600160a01b0316604051808563ffffffff168152602001846001600160401b0316815260200183600381111561328257fe5b8152602001826001600160a01b0316815260200194505050505060405180910390a1506133e2565b600360008d63ffffffff1663ffffffff16815260200190815260200160002060030154600360008e63ffffffff1663ffffffff16815260200190815260200160002060000160139054906101000a900461ffff1661ffff16024201600b60006005600085815260200190815260200160002060070160009054906101000a90046001600160a01b03166001600160a01b03166001600160a01b031681526020019081526020016000208190555060008051602061435c8339815191528c8c60036005600086815260200190815260200160002060070160009054906101000a90046001600160a01b0316604051808563ffffffff168152602001846001600160401b031681526020018360038111156133bf57fe5b8152602001826001600160a01b0316815260200194505050505060405180910390a15b5061344a565b60008051602061435c8339815191528b8b600133604051808563ffffffff168152602001846001600160401b0316815260200183600381111561342757fe5b8152602001826001600160a01b0316815260200194505050505060405180910390a15b6040518061014001604052806001151581526020018a81526020016000801b815260200160046000336001600160a01b03166001600160a01b0316815260200190815260200160002060008581526020019081526020016000206003015481526020014281526020018981526020018b6001600160401b0316815260200160006001600160401b03168152602001600115158152602001336001600160a01b03168152506005600084815260200190815260200160002060008201518160000160006101000a81548160ff0219169083151502179055506020820151816001015560408201518160020155606082015181600301556080820151816004015560a0820151816005015560c08201518160060160006101000a8154816001600160401b0302191690836001600160401b0316021790555060e08201518160060160086101000a8154816001600160401b0302191690836001600160401b031602179055506101008201518160060160106101000a81548160ff0219169083151502179055506101208201518160070160006101000a8154816001600160a01b0302191690836001600160a01b031602179055509050506001600360008d63ffffffff1663ffffffff16815260200190815260200160002060000160158282829054906101000a90046001600160401b03160192506101000a8154816001600160401b0302191690836001600160401b0316021790555089600360008d63ffffffff1663ffffffff16815260200190815260200160002060010160006101000a8154816001600160401b0302191690836001600160401b0316021790555060006002600360008e63ffffffff1663ffffffff16815260200190815260200160002060040154600360008f63ffffffff1663ffffffff1681526020019081526020016000206002015460046000336001600160a01b03166001600160a01b0316815260200190815260200160002060008781526020019081526020016000206003015403018161373357fe5b63ffffffff8e166000908152600360208190526040909120015491900491506002028111156137865763ffffffff8c166000908152600360208190526040909120908101546002026004909101556137a2565b63ffffffff8c1660009081526003602052604090206004018190555b60046000336001600160a01b03166001600160a01b03168152602001908152602001600020600084815260200190815260200160002060030154600360008e63ffffffff1663ffffffff16815260200190815260200160002060020181905550505b999a6000199990990199989650505050505050565b600254600160401b90046001600160401b031681565b600a602052600090815260409020546001600160401b031681565b600054610100900463ffffffff1681565b6000805460ff1661389d5760405162461bcd60e51b815260040180806020018281038252603a815260200180614428603a913960400191505060405180910390fd5b506001600160a01b0391909116600090815260096020908152604080832093835292905220546001600160401b031690565b6008602052600090815260409020805460018201546002830154600384015460048501546005860154600687015460079097015460ff96871697959694959394929391926001600160401b0380841693600160401b810490911692600160801b909104909116906001600160a01b03168a565b6000805460ff1615613992576040805162461bcd60e51b8152602060048201526014602482015273696e697469616c6973656420213d2066616c736560601b604482015290519081900360640190fd5b604051806101400160405280600115158152602001620a84946001600160401b0316815260200160006001600160401b03168152602001600161ffff168152602001600461ffff16815260200160006001600160401b03168152602001620a84946001600160401b0316815260200142815260200161038481526020016000815250600360008063ffffffff16815260200190815260200160002060008201518160000160006101000a81548160ff02191690831515021790555060208201518160000160016101000a8154816001600160401b0302191690836001600160401b0316021790555060408201518160000160096101000a8154816001600160401b0302191690836001600160401b0316021790555060608201518160000160116101000a81548161ffff021916908361ffff16021790555060808201518160000160136101000a81548161ffff021916908361ffff16021790555060a08201518160000160156101000a8154816001600160401b0302191690836001600160401b0316021790555060c08201518160010160006101000a8154816001600160401b0302191690836001600160401b0316021790555060e0820151816002015561010082015181600301556101208201518160040155905050604051806101400160405280600115158152602001621fd4de6001600160401b0316815260200160006001600160401b03168152602001600161ffff168152602001600c61ffff16815260200160006001600160401b03168152602001621fd4de6001600160401b0316815260200142815260200160968152602001600081525060036000600163ffffffff16815260200190815260200160002060008201518160000160006101000a81548160ff02191690831515021790555060208201518160000160016101000a8154816001600160401b0302191690836001600160401b0316021790555060408201518160000160096101000a8154816001600160401b0302191690836001600160401b0316021790555060608201518160000160116101000a81548161ffff021916908361ffff16021790555060808201518160000160136101000a81548161ffff021916908361ffff16021790555060a08201518160000160156101000a8154816001600160401b0302191690836001600160401b0316021790555060c08201518160010160006101000a8154816001600160401b0302191690836001600160401b0316021790555060e0820151816002015561010082015181600301556101208201518160040155905050604051806101400160405280600115158152602001623980b46001600160401b0316815260200160006001600160401b03168152602001600261ffff168152602001602861ffff16815260200160006001600160401b03168152602001623980b46001600160401b0316815260200142815260200160788152602001600081525060036000600263ffffffff16815260200190815260200160002060008201518160000160006101000a81548160ff02191690831515021790555060208201518160000160016101000a8154816001600160401b0302191690836001600160401b0316021790555060408201518160000160096101000a8154816001600160401b0302191690836001600160401b0316021790555060608201518160000160116101000a81548161ffff021916908361ffff16021790555060808201518160000160136101000a81548161ffff021916908361ffff16021790555060a08201518160000160156101000a8154816001600160401b0302191690836001600160401b0316021790555060c08201518160010160006101000a8154816001600160401b0302191690836001600160401b0316021790555060e08201518160020155610100820151816003015561012082015181600401559050506040518061014001604052806001151581526020016303bf79006001600160401b0316815260200160006001600160401b03168152602001601e61ffff168152602001600161ffff16815260200160006001600160401b031681526020016303bf79006001600160401b0316815260200142815260200160788152602001600081525060036000600363ffffffff16815260200190815260200160002060008201518160000160006101000a81548160ff02191690831515021790555060208201518160000160016101000a8154816001600160401b0302191690836001600160401b0316021790555060408201518160000160096101000a8154816001600160401b0302191690836001600160401b0316021790555060608201518160000160116101000a81548161ffff021916908361ffff16021790555060808201518160000160136101000a81548161ffff021916908361ffff16021790555060a08201518160000160156101000a8154816001600160401b0302191690836001600160401b0316021790555060c08201518160010160006101000a8154816001600160401b0302191690836001600160401b0316021790555060e08201518160020155610100820151816003015561012082015181600401559050506004600060016101000a81548163ffffffff021916908363ffffffff160217905550601e600260006101000a8154816001600160401b0302191690836001600160401b0316021790555062015180600260086101000a8154816001600160401b0302191690836001600160401b0316021790555062093a80600260106101000a8154816001600160401b0302191690836001600160401b031602179055504260018190555060016000806101000a81548160ff0219169083151502179055506001905090565b6001548156fe626c6f636b2e74696d657374616d70203c2070726f706f7365644e6f6e5061796d656e7450726f6f66735b6c6f636174696f6e486173685d5b6c65646765725d2e7065726d697474656452657665616c54696d65626c6f636b2e74696d657374616d70203c2070726f706f73656444617461417661696c6162696c69747950726f6f66735b6d73672e73656e6465725d5b6c6f636174696f6e486173685d2e7065726d697474656452657665616c54696d656e6f7420656e6f7567682074696d6520656c61707365642073696e6365207072696f722066696e616c697479626c6f636b2e74696d657374616d70203c2070726f706f7365645061796d656e7450726f6f66735b6c6f636174696f6e486173685d2e7065726d697474656452657665616c54696d6566696e616c697365645061796d656e74735b6c6f636174696f6e486173685d2e696e646578203e3d206c65646765726d73672e73656e6465722069732063757272656e746c792062616e6e656420666f722073656e64696e6720616e20756e616363657074656420636861696e546970486173685d63f7a167c8b58acdc7fe63a4a0972032b67a76b50a2d5fd8d64061f44952316c6564676572203e3d20636861696e735b636861696e49645d2e66696e616c697365644c6564676572496e646578636861696e735b636861696e49645d2e66696e616c697365644c6564676572496e646578203d3d203070726576696f75732064617461417661696c6162696c697479506572696f64206e6f74207965742066696e616c69736564636861696e735b636861696e49645d2e6e756d436f6e6669726d6174696f6e73203e2030737461746520636f6e6e6563746f72206973206e6f7420696e697469616c697365642c2072756e20696e697469616c697365436861696e732829626c6f636b2e74696d657374616d70203c3d20696e697469616c69736554696d65626c6f636b2e74696d657374616d70203c3d20636861696e735b636861696e49645d2e66696e616c6973656454696d657374616d7066696e616c697365644c6564676572496e646578202d2067656e657369734c6564676572203c3d206c6564676572486973746f727953697a65636861696e496420646f6573206e6f742065786973740000000000000000000064617461417661696c6162696c697479506572696f6448617368203d3d20307830a2646970667358221220edf328ecaebb12bf3d515cd08705bdbf8d17359e4c830146156719541d4e055b64736f6c63430007060033",
    "sourcePath": "/home/my-usern/flare/src/stateco/StateConnector.sol",
    "compiler": {
        "name": "solc",
        "version": "0.7.6+commit.7338295f"
    },
    "functionHashes": {
        "chains(uint32)": "8b203dd4",
        "dataAvailabilityPeriodsMined(address,uint256)": "2bec6f87",
        "disprovePaymentFinality(uint32,bytes32,uint64,string)": "7f582432",
        "finalisedDataAvailabilityPeriods(bytes32)": "4bdc9c8f",
        "finalisedPayments(bytes32)": "ee2d8737",
        "getDataAvailabilityPeriodIndexFinality(uint32,uint64)": "3f57987d",
        "getDataAvailabilityPeriodsMined(address,uint256)": "dccb2d32",
        "getLatestIndex(uint32)": "2a2434a2",
        "getPaymentFinality(uint32,bytes32,bytes32,uint64,bytes32)": "71e8d61a",
        "getRewardPeriod()": "adc89032",
        "getTotalDataAvailabilityPeriodsMined(uint256)": "47453f37",
        "initialiseChains()": "ef4c169e",
        "initialiseTime()": "f9c490ee",
        "initialised()": "07003bb4",
        "numChains()": "d3fb3e9f",
        "paymentCommitDelay()": "464c6e93",
        "proposedDataAvailabilityProofs(address,bytes32)": "7ec93e9f",
        "proposedNonPaymentProofs(bytes32,uint64)": "79fd4e1a",
        "proposedPaymentProofs(bytes32,uint64)": "55d14c15",
        "proveDataAvailabilityPeriodFinality(uint32,uint64,bytes32,bytes32)": "c5d64cd1",
        "provePaymentFinality(uint32,bytes32,uint64,string)": "388492dd",
        "revealTimespan()": "cbdd1882",
        "rewardPeriodTimespan()": "9c531f8c",
        "senderBannedUntil(address)": "22ce7387",
        "totalDataAvailabilityPeriodsMined(uint256)": "d3b92926"
    },
    "gasEstimates": {
        "creation": {
            "codeDepositCost": "3553400",
            "executionCost": "3990",
            "totalCost": "3557390"
        },
        "external": {
            "chains(uint32)": "4839",
            "dataAvailabilityPeriodsMined(address,uint256)": "1340",
            "disprovePaymentFinality(uint32,bytes32,uint64,string)": "infinite",
            "finalisedDataAvailabilityPeriods(bytes32)": "7236",
            "finalisedPayments(bytes32)": "7229",
            "getDataAvailabilityPeriodIndexFinality(uint32,uint64)": "infinite",
            "getDataAvailabilityPeriodsMined(address,uint256)": "infinite",
            "getLatestIndex(uint32)": "infinite",
            "getPaymentFinality(uint32,bytes32,bytes32,uint64,bytes32)": "infinite",
            "getRewardPeriod()": "infinite",
            "getTotalDataAvailabilityPeriodsMined(uint256)": "infinite",
            "initialiseChains()": "893563",
            "initialiseTime()": "1108",
            "initialised()": "1034",
            "numChains()": "1113",
            "paymentCommitDelay()": "1060",
            "proposedDataAvailabilityProofs(address,bytes32)": "7285",
            "proposedNonPaymentProofs(bytes32,uint64)": "7401",
            "proposedPaymentProofs(bytes32,uint64)": "7357",
            "proveDataAvailabilityPeriodFinality(uint32,uint64,bytes32,bytes32)": "infinite",
            "provePaymentFinality(uint32,bytes32,uint64,string)": "infinite",
            "revealTimespan()": "1099",
            "rewardPeriodTimespan()": "1143",
            "senderBannedUntil(address)": "1170",
            "totalDataAvailabilityPeriodsMined(uint256)": "1212"
        }
    }
}