{
    "contractName": "StateConnector",
    "abi": [
        {
            "inputs": [],
            "stateMutability": "nonpayable",
            "type": "constructor"
        },
        {
            "anonymous": false,
            "inputs": [
                {
                    "indexed": false,
                    "internalType": "uint32",
                    "name": "chainId",
                    "type": "uint32"
                },
                {
                    "indexed": false,
                    "internalType": "bool",
                    "name": "add",
                    "type": "bool"
                }
            ],
            "name": "ChainAdded",
            "type": "event"
        },
        {
            "anonymous": false,
            "inputs": [
                {
                    "indexed": false,
                    "internalType": "uint32",
                    "name": "chainId",
                    "type": "uint32"
                },
                {
                    "indexed": false,
                    "internalType": "uint64",
                    "name": "ledger",
                    "type": "uint64"
                },
                {
                    "indexed": false,
                    "internalType": "enum StateConnector.ClaimPeriodFinalityType",
                    "name": "finType",
                    "type": "uint8"
                },
                {
                    "indexed": false,
                    "internalType": "address",
                    "name": "sender",
                    "type": "address"
                }
            ],
            "name": "ClaimPeriodFinalityProved",
            "type": "event"
        },
        {
            "anonymous": false,
            "inputs": [
                {
                    "indexed": false,
                    "internalType": "uint32",
                    "name": "chainId",
                    "type": "uint32"
                },
                {
                    "indexed": false,
                    "internalType": "uint64",
                    "name": "ledger",
                    "type": "uint64"
                },
                {
                    "indexed": false,
                    "internalType": "string",
                    "name": "txId",
                    "type": "string"
                },
                {
                    "indexed": false,
                    "internalType": "bytes32",
                    "name": "paymentHash",
                    "type": "bytes32"
                },
                {
                    "indexed": false,
                    "internalType": "address",
                    "name": "sender",
                    "type": "address"
                }
            ],
            "name": "PaymentFinalityDisproved",
            "type": "event"
        },
        {
            "anonymous": false,
            "inputs": [
                {
                    "indexed": false,
                    "internalType": "uint32",
                    "name": "chainId",
                    "type": "uint32"
                },
                {
                    "indexed": false,
                    "internalType": "uint64",
                    "name": "ledger",
                    "type": "uint64"
                },
                {
                    "indexed": false,
                    "internalType": "string",
                    "name": "txId",
                    "type": "string"
                },
                {
                    "indexed": false,
                    "internalType": "bytes32",
                    "name": "paymentHash",
                    "type": "bytes32"
                },
                {
                    "indexed": false,
                    "internalType": "address",
                    "name": "sender",
                    "type": "address"
                }
            ],
            "name": "PaymentFinalityProved",
            "type": "event"
        },
        {
            "inputs": [
                {
                    "internalType": "uint64",
                    "name": "genesisLedger",
                    "type": "uint64"
                },
                {
                    "internalType": "uint64",
                    "name": "ledgerHistorySize",
                    "type": "uint64"
                },
                {
                    "internalType": "uint16",
                    "name": "claimPeriodLength",
                    "type": "uint16"
                },
                {
                    "internalType": "uint16",
                    "name": "numConfirmations",
                    "type": "uint16"
                },
                {
                    "internalType": "uint256",
                    "name": "timeDiffExpected",
                    "type": "uint256"
                }
            ],
            "name": "addChain",
            "outputs": [],
            "stateMutability": "nonpayable",
            "type": "function"
        },
        {
            "inputs": [
                {
                    "internalType": "uint32",
                    "name": "",
                    "type": "uint32"
                }
            ],
            "name": "chains",
            "outputs": [
                {
                    "internalType": "bool",
                    "name": "exists",
                    "type": "bool"
                },
                {
                    "internalType": "uint64",
                    "name": "genesisLedger",
                    "type": "uint64"
                },
                {
                    "internalType": "uint64",
                    "name": "ledgerHistorySize",
                    "type": "uint64"
                },
                {
                    "internalType": "uint16",
                    "name": "claimPeriodLength",
                    "type": "uint16"
                },
                {
                    "internalType": "uint16",
                    "name": "numConfirmations",
                    "type": "uint16"
                },
                {
                    "internalType": "uint64",
                    "name": "finalisedClaimPeriodIndex",
                    "type": "uint64"
                },
                {
                    "internalType": "uint64",
                    "name": "finalisedLedgerIndex",
                    "type": "uint64"
                },
                {
                    "internalType": "uint256",
                    "name": "finalisedTimestamp",
                    "type": "uint256"
                },
                {
                    "internalType": "uint256",
                    "name": "timeDiffExpected",
                    "type": "uint256"
                },
                {
                    "internalType": "uint256",
                    "name": "timeDiffAvg",
                    "type": "uint256"
                }
            ],
            "stateMutability": "view",
            "type": "function"
        },
        {
            "inputs": [
                {
                    "internalType": "address",
                    "name": "",
                    "type": "address"
                },
                {
                    "internalType": "uint256",
                    "name": "",
                    "type": "uint256"
                }
            ],
            "name": "claimPeriodsMined",
            "outputs": [
                {
                    "internalType": "uint64",
                    "name": "",
                    "type": "uint64"
                }
            ],
            "stateMutability": "view",
            "type": "function"
        },
        {
            "inputs": [
                {
                    "internalType": "uint32",
                    "name": "chainId",
                    "type": "uint32"
                }
            ],
            "name": "disableChain",
            "outputs": [],
            "stateMutability": "nonpayable",
            "type": "function"
        },
        {
            "inputs": [
                {
                    "internalType": "uint32",
                    "name": "chainId",
                    "type": "uint32"
                },
                {
                    "internalType": "bytes32",
                    "name": "paymentHash",
                    "type": "bytes32"
                },
                {
                    "internalType": "uint64",
                    "name": "ledger",
                    "type": "uint64"
                },
                {
                    "internalType": "string",
                    "name": "txId",
                    "type": "string"
                }
            ],
            "name": "disprovePaymentFinality",
            "outputs": [
                {
                    "internalType": "uint32",
                    "name": "_chainId",
                    "type": "uint32"
                },
                {
                    "internalType": "uint64",
                    "name": "_ledger",
                    "type": "uint64"
                },
                {
                    "internalType": "uint64",
                    "name": "_finalisedLedgerIndex",
                    "type": "uint64"
                },
                {
                    "internalType": "bytes32",
                    "name": "_paymentHash",
                    "type": "bytes32"
                },
                {
                    "internalType": "string",
                    "name": "_txId",
                    "type": "string"
                }
            ],
            "stateMutability": "nonpayable",
            "type": "function"
        },
        {
            "inputs": [
                {
                    "internalType": "uint32",
                    "name": "chainId",
                    "type": "uint32"
                }
            ],
            "name": "enableChain",
            "outputs": [],
            "stateMutability": "nonpayable",
            "type": "function"
        },
        {
            "inputs": [
                {
                    "internalType": "bytes32",
                    "name": "",
                    "type": "bytes32"
                }
            ],
            "name": "finalisedClaimPeriods",
            "outputs": [
                {
                    "internalType": "bool",
                    "name": "exists",
                    "type": "bool"
                },
                {
                    "internalType": "bytes32",
                    "name": "claimPeriodHash",
                    "type": "bytes32"
                },
                {
                    "internalType": "bytes32",
                    "name": "commitHash",
                    "type": "bytes32"
                },
                {
                    "internalType": "uint256",
                    "name": "commitTime",
                    "type": "uint256"
                },
                {
                    "internalType": "uint256",
                    "name": "permittedRevealTime",
                    "type": "uint256"
                },
                {
                    "internalType": "bytes32",
                    "name": "revealHash",
                    "type": "bytes32"
                },
                {
                    "internalType": "uint64",
                    "name": "index",
                    "type": "uint64"
                },
                {
                    "internalType": "uint64",
                    "name": "indexSearchRegion",
                    "type": "uint64"
                },
                {
                    "internalType": "bool",
                    "name": "proven",
                    "type": "bool"
                },
                {
                    "internalType": "address",
                    "name": "provenBy",
                    "type": "address"
                }
            ],
            "stateMutability": "view",
            "type": "function"
        },
        {
            "inputs": [
                {
                    "internalType": "uint32",
                    "name": "",
                    "type": "uint32"
                },
                {
                    "internalType": "bytes32",
                    "name": "",
                    "type": "bytes32"
                }
            ],
            "name": "finalisedPayments",
            "outputs": [
                {
                    "internalType": "bool",
                    "name": "exists",
                    "type": "bool"
                },
                {
                    "internalType": "bytes32",
                    "name": "claimPeriodHash",
                    "type": "bytes32"
                },
                {
                    "internalType": "bytes32",
                    "name": "commitHash",
                    "type": "bytes32"
                },
                {
                    "internalType": "uint256",
                    "name": "commitTime",
                    "type": "uint256"
                },
                {
                    "internalType": "uint256",
                    "name": "permittedRevealTime",
                    "type": "uint256"
                },
                {
                    "internalType": "bytes32",
                    "name": "revealHash",
                    "type": "bytes32"
                },
                {
                    "internalType": "uint64",
                    "name": "index",
                    "type": "uint64"
                },
                {
                    "internalType": "uint64",
                    "name": "indexSearchRegion",
                    "type": "uint64"
                },
                {
                    "internalType": "bool",
                    "name": "proven",
                    "type": "bool"
                },
                {
                    "internalType": "address",
                    "name": "provenBy",
                    "type": "address"
                }
            ],
            "stateMutability": "view",
            "type": "function"
        },
        {
            "inputs": [
                {
                    "internalType": "uint32",
                    "name": "chainId",
                    "type": "uint32"
                },
                {
                    "internalType": "uint64",
                    "name": "claimPeriodIndex",
                    "type": "uint64"
                }
            ],
            "name": "getClaimPeriodIndexFinality",
            "outputs": [
                {
                    "internalType": "bool",
                    "name": "finality",
                    "type": "bool"
                }
            ],
            "stateMutability": "view",
            "type": "function"
        },
        {
            "inputs": [
                {
                    "internalType": "address",
                    "name": "miner",
                    "type": "address"
                },
                {
                    "internalType": "uint256",
                    "name": "rewardSchedule",
                    "type": "uint256"
                }
            ],
            "name": "getClaimPeriodsMined",
            "outputs": [
                {
                    "internalType": "uint64",
                    "name": "numMined",
                    "type": "uint64"
                }
            ],
            "stateMutability": "view",
            "type": "function"
        },
        {
            "inputs": [],
            "name": "getGovernanceContract",
            "outputs": [
                {
                    "internalType": "address",
                    "name": "_governanceContract",
                    "type": "address"
                }
            ],
            "stateMutability": "view",
            "type": "function"
        },
        {
            "inputs": [
                {
                    "internalType": "uint32",
                    "name": "chainId",
                    "type": "uint32"
                }
            ],
            "name": "getLatestIndex",
            "outputs": [
                {
                    "internalType": "uint64",
                    "name": "genesisLedger",
                    "type": "uint64"
                },
                {
                    "internalType": "uint64",
                    "name": "finalisedClaimPeriodIndex",
                    "type": "uint64"
                },
                {
                    "internalType": "uint16",
                    "name": "claimPeriodLength",
                    "type": "uint16"
                },
                {
                    "internalType": "uint64",
                    "name": "finalisedLedgerIndex",
                    "type": "uint64"
                },
                {
                    "internalType": "uint256",
                    "name": "finalisedTimestamp",
                    "type": "uint256"
                },
                {
                    "internalType": "uint256",
                    "name": "timeDiffAvg",
                    "type": "uint256"
                }
            ],
            "stateMutability": "view",
            "type": "function"
        },
        {
            "inputs": [
                {
                    "internalType": "uint32",
                    "name": "chainId",
                    "type": "uint32"
                },
                {
                    "internalType": "bytes32",
                    "name": "txId",
                    "type": "bytes32"
                },
                {
                    "internalType": "bytes32",
                    "name": "destinationHash",
                    "type": "bytes32"
                },
                {
                    "internalType": "uint64",
                    "name": "amount",
                    "type": "uint64"
                },
                {
                    "internalType": "bytes32",
                    "name": "currencyHash",
                    "type": "bytes32"
                }
            ],
            "name": "getPaymentFinality",
            "outputs": [
                {
                    "internalType": "uint64",
                    "name": "ledger",
                    "type": "uint64"
                },
                {
                    "internalType": "uint64",
                    "name": "indexSearchRegion",
                    "type": "uint64"
                },
                {
                    "internalType": "bool",
                    "name": "finality",
                    "type": "bool"
                }
            ],
            "stateMutability": "view",
            "type": "function"
        },
        {
            "inputs": [],
            "name": "getRewardPeriod",
            "outputs": [
                {
                    "internalType": "uint256",
                    "name": "rewardSchedule",
                    "type": "uint256"
                }
            ],
            "stateMutability": "view",
            "type": "function"
        },
        {
            "inputs": [
                {
                    "internalType": "uint256",
                    "name": "rewardSchedule",
                    "type": "uint256"
                }
            ],
            "name": "getTotalClaimPeriodsMined",
            "outputs": [
                {
                    "internalType": "uint64",
                    "name": "numMined",
                    "type": "uint64"
                }
            ],
            "stateMutability": "view",
            "type": "function"
        },
        {
            "inputs": [],
            "name": "governanceContract",
            "outputs": [
                {
                    "internalType": "address",
                    "name": "",
                    "type": "address"
                }
            ],
            "stateMutability": "view",
            "type": "function"
        },
        {
            "inputs": [],
            "name": "initialiseChains",
            "outputs": [
                {
                    "internalType": "bool",
                    "name": "success",
                    "type": "bool"
                }
            ],
            "stateMutability": "nonpayable",
            "type": "function"
        },
        {
            "inputs": [],
            "name": "initialiseTime",
            "outputs": [
                {
                    "internalType": "uint256",
                    "name": "",
                    "type": "uint256"
                }
            ],
            "stateMutability": "view",
            "type": "function"
        },
        {
            "inputs": [],
            "name": "initialised",
            "outputs": [
                {
                    "internalType": "bool",
                    "name": "",
                    "type": "bool"
                }
            ],
            "stateMutability": "view",
            "type": "function"
        },
        {
            "inputs": [],
            "name": "numChains",
            "outputs": [
                {
                    "internalType": "uint32",
                    "name": "",
                    "type": "uint32"
                }
            ],
            "stateMutability": "view",
            "type": "function"
        },
        {
            "inputs": [
                {
                    "internalType": "address",
                    "name": "",
                    "type": "address"
                },
                {
                    "internalType": "bytes32",
                    "name": "",
                    "type": "bytes32"
                }
            ],
            "name": "proposedClaimPeriods",
            "outputs": [
                {
                    "internalType": "bool",
                    "name": "exists",
                    "type": "bool"
                },
                {
                    "internalType": "bytes32",
                    "name": "claimPeriodHash",
                    "type": "bytes32"
                },
                {
                    "internalType": "bytes32",
                    "name": "commitHash",
                    "type": "bytes32"
                },
                {
                    "internalType": "uint256",
                    "name": "commitTime",
                    "type": "uint256"
                },
                {
                    "internalType": "uint256",
                    "name": "permittedRevealTime",
                    "type": "uint256"
                },
                {
                    "internalType": "bytes32",
                    "name": "revealHash",
                    "type": "bytes32"
                },
                {
                    "internalType": "uint64",
                    "name": "index",
                    "type": "uint64"
                },
                {
                    "internalType": "uint64",
                    "name": "indexSearchRegion",
                    "type": "uint64"
                },
                {
                    "internalType": "bool",
                    "name": "proven",
                    "type": "bool"
                },
                {
                    "internalType": "address",
                    "name": "provenBy",
                    "type": "address"
                }
            ],
            "stateMutability": "view",
            "type": "function"
        },
        {
            "inputs": [
                {
                    "internalType": "uint32",
                    "name": "chainId",
                    "type": "uint32"
                },
                {
                    "internalType": "uint64",
                    "name": "ledger",
                    "type": "uint64"
                },
                {
                    "internalType": "bytes32",
                    "name": "claimPeriodHash",
                    "type": "bytes32"
                },
                {
                    "internalType": "bytes32",
                    "name": "chainTipHash",
                    "type": "bytes32"
                }
            ],
            "name": "proveClaimPeriodFinality",
            "outputs": [
                {
                    "internalType": "uint32",
                    "name": "_chainId",
                    "type": "uint32"
                },
                {
                    "internalType": "uint64",
                    "name": "_ledger",
                    "type": "uint64"
                },
                {
                    "internalType": "uint16",
                    "name": "_numConfirmations",
                    "type": "uint16"
                },
                {
                    "internalType": "bytes32",
                    "name": "_claimPeriodHash",
                    "type": "bytes32"
                }
            ],
            "stateMutability": "nonpayable",
            "type": "function"
        },
        {
            "inputs": [
                {
                    "internalType": "uint32",
                    "name": "chainId",
                    "type": "uint32"
                },
                {
                    "internalType": "bytes32",
                    "name": "paymentHash",
                    "type": "bytes32"
                },
                {
                    "internalType": "uint64",
                    "name": "ledger",
                    "type": "uint64"
                },
                {
                    "internalType": "string",
                    "name": "txId",
                    "type": "string"
                }
            ],
            "name": "provePaymentFinality",
            "outputs": [
                {
                    "internalType": "uint32",
                    "name": "_chainId",
                    "type": "uint32"
                },
                {
                    "internalType": "uint64",
                    "name": "_ledger",
                    "type": "uint64"
                },
                {
                    "internalType": "uint64",
                    "name": "_finalisedLedgerIndex",
                    "type": "uint64"
                },
                {
                    "internalType": "bytes32",
                    "name": "_paymentHash",
                    "type": "bytes32"
                },
                {
                    "internalType": "string",
                    "name": "_txId",
                    "type": "string"
                }
            ],
            "stateMutability": "nonpayable",
            "type": "function"
        },
        {
            "inputs": [],
            "name": "rewardPeriodTimespan",
            "outputs": [
                {
                    "internalType": "uint64",
                    "name": "",
                    "type": "uint64"
                }
            ],
            "stateMutability": "view",
            "type": "function"
        },
        {
            "inputs": [
                {
                    "internalType": "address",
                    "name": "",
                    "type": "address"
                }
            ],
            "name": "senderBannedUntil",
            "outputs": [
                {
                    "internalType": "uint256",
                    "name": "",
                    "type": "uint256"
                }
            ],
            "stateMutability": "view",
            "type": "function"
        },
        {
            "inputs": [
                {
                    "internalType": "address",
                    "name": "_governanceContract",
                    "type": "address"
                }
            ],
            "name": "setGovernanceContract",
            "outputs": [],
            "stateMutability": "nonpayable",
            "type": "function"
        },
        {
            "inputs": [
                {
                    "internalType": "uint256",
                    "name": "",
                    "type": "uint256"
                }
            ],
            "name": "totalClaimPeriodsMined",
            "outputs": [
                {
                    "internalType": "uint64",
                    "name": "",
                    "type": "uint64"
                }
            ],
            "stateMutability": "view",
            "type": "function"
        }
    ],
    "bytecode": "608060405234801561001057600080fd5b5061421c806100206000396000f3fe608060405234801561001057600080fd5b50600436106101a95760003560e01c80639c531f8c116100f9578063d46117aa11610097578063e54caf9211610071578063e54caf92146108bf578063ef2fa85f146108f1578063ef4c169e146108f9578063f9c490ee14610901576101a9565b8063d46117aa1461082f578063d9b49e2614610858578063dbcfda2714610875576101a9565b8063adc89032116100d3578063adc89032146107bf578063b172b222146107c7578063c1b0e574146107eb578063d3fb3e9f1461080e576101a9565b80639c531f8c146107775780639e93bed91461077f578063a060b6471461079c576101a9565b806349d5436f116101665780637f582432116101405780637f58243214610573578063822d15d71461063b5780638b203dd4146106585780638cce75ff146106e2576101a9565b806349d5436f1461046157806356ec93e71461048d57806371e8d61a14610503576101a9565b806307003bb4146101ae5780631129753f146101ca57806320e0cb93146101f257806322ce73871461023a5780632a2434a214610272578063388492dd146102ed575b600080fd5b6101b6610909565b604080519115158252519081900360200190f35b6101f0600480360360208110156101e057600080fd5b50356001600160a01b0316610919565b005b61021e6004803603604081101561020857600080fd5b506001600160a01b0381351690602001356109e3565b604080516001600160401b039092168252519081900360200190f35b6102606004803603602081101561025057600080fd5b50356001600160a01b0316610a09565b60408051918252519081900360200190f35b6102956004803603602081101561028857600080fd5b503563ffffffff16610a1b565b60405180876001600160401b03168152602001866001600160401b031681526020018561ffff168152602001846001600160401b03168152602001838152602001828152602001965050505050505060405180910390f35b6103b56004803603608081101561030357600080fd5b63ffffffff823516916020810135916001600160401b03604083013516919081019060808101606082013564010000000081111561034057600080fd5b82018360208201111561035257600080fd5b8035906020019184600183028401116401000000008311171561037457600080fd5b91908080601f016020809104026020016040519081016040528093929190818152602001838380828437600092019190915250929550610c09945050505050565b604051808663ffffffff168152602001856001600160401b03168152602001846001600160401b0316815260200183815260200180602001828103825283818151815260200191508051906020019080838360005b8381101561042257818101518382015260200161040a565b50505050905090810190601f16801561044f5780820380516001836020036101000a031916815260200191505b50965050505050505060405180910390f35b61021e6004803603604081101561047757600080fd5b506001600160a01b03813516906020013561122d565b6104cb600480360360808110156104a357600080fd5b5063ffffffff813516906001600160401b03602082013516906040810135906060013561125e565b6040805163ffffffff90951685526001600160401b03909316602085015261ffff909116838301526060830152519081900360800190f35b610547600480360360a081101561051957600080fd5b5063ffffffff813516906020810135906040810135906001600160401b036060820135169060800135612340565b604080516001600160401b03948516815292909316602083015215158183015290519081900360600190f35b6103b56004803603608081101561058957600080fd5b63ffffffff823516916020810135916001600160401b0360408301351691908101906080810160608201356401000000008111156105c657600080fd5b8201836020820111156105d857600080fd5b803590602001918460018302840111640100000000831117156105fa57600080fd5b91908080601f016020809104026020016040519081016040528093929190818152602001838380828437600092019190915250929550612527945050505050565b61021e6004803603602081101561065157600080fd5b5035612b44565b61067b6004803603602081101561066e57600080fd5b503563ffffffff16612b5f565b604080519a15158b526001600160401b03998a1660208c01529789168a89015261ffff96871660608b015294909516608089015291861660a088015290941660c086015260e085019390935261010084015261012083019190915251908190036101400190f35b61070e600480360360408110156106f857600080fd5b506001600160a01b038135169060200135612bd0565b604080519a15158b5260208b0199909952898901979097526060890195909552608088019390935260a08701919091526001600160401b0390811660c08701521660e085015215156101008401526001600160a01b031661012083015251908190036101400190f35b61021e612c4b565b61021e6004803603602081101561079557600080fd5b5035612c5a565b6101f0600480360360208110156107b257600080fd5b503563ffffffff16612c75565b610260612d78565b6107cf612ddb565b604080516001600160a01b039092168252519081900360200190f35b6101f06004803603602081101561080157600080fd5b503563ffffffff16612dea565b610816612f5f565b6040805163ffffffff9092168252519081900360200190f35b61070e6004803603604081101561084557600080fd5b5063ffffffff8135169060200135612f72565b61070e6004803603602081101561086e57600080fd5b5035612fef565b6101f0600480360360a081101561088b57600080fd5b506001600160401b03813581169160208101359091169061ffff604082013581169160608101359091169060800135613063565b6101b6600480360360408110156108d557600080fd5b50803563ffffffff1690602001356001600160401b0316613477565b6107cf613531565b6101b6613540565b610260613f82565b600054600160a01b900460ff1681565b6000546001600160a01b03163314610966576040805162461bcd60e51b8152602060048201819052602482015260008051602061409d833981519152604482015290519081900360640190fd5b6001600160a01b0381166109c1576040805162461bcd60e51b815260206004820152601a60248201527f5f676f7665726e616e6365436f6e7472616374203d3d20307830000000000000604482015290519081900360640190fd5b600080546001600160a01b0319166001600160a01b0392909216919091179055565b60076020908152600092835260408084209091529082529020546001600160401b031681565b60096020526000908152604090205481565b63ffffffff811660009081526003602052604081205481908190819081908190879060ff16610a7f576040805162461bcd60e51b81526020600482015260166024820152600080516020614173833981519152604482015290519081900360640190fd5b600360008963ffffffff1663ffffffff168152602001908152602001600020600201549250600360008963ffffffff1663ffffffff168152602001908152602001600020600401549150600088600360008b63ffffffff1663ffffffff16815260200190815260200160002060000160159054906101000a90046001600160401b0316604051602001808363ffffffff1660e01b8152600401826001600160401b031660c01b81526008019250505060405160208183030381529060405280519060200120905060046000336001600160a01b03166001600160a01b03168152602001908152602001600020600082815260200190815260200160002060000160009054906101000a900460ff1615610bb4573360009081526004602081815260408084208585529091528220015490945092505b505063ffffffff969096166000908152600360205260409020805460019091015461010082046001600160401b0390811699600160a81b8404821699600160881b90940461ffff169850911695509193509150565b63ffffffff8416600090815260036020526040812054819081908190606090899060ff16610c6c576040805162461bcd60e51b81526020600482015260166024820152600080516020614173833981519152604482015290519081900360640190fd5b6000876040516020018082805190602001908083835b60208310610ca15780518252601f199092019160209182019101610c82565b6001836020036101000a038019825116818451168082178552505050505050905001915050604051602081830303815290604052805190602001209050600660008c63ffffffff1663ffffffff168152602001908152602001600020600082815260200190815260200160002060060160109054906101000a900460ff1615610d67576040805162461bcd60e51b81526020600482015260136024820152723a3c24b21030b63932b0b23c90383937bb32b760691b604482015290519081900360640190fd5b63ffffffff8b166000908152600360205260409020600101546001600160401b03908116908a1610610dca5760405162461bcd60e51b815260040180806020018281038252602e81526020018061404f602e913960400191505060405180910390fd5b63ffffffff8b166000908152600360205260409020546001600160401b036101008204811691600160481b90041615610eab5763ffffffff8c16600090815260036020526040902080546001909101546001600160401b03600160481b830481166101009093048116918116919091031611610e775760405162461bcd60e51b815260040180806020018281038252603981526020018061413a6039913960400191505060405180910390fd5b5063ffffffff8b16600090815260036020526040902080546001909101546001600160401b03600160481b90920482169116035b806001600160401b03168a6001600160401b03161015610f12576040805162461bcd60e51b815260206004820152601a60248201527f6c6564676572203c20696e646578536561726368526567696f6e000000000000604482015290519081900360640190fd5b41331480610f23575041600160981b145b610f74576040805162461bcd60e51b815260206004820152601c60248201527f696e76616c696420626c6f636b2e636f696e626173652076616c756500000000604482015290519081900360640190fd5b4133148015610f87575041600160981b14155b156111fa576040518061014001604052806001151581526020016000801b81526020016000801b8152602001600081526020014281526020018c81526020018b6001600160401b03168152602001826001600160401b03168152602001600115158152602001336001600160a01b0316815250600660008e63ffffffff1663ffffffff168152602001908152602001600020600084815260200190815260200160002060008201518160000160006101000a81548160ff0219169083151502179055506020820151816001015560408201518160020155606082015181600301556080820151816004015560a0820151816005015560c08201518160060160006101000a8154816001600160401b0302191690836001600160401b0316021790555060e08201518160060160086101000a8154816001600160401b0302191690836001600160401b031602179055506101008201518160060160106101000a81548160ff0219169083151502179055506101208201518160070160006101000a8154816001600160a01b0302191690836001600160a01b031602179055509050507ff794f5b9b6791b3ab0eb97342cf2efbb7e710a478d4512a2505ea60c93fd85d38c8b8b8e33604051808663ffffffff168152602001856001600160401b0316815260200180602001848152602001836001600160a01b03168152602001828103825285818151815260200191508051906020019080838360005b838110156111bb5781810151838201526020016111a3565b50505050905090810190601f1680156111e85780820380516001836020036101000a031916815260200191505b50965050505050505060405180910390a15b5050505063ffffffff8816600090815260036020526040902060010154979895976001600160401b031696959350505050565b6001600160a01b0391909116600090815260076020908152604080832093835292905220546001600160401b031690565b63ffffffff8416600090815260036020526040812054819081908190889060ff166112be576040805162461bcd60e51b81526020600482015260166024820152600080516020614173833981519152604482015290519081900360640190fd5b33600090815260096020526040902054421161130b5760405162461bcd60e51b8152600401808060200182810382526045815260200180613fe96045913960600191505060405180910390fd5b86611356576040805162461bcd60e51b81526020600482015260166024820152750636c61696d506572696f6448617368203d3d203078360541b604482015290519081900360640190fd5b8561139e576040805162461bcd60e51b81526020600482015260136024820152720636861696e54697048617368203d3d2030783606c1b604482015290519081900360640190fd5b413314806113af575041600160981b145b611400576040805162461bcd60e51b815260206004820152601c60248201527f696e76616c696420626c6f636b2e636f696e626173652076616c756500000000604482015290519081900360640190fd5b63ffffffff891660009081526003602052604090208054600190910154600160881b90910461ffff166001600160401b039182160181169089161461147d576040805162461bcd60e51b815260206004820152600e60248201526d34b73b30b634b2103632b233b2b960911b604482015290519081900360640190fd5b63ffffffff891660009081526003602052604090206002015442116114d35760405162461bcd60e51b81526004018080602001828103825260358152602001806141056035913960400191505060405180910390fd5b63ffffffff8916600090815260036020819052604090912090810154600490910154600202101561156d5763ffffffff8916600090815260036020819052604090912060048101546002918201549102429190910390910210156115685760405162461bcd60e51b815260040180806020018281038252602c815260200180613fbd602c913960400191505060405180910390fd5b6115cf565b63ffffffff8916600090815260036020526040902060048101546002909101544203600f0110156115cf5760405162461bcd60e51b815260040180806020018281038252602c815260200180613fbd602c913960400191505060405180910390fd5b63ffffffff8916600090815260036020908152604080832054815160e08e901b6001600160e01b03191681850152600160a81b90910460c01b6001600160c01b03191660248201528151808203600c018152602c9091018252805190830120808452600590925290912060060154600160801b900460ff1615611699576040805162461bcd60e51b815260206004820152601e60248201527f6c6f636174696f6e4861736820616c72656164792066696e616c697365640000604482015290519081900360640190fd5b63ffffffff8a16600090815260036020526040902054600160a81b90046001600160401b0316156117a55760008a6001600360008e63ffffffff1663ffffffff16815260200190815260200160002060000160159054906101000a90046001600160401b031603604051602001808363ffffffff1660e01b8152600401826001600160401b031660c01b8152600801925050506040516020818303038152906040528051906020012090506005600082815260200190815260200160002060060160109054906101000a900460ff166117a35760405162461bcd60e51b81526004018080602001828103825260278152602001806140bd6027913960400191505060405180910390fd5b505b33600090815260046020908152604080832084845290915290205460ff16156118c05733600090815260046020818152604080842085855290915290912001544210156118235760405162461bcd60e51b81526004018080602001828103825260548152602001806141936054913960600191505060405180910390fd5b6040805133606081901b60208084019190915260348084018c905284518085039091018152605490930184528251928101929092206000918252600483528382208583529092529190912060020154146118bb576040805162461bcd60e51b81526020600482015260146024820152730d2dcecc2d8d2c840c6d0c2d2dca8d2e090c2e6d60631b604482015290519081900360640190fd5b6118dd565b4133148015906118d3575041600160981b145b156118dd57600097505b41331480156118f0575041600160981b14155b1561230a5733600090815260046020908152604080832084845290915290205460ff16611b4b576040518061014001604052806001151581526020018981526020018881526020014281526020016002600360008e63ffffffff1663ffffffff168152602001908152602001600020600401548161196a57fe5b04420181526020016000801b81526020018a6001600160401b0316815260200160006001600160401b0316815260200160001515815260200160006001600160a01b031681525060046000336001600160a01b03166001600160a01b03168152602001908152602001600020600083815260200190815260200160002060008201518160000160006101000a81548160ff0219169083151502179055506020820151816001015560408201518160020155606082015181600301556080820151816004015560a0820151816005015560c08201518160060160006101000a8154816001600160401b0302191690836001600160401b0316021790555060e08201518160060160086101000a8154816001600160401b0302191690836001600160401b031602179055506101008201518160060160106101000a81548160ff0219169083151502179055506101208201518160070160006101000a8154816001600160a01b0302191690836001600160a01b0316021790555090505060008051602061407d8339815191528a8a600033604051808563ffffffff168152602001846001600160401b03168152602001836003811115611b2457fe5b8152602001826001600160a01b0316815260200194505050505060405180910390a161230a565b63ffffffff8a16600090815260036020526040902054600160981b810461ffff16600160a81b9091046001600160401b03161115611f1c5760008a600360008d63ffffffff1663ffffffff16815260200190815260200160002060000160139054906101000a900461ffff1661ffff16600360008e63ffffffff1663ffffffff16815260200190815260200160002060000160159054906101000a90046001600160401b031603604051602001808363ffffffff1660e01b8152600401826001600160401b031660c01b8152600801925050506040516020818303038152906040528051906020012090508860056000838152602001908152602001600020600501541415611dde576000611c5e612d78565b90506001600760006005600086815260200190815260200160002060070160009054906101000a90046001600160a01b03166001600160a01b03166001600160a01b03168152602001908152602001600020600083815260200190815260200160002060008282829054906101000a90046001600160401b03160192506101000a8154816001600160401b0302191690836001600160401b0316021790555060016008600083815260200190815260200160002060008282829054906101000a90046001600160401b03160192506101000a8154816001600160401b0302191690836001600160401b0316021790555060008051602061407d8339815191528c8c60026005600087815260200190815260200160002060070160009054906101000a90046001600160a01b0316604051808563ffffffff168152602001846001600160401b03168152602001836003811115611db657fe5b8152602001826001600160a01b0316815260200194505050505060405180910390a150611f16565b600360008c63ffffffff1663ffffffff16815260200190815260200160002060030154600360008d63ffffffff1663ffffffff16815260200190815260200160002060000160139054906101000a900461ffff1661ffff16024201600960006005600085815260200190815260200160002060070160009054906101000a90046001600160a01b03166001600160a01b03166001600160a01b031681526020019081526020016000208190555060008051602061407d8339815191528b8b60036005600086815260200190815260200160002060070160009054906101000a90046001600160a01b0316604051808563ffffffff168152602001846001600160401b03168152602001836003811115611ef357fe5b8152602001826001600160a01b0316815260200194505050505060405180910390a15b50611f7e565b60008051602061407d8339815191528a8a600133604051808563ffffffff168152602001846001600160401b03168152602001836003811115611f5b57fe5b8152602001826001600160a01b0316815260200194505050505060405180910390a15b6040518061014001604052806001151581526020018981526020016000801b815260200160046000336001600160a01b03166001600160a01b0316815260200190815260200160002060008481526020019081526020016000206003015481526020014281526020018881526020018a6001600160401b0316815260200160006001600160401b03168152602001600115158152602001336001600160a01b03168152506005600083815260200190815260200160002060008201518160000160006101000a81548160ff0219169083151502179055506020820151816001015560408201518160020155606082015181600301556080820151816004015560a0820151816005015560c08201518160060160006101000a8154816001600160401b0302191690836001600160401b0316021790555060e08201518160060160086101000a8154816001600160401b0302191690836001600160401b031602179055506101008201518160060160106101000a81548160ff0219169083151502179055506101208201518160070160006101000a8154816001600160a01b0302191690836001600160a01b031602179055509050506001600360008c63ffffffff1663ffffffff16815260200190815260200160002060000160158282829054906101000a90046001600160401b03160192506101000a8154816001600160401b0302191690836001600160401b0316021790555088600360008c63ffffffff1663ffffffff16815260200190815260200160002060010160006101000a8154816001600160401b0302191690836001600160401b0316021790555060006002600360008d63ffffffff1663ffffffff16815260200190815260200160002060040154600360008e63ffffffff1663ffffffff1681526020019081526020016000206002015460046000336001600160a01b03166001600160a01b0316815260200190815260200160002060008681526020019081526020016000206003015403018161226757fe5b63ffffffff8d166000908152600360208190526040909120015491900491506002028111156122ba5763ffffffff8b166000908152600360208190526040909120908101546002026004909101556122d6565b63ffffffff8b1660009081526003602052604090206004018190555b50336000908152600460209081526040808320848452825280832060039081015463ffffffff8f1685529252909120600201555b5050505063ffffffff861660009081526003602052604090205495966000199590950195600160981b900461ffff169492505050565b63ffffffff851660009081526003602052604081205481908190889060ff1661239e576040805162461bcd60e51b81526020600482015260166024820152600080516020614173833981519152604482015290519081900360640190fd5b63ffffffff891660009081526006602090815260408083208b845290915290205460ff16612409576040805162461bcd60e51b81526020600482015260136024820152721d1e125908191bd95cc81b9bdd08195e1a5cdd606a1b604482015290519081900360640190fd5b604080516001600160401b0388166020808301919091528251808303820181528284018452805190820120606083018c9052608083018b905260a083015260c08083018990528351808403909101815260e0909201835281519181019190912063ffffffff8c166000908152600683528381208c82529092529190206005015481146124d2576040805162461bcd60e51b81526020600482015260136024820152720d2dcecc2d8d2c840e0c2f2dacadce890c2e6d606b1b604482015290519081900360640190fd5b5050505063ffffffff959095166000908152600660208181526040808420978452969052949020909301546001600160401b0380821696600160401b83049091169550600160801b90910460ff169350915050565b63ffffffff8416600090815260036020526040812054819081908190606090899060ff1661258a576040805162461bcd60e51b81526020600482015260166024820152600080516020614173833981519152604482015290519081900360640190fd5b6000876040516020018082805190602001908083835b602083106125bf5780518252601f1990920191602091820191016125a0565b6001836020036101000a038019825116818451168082178552505050505050905001915050604051602081830303815290604052805190602001209050600660008c63ffffffff1663ffffffff168152602001908152602001600020600082815260200190815260200160002060060160109054906101000a900460ff1615612685576040805162461bcd60e51b81526020600482015260136024820152723a3c24b21030b63932b0b23c90383937bb32b760691b604482015290519081900360640190fd5b63ffffffff8b16600090815260066020818152604080842085855290915290912001546001600160401b03808b169116106126f15760405162461bcd60e51b8152600401808060200182810382526034815260200180613f896034913960400191505060405180910390fd5b63ffffffff8b166000908152600360205260409020600101546001600160401b03908116908a16106127545760405162461bcd60e51b815260040180806020018281038252602e81526020018061404f602e913960400191505060405180910390fd5b63ffffffff8b166000908152600360205260409020546001600160401b036101008204811691600160481b900416156128355763ffffffff8c16600090815260036020526040902080546001909101546001600160401b03600160481b8304811661010090930481169181169190910316116128015760405162461bcd60e51b815260040180806020018281038252603981526020018061413a6039913960400191505060405180910390fd5b5063ffffffff8b16600090815260036020526040902080546001909101546001600160401b03600160481b90920482169116035b806001600160401b03168a6001600160401b0316101561289c576040805162461bcd60e51b815260206004820152601a60248201527f6c6564676572203c20696e646578536561726368526567696f6e000000000000604482015290519081900360640190fd5b413314806128ad575041600160981b145b6128fe576040805162461bcd60e51b815260206004820152601c60248201527f696e76616c696420626c6f636b2e636f696e626173652076616c756500000000604482015290519081900360640190fd5b4133148015612911575041600160981b14155b156111fa576040518061014001604052806001151581526020016000801b81526020016000801b8152602001600081526020014281526020018c81526020018b6001600160401b03168152602001826001600160401b03168152602001600015158152602001336001600160a01b0316815250600660008e63ffffffff1663ffffffff168152602001908152602001600020600084815260200190815260200160002060008201518160000160006101000a81548160ff0219169083151502179055506020820151816001015560408201518160020155606082015181600301556080820151816004015560a0820151816005015560c08201518160060160006101000a8154816001600160401b0302191690836001600160401b0316021790555060e08201518160060160086101000a8154816001600160401b0302191690836001600160401b031602179055506101008201518160060160106101000a81548160ff0219169083151502179055506101208201518160070160006101000a8154816001600160a01b0302191690836001600160a01b031602179055509050507fbcb0b925915042be1878d008c6a757ec966b40294f7aa336b7f9631bae9546e08c8b8b8e33604051808663ffffffff168152602001856001600160401b0316815260200180602001848152602001836001600160a01b0316815260200182810382528581815181526020019150805190602001908083836000838110156111bb5781810151838201526020016111a3565b6008602052600090815260409020546001600160401b031681565b60036020819052600091825260409091208054600182015460028301549383015460049093015460ff8316946001600160401b036101008504811695600160481b860482169561ffff600160881b8204811696600160981b830490911695600160a81b90920484169493169291908a565b600460208181526000938452604080852090915291835291208054600182015460028301546003840154948401546005850154600686015460079096015460ff9586169794969395929391926001600160401b0380841693600160401b810490911692600160801b909104909116906001600160a01b03168a565b6002546001600160401b031681565b6000908152600860205260409020546001600160401b031690565b6000546001600160a01b03163314612cc2576040805162461bcd60e51b8152602060048201819052602482015260008051602061409d833981519152604482015290519081900360640190fd5b63ffffffff8116600090815260036020526040902054819060ff16612d1c576040805162461bcd60e51b81526020600482015260166024820152600080516020614173833981519152604482015290519081900360640190fd5b63ffffffff82166000818152600360209081526040808320805460ff1916905580519384529083019190915280517faafc9c98d266e78a1be419db46ea91c1554f79cda759943d809f558ebcce25f09281900390910190a15050565b60006001544211612dba5760405162461bcd60e51b81526004018080602001828103825260218152602001806140e46021913960400191505060405180910390fd5b6002546001546001600160401b0390911690420381612dd557fe5b04905090565b6000546001600160a01b031681565b6000546001600160a01b03163314612e37576040805162461bcd60e51b8152602060048201819052602482015260008051602061409d833981519152604482015290519081900360640190fd5b60005463ffffffff600160a81b909104811690821610612e95576040805162461bcd60e51b8152602060048201526014602482015273636861696e4964203e3d206e756d436861696e7360601b604482015290519081900360640190fd5b63ffffffff811660009081526003602052604090205460ff1615612f00576040805162461bcd60e51b815260206004820152601e60248201527f636861696e735b636861696e49645d2e657869737473203d3d20747275650000604482015290519081900360640190fd5b63ffffffff8116600081815260036020908152604091829020805460ff1916600190811790915582519384529083015280517faafc9c98d266e78a1be419db46ea91c1554f79cda759943d809f558ebcce25f09281900390910190a150565b600054600160a81b900463ffffffff1681565b600660208181526000938452604080852090915291835291208054600182015460028301546003840154600485015460058601549686015460079096015460ff95861697949693959294919391926001600160401b0380841693600160401b810490911692600160801b909104909116906001600160a01b03168a565b60056020819052600091825260409091208054600182015460028301546003840154600485015495850154600686015460079096015460ff958616979496939592949391926001600160401b0380841693600160401b810490911692600160801b909104909116906001600160a01b03168a565b6000546001600160a01b031633146130b0576040805162461bcd60e51b8152602060048201819052602482015260008051602061409d833981519152604482015290519081900360640190fd5b60008054600160a81b900463ffffffff1681526003602052604090205460ff161561311b576040805162461bcd60e51b8152602060048201526016602482015275636861696e496420616c72656164792065786973747360501b604482015290519081900360640190fd5b60008361ffff161161316d576040805162461bcd60e51b81526020600482015260166024820152750636c61696d506572696f644c656e677468203d3d20360541b604482015290519081900360640190fd5b60008261ffff16116131be576040805162461bcd60e51b815260206004820152601560248201527406e756d436f6e6669726d6174696f6e73203d3d203605c1b604482015290519081900360640190fd5b8161ffff16856001600160401b0316116132095760405162461bcd60e51b815260040180806020018281038252602181526020018061402e6021913960400191505060405180910390fd5b604051806101400160405280600115158152602001866001600160401b03168152602001856001600160401b031681526020018461ffff1681526020018361ffff16815260200160006001600160401b03168152602001866001600160401b031681526020014281526020018281526020016000815250600360008060159054906101000a900463ffffffff1663ffffffff1663ffffffff16815260200190815260200160002060008201518160000160006101000a81548160ff02191690831515021790555060208201518160000160016101000a8154816001600160401b0302191690836001600160401b0316021790555060408201518160000160096101000a8154816001600160401b0302191690836001600160401b0316021790555060608201518160000160116101000a81548161ffff021916908361ffff16021790555060808201518160000160136101000a81548161ffff021916908361ffff16021790555060a08201518160000160156101000a8154816001600160401b0302191690836001600160401b0316021790555060c08201518160010160006101000a8154816001600160401b0302191690836001600160401b0316021790555060e08201518160020155610100820151816003015561012082015181600401559050507faafc9c98d266e78a1be419db46ea91c1554f79cda759943d809f558ebcce25f0600060159054906101000a900463ffffffff166001604051808363ffffffff16815260200182151581526020019250505060405180910390a150506000805463ffffffff600160a81b80830482166001019091160263ffffffff60a81b19909116179055505050565b63ffffffff8216600090815260036020526040812054839060ff166134d1576040805162461bcd60e51b81526020600482015260166024820152600080516020614173833981519152604482015290519081900360640190fd5b50506040805160e09390931b6001600160e01b03191660208085019190915260c09290921b6001600160c01b03191660248401528051808403600c018152602c909301815282519282019290922060009081526005909152205460ff1690565b6000546001600160a01b031690565b60008054600160a01b900460ff1615613597576040805162461bcd60e51b8152602060048201526014602482015273696e697469616c6973656420213d2066616c736560601b604482015290519081900360640190fd5b73fffec6c83c8bf5c3f4ae0ccf8c45ce20e4560bd76000806101000a8154816001600160a01b0302191690836001600160a01b03160217905550604051806101400160405280600115158152602001620a84946001600160401b0316815260200160006001600160401b03168152602001600161ffff168152602001600461ffff16815260200160006001600160401b03168152602001620a84946001600160401b0316815260200142815260200161038481526020016000815250600360008063ffffffff16815260200190815260200160002060008201518160000160006101000a81548160ff02191690831515021790555060208201518160000160016101000a8154816001600160401b0302191690836001600160401b0316021790555060408201518160000160096101000a8154816001600160401b0302191690836001600160401b0316021790555060608201518160000160116101000a81548161ffff021916908361ffff16021790555060808201518160000160136101000a81548161ffff021916908361ffff16021790555060a08201518160000160156101000a8154816001600160401b0302191690836001600160401b0316021790555060c08201518160010160006101000a8154816001600160401b0302191690836001600160401b0316021790555060e0820151816002015561010082015181600301556101208201518160040155905050604051806101400160405280600115158152602001621fd4de6001600160401b0316815260200160006001600160401b03168152602001600161ffff168152602001600c61ffff16815260200160006001600160401b03168152602001621fd4de6001600160401b0316815260200142815260200160968152602001600081525060036000600163ffffffff16815260200190815260200160002060008201518160000160006101000a81548160ff02191690831515021790555060208201518160000160016101000a8154816001600160401b0302191690836001600160401b0316021790555060408201518160000160096101000a8154816001600160401b0302191690836001600160401b0316021790555060608201518160000160116101000a81548161ffff021916908361ffff16021790555060808201518160000160136101000a81548161ffff021916908361ffff16021790555060a08201518160000160156101000a8154816001600160401b0302191690836001600160401b0316021790555060c08201518160010160006101000a8154816001600160401b0302191690836001600160401b0316021790555060e0820151816002015561010082015181600301556101208201518160040155905050604051806101400160405280600115158152602001623980b46001600160401b0316815260200160006001600160401b03168152602001600261ffff168152602001602861ffff16815260200160006001600160401b03168152602001623980b46001600160401b0316815260200142815260200160788152602001600081525060036000600263ffffffff16815260200190815260200160002060008201518160000160006101000a81548160ff02191690831515021790555060208201518160000160016101000a8154816001600160401b0302191690836001600160401b0316021790555060408201518160000160096101000a8154816001600160401b0302191690836001600160401b0316021790555060608201518160000160116101000a81548161ffff021916908361ffff16021790555060808201518160000160136101000a81548161ffff021916908361ffff16021790555060a08201518160000160156101000a8154816001600160401b0302191690836001600160401b0316021790555060c08201518160010160006101000a8154816001600160401b0302191690836001600160401b0316021790555060e08201518160020155610100820151816003015561012082015181600401559050506040518061014001604052806001151581526020016303bf79006001600160401b0316815260200160006001600160401b03168152602001601e61ffff168152602001600161ffff16815260200160006001600160401b031681526020016303bf79006001600160401b0316815260200142815260200160788152602001600081525060036000600363ffffffff16815260200190815260200160002060008201518160000160006101000a81548160ff02191690831515021790555060208201518160000160016101000a8154816001600160401b0302191690836001600160401b0316021790555060408201518160000160096101000a8154816001600160401b0302191690836001600160401b0316021790555060608201518160000160116101000a81548161ffff021916908361ffff16021790555060808201518160000160136101000a81548161ffff021916908361ffff16021790555060a08201518160000160156101000a8154816001600160401b0302191690836001600160401b0316021790555060c08201518160010160006101000a8154816001600160401b0302191690836001600160401b0316021790555060e082015181600201556101008201518160030155610120820151816004015590505060405180610140016040528060011515815260200163022339d86001600160401b0316815260200160006001600160401b03168152602001601461ffff168152602001600161ffff16815260200160006001600160401b0316815260200163022339d86001600160401b0316815260200142815260200160788152602001600081525060036000600463ffffffff16815260200190815260200160002060008201518160000160006101000a81548160ff02191690831515021790555060208201518160000160016101000a8154816001600160401b0302191690836001600160401b0316021790555060408201518160000160096101000a8154816001600160401b0302191690836001600160401b0316021790555060608201518160000160116101000a81548161ffff021916908361ffff16021790555060808201518160000160136101000a81548161ffff021916908361ffff16021790555060a08201518160000160156101000a8154816001600160401b0302191690836001600160401b0316021790555060c08201518160010160006101000a8154816001600160401b0302191690836001600160401b0316021790555060e08201518160020155610100820151816003015561012082015181600401559050506005600060156101000a81548163ffffffff021916908363ffffffff16021790555062093a80600260006101000a8154816001600160401b0302191690836001600160401b03160217905550426001819055506001600060146101000a81548160ff0219169083151502179055506001905090565b6001548156fe66696e616c697365645061796d656e74735b636861696e49645d5b74784964486173685d2e696e646578203e3d206c65646765726e6f7420656e6f7567682074696d6520656c61707365642073696e6365207072696f722066696e616c6974796d73672e73656e6465722069732063757272656e746c792062616e6e656420666f722073656e64696e6720616e20756e616363657074656420636861696e5469704861736867656e657369734c6564676572203c3d206e756d436f6e6669726d6174696f6e736c6564676572203e3d20636861696e735b636861696e49645d2e66696e616c697365644c6564676572496e64657868bdf9517964c4d6f62d70d4af5df70964b87308cf05b45434cd8c9a2befb9306d73672e73656e64657220213d20676f7665726e616e6365436f6e747261637470726576696f757320636c61696d20706572696f64206e6f74207965742066696e616c69736564626c6f636b2e74696d657374616d70203c3d20696e697469616c69736554696d65626c6f636b2e74696d657374616d70203c3d20636861696e735b636861696e49645d2e66696e616c6973656454696d657374616d7066696e616c697365644c6564676572496e646578202d2067656e657369734c6564676572203c3d206c6564676572486973746f727953697a65636861696e496420646f6573206e6f7420657869737400000000000000000000626c6f636b2e74696d657374616d70203c2070726f706f736564436c61696d506572696f64735b6d73672e73656e6465725d5b6c6f636174696f6e486173685d2e7065726d697474656452657665616c54696d65a2646970667358221220add1f53a64623b48f9ea029c7e9003c9ecf81578bfdd440e8ee60d9e13849af564736f6c63430007060033",
    "sourcePath": "/home/my-usern/flare/src/stateco/StateConnector.sol",
    "compiler": {
        "name": "solc",
        "version": "0.7.6+commit.7338295f"
    },
    "functionHashes": {
        "addChain(uint64,uint64,uint16,uint16,uint256)": "dbcfda27",
        "chains(uint32)": "8b203dd4",
        "claimPeriodsMined(address,uint256)": "20e0cb93",
        "disableChain(uint32)": "a060b647",
        "disprovePaymentFinality(uint32,bytes32,uint64,string)": "7f582432",
        "enableChain(uint32)": "c1b0e574",
        "finalisedClaimPeriods(bytes32)": "d9b49e26",
        "finalisedPayments(uint32,bytes32)": "d46117aa",
        "getClaimPeriodIndexFinality(uint32,uint64)": "e54caf92",
        "getClaimPeriodsMined(address,uint256)": "49d5436f",
        "getGovernanceContract()": "ef2fa85f",
        "getLatestIndex(uint32)": "2a2434a2",
        "getPaymentFinality(uint32,bytes32,bytes32,uint64,bytes32)": "71e8d61a",
        "getRewardPeriod()": "adc89032",
        "getTotalClaimPeriodsMined(uint256)": "9e93bed9",
        "governanceContract()": "b172b222",
        "initialiseChains()": "ef4c169e",
        "initialiseTime()": "f9c490ee",
        "initialised()": "07003bb4",
        "numChains()": "d3fb3e9f",
        "proposedClaimPeriods(address,bytes32)": "8cce75ff",
        "proveClaimPeriodFinality(uint32,uint64,bytes32,bytes32)": "56ec93e7",
        "provePaymentFinality(uint32,bytes32,uint64,string)": "388492dd",
        "rewardPeriodTimespan()": "9c531f8c",
        "senderBannedUntil(address)": "22ce7387",
        "setGovernanceContract(address)": "1129753f",
        "totalClaimPeriodsMined(uint256)": "822d15d7"
    },
    "gasEstimates": {
        "creation": {
            "codeDepositCost": "3384800",
            "executionCost": "3771",
            "totalCost": "3388571"
        },
        "external": {
            "addChain(uint64,uint64,uint16,uint16,uint256)": "infinite",
            "chains(uint32)": "4861",
            "claimPeriodsMined(address,uint256)": "1318",
            "disableChain(uint32)": "infinite",
            "disprovePaymentFinality(uint32,bytes32,uint64,string)": "infinite",
            "enableChain(uint32)": "infinite",
            "finalisedClaimPeriods(bytes32)": "7236",
            "finalisedPayments(uint32,bytes32)": "7301",
            "getClaimPeriodIndexFinality(uint32,uint64)": "infinite",
            "getClaimPeriodsMined(address,uint256)": "1320",
            "getGovernanceContract()": "1103",
            "getLatestIndex(uint32)": "infinite",
            "getPaymentFinality(uint32,bytes32,bytes32,uint64,bytes32)": "infinite",
            "getRewardPeriod()": "infinite",
            "getTotalClaimPeriodsMined(uint256)": "1213",
            "governanceContract()": "1104",
            "initialiseChains()": "1064607",
            "initialiseTime()": "1108",
            "initialised()": "1051",
            "numChains()": "1141",
            "proposedClaimPeriods(address,bytes32)": "7373",
            "proveClaimPeriodFinality(uint32,uint64,bytes32,bytes32)": "infinite",
            "provePaymentFinality(uint32,bytes32,uint64,string)": "infinite",
            "rewardPeriodTimespan()": "1083",
            "senderBannedUntil(address)": "1214",
            "setGovernanceContract(address)": "infinite",
            "totalClaimPeriodsMined(uint256)": "1212"
        }
    }
}