{
    "contractName": "StateConnector",
    "abi": [
        {
            "inputs": [],
            "stateMutability": "nonpayable",
            "type": "constructor"
        },
        {
            "anonymous": false,
            "inputs": [
                {
                    "indexed": false,
                    "internalType": "uint32",
                    "name": "chainId",
                    "type": "uint32"
                },
                {
                    "indexed": false,
                    "internalType": "uint64",
                    "name": "ledger",
                    "type": "uint64"
                },
                {
                    "indexed": false,
                    "internalType": "enum StateConnector.DataAvailPeriodFinalityType",
                    "name": "finType",
                    "type": "uint8"
                },
                {
                    "indexed": false,
                    "internalType": "address",
                    "name": "sender",
                    "type": "address"
                }
            ],
            "name": "DataAvailPeriodFinalityProved",
            "type": "event"
        },
        {
            "anonymous": false,
            "inputs": [
                {
                    "indexed": false,
                    "internalType": "uint32",
                    "name": "chainId",
                    "type": "uint32"
                },
                {
                    "indexed": false,
                    "internalType": "uint64",
                    "name": "ledger",
                    "type": "uint64"
                },
                {
                    "indexed": false,
                    "internalType": "string",
                    "name": "txId",
                    "type": "string"
                },
                {
                    "indexed": false,
                    "internalType": "bytes32",
                    "name": "paymentHash",
                    "type": "bytes32"
                },
                {
                    "indexed": false,
                    "internalType": "address",
                    "name": "sender",
                    "type": "address"
                }
            ],
            "name": "PaymentFinalityDisproved",
            "type": "event"
        },
        {
            "anonymous": false,
            "inputs": [
                {
                    "indexed": false,
                    "internalType": "uint32",
                    "name": "chainId",
                    "type": "uint32"
                },
                {
                    "indexed": false,
                    "internalType": "uint64",
                    "name": "ledger",
                    "type": "uint64"
                },
                {
                    "indexed": false,
                    "internalType": "string",
                    "name": "txId",
                    "type": "string"
                },
                {
                    "indexed": false,
                    "internalType": "bytes32",
                    "name": "paymentHash",
                    "type": "bytes32"
                },
                {
                    "indexed": false,
                    "internalType": "address",
                    "name": "sender",
                    "type": "address"
                }
            ],
            "name": "PaymentFinalityProved",
            "type": "event"
        },
        {
            "inputs": [
                {
                    "internalType": "uint32",
                    "name": "",
                    "type": "uint32"
                }
            ],
            "name": "chains",
            "outputs": [
                {
                    "internalType": "bool",
                    "name": "exists",
                    "type": "bool"
                },
                {
                    "internalType": "uint64",
                    "name": "genesisLedger",
                    "type": "uint64"
                },
                {
                    "internalType": "uint64",
                    "name": "ledgerHistorySize",
                    "type": "uint64"
                },
                {
                    "internalType": "uint16",
                    "name": "dataAvailPeriodLength",
                    "type": "uint16"
                },
                {
                    "internalType": "uint16",
                    "name": "numConfirmations",
                    "type": "uint16"
                },
                {
                    "internalType": "uint64",
                    "name": "finalisedDataAvailPeriodIndex",
                    "type": "uint64"
                },
                {
                    "internalType": "uint64",
                    "name": "finalisedLedgerIndex",
                    "type": "uint64"
                },
                {
                    "internalType": "uint256",
                    "name": "finalisedTimestamp",
                    "type": "uint256"
                },
                {
                    "internalType": "uint256",
                    "name": "timeDiffExpected",
                    "type": "uint256"
                },
                {
                    "internalType": "uint256",
                    "name": "timeDiffAvg",
                    "type": "uint256"
                }
            ],
            "stateMutability": "view",
            "type": "function"
        },
        {
            "inputs": [
                {
                    "internalType": "address",
                    "name": "",
                    "type": "address"
                },
                {
                    "internalType": "uint256",
                    "name": "",
                    "type": "uint256"
                }
            ],
            "name": "dataAvailPeriodsMined",
            "outputs": [
                {
                    "internalType": "uint64",
                    "name": "",
                    "type": "uint64"
                }
            ],
            "stateMutability": "view",
            "type": "function"
        },
        {
            "inputs": [
                {
                    "internalType": "uint32",
                    "name": "chainId",
                    "type": "uint32"
                },
                {
                    "internalType": "bytes32",
                    "name": "paymentHash",
                    "type": "bytes32"
                },
                {
                    "internalType": "uint64",
                    "name": "ledger",
                    "type": "uint64"
                },
                {
                    "internalType": "string",
                    "name": "txId",
                    "type": "string"
                }
            ],
            "name": "disprovePaymentFinality",
            "outputs": [
                {
                    "internalType": "uint32",
                    "name": "_chainId",
                    "type": "uint32"
                },
                {
                    "internalType": "uint64",
                    "name": "_ledger",
                    "type": "uint64"
                },
                {
                    "internalType": "uint64",
                    "name": "finalisedLedgerIndex",
                    "type": "uint64"
                },
                {
                    "internalType": "bytes32",
                    "name": "_paymentHash",
                    "type": "bytes32"
                },
                {
                    "internalType": "string",
                    "name": "_txId",
                    "type": "string"
                }
            ],
            "stateMutability": "nonpayable",
            "type": "function"
        },
        {
            "inputs": [
                {
                    "internalType": "bytes32",
                    "name": "",
                    "type": "bytes32"
                }
            ],
            "name": "finalisedDataAvailPeriods",
            "outputs": [
                {
                    "internalType": "bool",
                    "name": "exists",
                    "type": "bool"
                },
                {
                    "internalType": "bytes32",
                    "name": "dataAvailPeriodHash",
                    "type": "bytes32"
                },
                {
                    "internalType": "bytes32",
                    "name": "commitHash",
                    "type": "bytes32"
                },
                {
                    "internalType": "uint256",
                    "name": "commitTime",
                    "type": "uint256"
                },
                {
                    "internalType": "uint256",
                    "name": "permittedRevealTime",
                    "type": "uint256"
                },
                {
                    "internalType": "bytes32",
                    "name": "revealHash",
                    "type": "bytes32"
                },
                {
                    "internalType": "uint64",
                    "name": "index",
                    "type": "uint64"
                },
                {
                    "internalType": "uint64",
                    "name": "indexSearchRegion",
                    "type": "uint64"
                },
                {
                    "internalType": "bool",
                    "name": "proven",
                    "type": "bool"
                },
                {
                    "internalType": "address",
                    "name": "provenBy",
                    "type": "address"
                }
            ],
            "stateMutability": "view",
            "type": "function"
        },
        {
            "inputs": [
                {
                    "internalType": "uint32",
                    "name": "",
                    "type": "uint32"
                },
                {
                    "internalType": "bytes32",
                    "name": "",
                    "type": "bytes32"
                }
            ],
            "name": "finalisedPayments",
            "outputs": [
                {
                    "internalType": "bool",
                    "name": "exists",
                    "type": "bool"
                },
                {
                    "internalType": "bytes32",
                    "name": "dataAvailPeriodHash",
                    "type": "bytes32"
                },
                {
                    "internalType": "bytes32",
                    "name": "commitHash",
                    "type": "bytes32"
                },
                {
                    "internalType": "uint256",
                    "name": "commitTime",
                    "type": "uint256"
                },
                {
                    "internalType": "uint256",
                    "name": "permittedRevealTime",
                    "type": "uint256"
                },
                {
                    "internalType": "bytes32",
                    "name": "revealHash",
                    "type": "bytes32"
                },
                {
                    "internalType": "uint64",
                    "name": "index",
                    "type": "uint64"
                },
                {
                    "internalType": "uint64",
                    "name": "indexSearchRegion",
                    "type": "uint64"
                },
                {
                    "internalType": "bool",
                    "name": "proven",
                    "type": "bool"
                },
                {
                    "internalType": "address",
                    "name": "provenBy",
                    "type": "address"
                }
            ],
            "stateMutability": "view",
            "type": "function"
        },
        {
            "inputs": [
                {
                    "internalType": "uint32",
                    "name": "chainId",
                    "type": "uint32"
                },
                {
                    "internalType": "uint64",
                    "name": "dataAvailPeriodIndex",
                    "type": "uint64"
                }
            ],
            "name": "getDataAvailPeriodIndexFinality",
            "outputs": [
                {
                    "internalType": "bool",
                    "name": "finality",
                    "type": "bool"
                }
            ],
            "stateMutability": "view",
            "type": "function"
        },
        {
            "inputs": [
                {
                    "internalType": "address",
                    "name": "miner",
                    "type": "address"
                },
                {
                    "internalType": "uint256",
                    "name": "rewardSchedule",
                    "type": "uint256"
                }
            ],
            "name": "getDataAvailPeriodsMined",
            "outputs": [
                {
                    "internalType": "uint64",
                    "name": "numMined",
                    "type": "uint64"
                }
            ],
            "stateMutability": "view",
            "type": "function"
        },
        {
            "inputs": [
                {
                    "internalType": "uint32",
                    "name": "chainId",
                    "type": "uint32"
                }
            ],
            "name": "getLatestIndex",
            "outputs": [
                {
                    "internalType": "uint64",
                    "name": "genesisLedger",
                    "type": "uint64"
                },
                {
                    "internalType": "uint64",
                    "name": "finalisedDataAvailPeriodIndex",
                    "type": "uint64"
                },
                {
                    "internalType": "uint16",
                    "name": "dataAvailPeriodLength",
                    "type": "uint16"
                },
                {
                    "internalType": "uint64",
                    "name": "finalisedLedgerIndex",
                    "type": "uint64"
                },
                {
                    "internalType": "uint256",
                    "name": "finalisedTimestamp",
                    "type": "uint256"
                },
                {
                    "internalType": "uint256",
                    "name": "timeDiffAvg",
                    "type": "uint256"
                }
            ],
            "stateMutability": "view",
            "type": "function"
        },
        {
            "inputs": [
                {
                    "internalType": "uint32",
                    "name": "chainId",
                    "type": "uint32"
                },
                {
                    "internalType": "bytes32",
                    "name": "txId",
                    "type": "bytes32"
                },
                {
                    "internalType": "bytes32",
                    "name": "destinationHash",
                    "type": "bytes32"
                },
                {
                    "internalType": "uint64",
                    "name": "amount",
                    "type": "uint64"
                },
                {
                    "internalType": "bytes32",
                    "name": "currencyHash",
                    "type": "bytes32"
                }
            ],
            "name": "getPaymentFinality",
            "outputs": [
                {
                    "internalType": "uint64",
                    "name": "ledger",
                    "type": "uint64"
                },
                {
                    "internalType": "uint64",
                    "name": "indexSearchRegion",
                    "type": "uint64"
                },
                {
                    "internalType": "bool",
                    "name": "finality",
                    "type": "bool"
                }
            ],
            "stateMutability": "view",
            "type": "function"
        },
        {
            "inputs": [],
            "name": "getRewardPeriod",
            "outputs": [
                {
                    "internalType": "uint256",
                    "name": "rewardSchedule",
                    "type": "uint256"
                }
            ],
            "stateMutability": "view",
            "type": "function"
        },
        {
            "inputs": [
                {
                    "internalType": "uint256",
                    "name": "rewardSchedule",
                    "type": "uint256"
                }
            ],
            "name": "getTotalDataAvailPeriodsMined",
            "outputs": [
                {
                    "internalType": "uint64",
                    "name": "numMined",
                    "type": "uint64"
                }
            ],
            "stateMutability": "view",
            "type": "function"
        },
        {
            "inputs": [],
            "name": "initialiseChains",
            "outputs": [
                {
                    "internalType": "bool",
                    "name": "success",
                    "type": "bool"
                }
            ],
            "stateMutability": "nonpayable",
            "type": "function"
        },
        {
            "inputs": [],
            "name": "initialiseTime",
            "outputs": [
                {
                    "internalType": "uint256",
                    "name": "",
                    "type": "uint256"
                }
            ],
            "stateMutability": "view",
            "type": "function"
        },
        {
            "inputs": [],
            "name": "initialised",
            "outputs": [
                {
                    "internalType": "bool",
                    "name": "",
                    "type": "bool"
                }
            ],
            "stateMutability": "view",
            "type": "function"
        },
        {
            "inputs": [],
            "name": "numChains",
            "outputs": [
                {
                    "internalType": "uint32",
                    "name": "",
                    "type": "uint32"
                }
            ],
            "stateMutability": "view",
            "type": "function"
        },
        {
            "inputs": [],
            "name": "paymentCommitDelay",
            "outputs": [
                {
                    "internalType": "uint64",
                    "name": "",
                    "type": "uint64"
                }
            ],
            "stateMutability": "view",
            "type": "function"
        },
        {
            "inputs": [
                {
                    "internalType": "address",
                    "name": "",
                    "type": "address"
                },
                {
                    "internalType": "bytes32",
                    "name": "",
                    "type": "bytes32"
                }
            ],
            "name": "proposedDataAvailProofs",
            "outputs": [
                {
                    "internalType": "bool",
                    "name": "exists",
                    "type": "bool"
                },
                {
                    "internalType": "bytes32",
                    "name": "dataAvailPeriodHash",
                    "type": "bytes32"
                },
                {
                    "internalType": "bytes32",
                    "name": "commitHash",
                    "type": "bytes32"
                },
                {
                    "internalType": "uint256",
                    "name": "commitTime",
                    "type": "uint256"
                },
                {
                    "internalType": "uint256",
                    "name": "permittedRevealTime",
                    "type": "uint256"
                },
                {
                    "internalType": "bytes32",
                    "name": "revealHash",
                    "type": "bytes32"
                },
                {
                    "internalType": "uint64",
                    "name": "index",
                    "type": "uint64"
                },
                {
                    "internalType": "uint64",
                    "name": "indexSearchRegion",
                    "type": "uint64"
                },
                {
                    "internalType": "bool",
                    "name": "proven",
                    "type": "bool"
                },
                {
                    "internalType": "address",
                    "name": "provenBy",
                    "type": "address"
                }
            ],
            "stateMutability": "view",
            "type": "function"
        },
        {
            "inputs": [
                {
                    "internalType": "uint32",
                    "name": "",
                    "type": "uint32"
                },
                {
                    "internalType": "bytes32",
                    "name": "",
                    "type": "bytes32"
                }
            ],
            "name": "proposedNonPaymentProofs",
            "outputs": [
                {
                    "internalType": "bool",
                    "name": "exists",
                    "type": "bool"
                },
                {
                    "internalType": "bytes32",
                    "name": "dataAvailPeriodHash",
                    "type": "bytes32"
                },
                {
                    "internalType": "bytes32",
                    "name": "commitHash",
                    "type": "bytes32"
                },
                {
                    "internalType": "uint256",
                    "name": "commitTime",
                    "type": "uint256"
                },
                {
                    "internalType": "uint256",
                    "name": "permittedRevealTime",
                    "type": "uint256"
                },
                {
                    "internalType": "bytes32",
                    "name": "revealHash",
                    "type": "bytes32"
                },
                {
                    "internalType": "uint64",
                    "name": "index",
                    "type": "uint64"
                },
                {
                    "internalType": "uint64",
                    "name": "indexSearchRegion",
                    "type": "uint64"
                },
                {
                    "internalType": "bool",
                    "name": "proven",
                    "type": "bool"
                },
                {
                    "internalType": "address",
                    "name": "provenBy",
                    "type": "address"
                }
            ],
            "stateMutability": "view",
            "type": "function"
        },
        {
            "inputs": [
                {
                    "internalType": "uint32",
                    "name": "",
                    "type": "uint32"
                },
                {
                    "internalType": "bytes32",
                    "name": "",
                    "type": "bytes32"
                }
            ],
            "name": "proposedPaymentProofs",
            "outputs": [
                {
                    "internalType": "bool",
                    "name": "exists",
                    "type": "bool"
                },
                {
                    "internalType": "bytes32",
                    "name": "dataAvailPeriodHash",
                    "type": "bytes32"
                },
                {
                    "internalType": "bytes32",
                    "name": "commitHash",
                    "type": "bytes32"
                },
                {
                    "internalType": "uint256",
                    "name": "commitTime",
                    "type": "uint256"
                },
                {
                    "internalType": "uint256",
                    "name": "permittedRevealTime",
                    "type": "uint256"
                },
                {
                    "internalType": "bytes32",
                    "name": "revealHash",
                    "type": "bytes32"
                },
                {
                    "internalType": "uint64",
                    "name": "index",
                    "type": "uint64"
                },
                {
                    "internalType": "uint64",
                    "name": "indexSearchRegion",
                    "type": "uint64"
                },
                {
                    "internalType": "bool",
                    "name": "proven",
                    "type": "bool"
                },
                {
                    "internalType": "address",
                    "name": "provenBy",
                    "type": "address"
                }
            ],
            "stateMutability": "view",
            "type": "function"
        },
        {
            "inputs": [
                {
                    "internalType": "uint32",
                    "name": "chainId",
                    "type": "uint32"
                },
                {
                    "internalType": "uint64",
                    "name": "ledger",
                    "type": "uint64"
                },
                {
                    "internalType": "bytes32",
                    "name": "dataAvailPeriodHash",
                    "type": "bytes32"
                },
                {
                    "internalType": "bytes32",
                    "name": "chainTipHash",
                    "type": "bytes32"
                }
            ],
            "name": "proveDataAvailPeriodFinality",
            "outputs": [
                {
                    "internalType": "uint32",
                    "name": "_chainId",
                    "type": "uint32"
                },
                {
                    "internalType": "uint64",
                    "name": "_ledger",
                    "type": "uint64"
                },
                {
                    "internalType": "uint16",
                    "name": "numConfirmations",
                    "type": "uint16"
                },
                {
                    "internalType": "bytes32",
                    "name": "_dataAvailPeriodHash",
                    "type": "bytes32"
                }
            ],
            "stateMutability": "nonpayable",
            "type": "function"
        },
        {
            "inputs": [
                {
                    "internalType": "uint32",
                    "name": "chainId",
                    "type": "uint32"
                },
                {
                    "internalType": "bytes32",
                    "name": "paymentHash",
                    "type": "bytes32"
                },
                {
                    "internalType": "uint64",
                    "name": "ledger",
                    "type": "uint64"
                },
                {
                    "internalType": "string",
                    "name": "txId",
                    "type": "string"
                }
            ],
            "name": "provePaymentFinality",
            "outputs": [
                {
                    "internalType": "uint32",
                    "name": "_chainId",
                    "type": "uint32"
                },
                {
                    "internalType": "uint64",
                    "name": "_ledger",
                    "type": "uint64"
                },
                {
                    "internalType": "uint64",
                    "name": "finalisedLedgerIndex",
                    "type": "uint64"
                },
                {
                    "internalType": "bytes32",
                    "name": "_paymentHash",
                    "type": "bytes32"
                },
                {
                    "internalType": "string",
                    "name": "_txId",
                    "type": "string"
                }
            ],
            "stateMutability": "nonpayable",
            "type": "function"
        },
        {
            "inputs": [],
            "name": "revealTimespan",
            "outputs": [
                {
                    "internalType": "uint64",
                    "name": "",
                    "type": "uint64"
                }
            ],
            "stateMutability": "view",
            "type": "function"
        },
        {
            "inputs": [],
            "name": "rewardPeriodTimespan",
            "outputs": [
                {
                    "internalType": "uint64",
                    "name": "",
                    "type": "uint64"
                }
            ],
            "stateMutability": "view",
            "type": "function"
        },
        {
            "inputs": [
                {
                    "internalType": "address",
                    "name": "",
                    "type": "address"
                }
            ],
            "name": "senderBannedUntil",
            "outputs": [
                {
                    "internalType": "uint256",
                    "name": "",
                    "type": "uint256"
                }
            ],
            "stateMutability": "view",
            "type": "function"
        },
        {
            "inputs": [
                {
                    "internalType": "uint256",
                    "name": "",
                    "type": "uint256"
                }
            ],
            "name": "totalDataAvailPeriodsMined",
            "outputs": [
                {
                    "internalType": "uint64",
                    "name": "",
                    "type": "uint64"
                }
            ],
            "stateMutability": "view",
            "type": "function"
        }
    ],
    "bytecode": "608060405234801561001057600080fd5b50614201806100206000396000f3fe608060405234801561001057600080fd5b50600436106101725760003560e01c80638b203dd4116100de578063d3fb3e9f11610097578063e8b174b411610071578063e8b174b4146107eb578063ef4c169e14610817578063f9c490ee1461081f578063fade26ae1461082757610172565b8063d3fb3e9f14610784578063d46117aa146107a5578063e3fe3fbf146107ce57610172565b80638b203dd4146106845780639c531f8c1461070e578063a79ab7f614610716578063adc8903214610748578063b02bca3c14610750578063cbdd18821461077c57610172565b806334cb37c71161013057806334cb37c71461037a578063388492dd14610397578063464c6e931461050b5780634897b35b1461052f57806371e8d61a1461054c5780637f582432146105bc57610172565b8062192843146101775780630214b9c6146102095780630525cb9c1461023557806307003bb4146102ab57806322ce7387146102c75780632a2434a2146102ff575b600080fd5b6101a06004803603604081101561018d57600080fd5b5063ffffffff8135169060200135610850565b604080519a15158b5260208b0199909952898901979097526060890195909552608088019390935260a08701919091526001600160401b0390811660c08701521660e085015215156101008401526001600160a01b031661012083015251908190036101400190f35b6101a06004803603604081101561021f57600080fd5b506001600160a01b0381351690602001356108cd565b6102736004803603608081101561024b57600080fd5b5063ffffffff813516906001600160401b036020820135169060408101359060600135610948565b6040805163ffffffff90951685526001600160401b03909316602085015261ffff909116838301526060830152519081900360800190f35b6102b3611ad7565b604080519115158252519081900360200190f35b6102ed600480360360208110156102dd57600080fd5b50356001600160a01b0316611ae0565b60408051918252519081900360200190f35b6103226004803603602081101561031557600080fd5b503563ffffffff16611af2565b60405180876001600160401b03168152602001866001600160401b031681526020018561ffff168152602001846001600160401b03168152602001838152602001828152602001965050505050505060405180910390f35b6101a06004803603602081101561039057600080fd5b5035611ce0565b61045f600480360360808110156103ad57600080fd5b63ffffffff823516916020810135916001600160401b0360408301351691908101906080810160608201356401000000008111156103ea57600080fd5b8201836020820111156103fc57600080fd5b8035906020019184600183028401116401000000008311171561041e57600080fd5b91908080601f016020809104026020016040519081016040528093929190818152602001838380828437600092019190915250929550611d54945050505050565b604051808663ffffffff168152602001856001600160401b03168152602001846001600160401b0316815260200183815260200180602001828103825283818151815260200191508051906020019080838360005b838110156104cc5781810151838201526020016104b4565b50505050905090810190601f1680156104f95780820380516001836020036101000a031916815260200191505b50965050505050505060405180910390f35b610513612720565b604080516001600160401b039092168252519081900360200190f35b6105136004803603602081101561054557600080fd5b503561272f565b610590600480360360a081101561056257600080fd5b5063ffffffff813516906020810135906040810135906001600160401b03606082013516906080013561274a565b604080516001600160401b03948516815292909316602083015215158183015290519081900360600190f35b61045f600480360360808110156105d257600080fd5b63ffffffff823516916020810135916001600160401b03604083013516919081019060808101606082013564010000000081111561060f57600080fd5b82018360208201111561062157600080fd5b8035906020019184600183028401116401000000008311171561064357600080fd5b91908080601f01602080910402602001604051908101604052809392919081815260200183838082843760009201919091525092955061293c945050505050565b6106a76004803603602081101561069a57600080fd5b503563ffffffff1661331b565b604080519a15158b526001600160401b03998a1660208c01529789168a89015261ffff96871660608b015294909516608089015291861660a088015290941660c086015260e085019390935261010084015261012083019190915251908190036101400190f35b61051361338c565b6102b36004803603604081101561072c57600080fd5b50803563ffffffff1690602001356001600160401b03166133a2565b6102ed61345c565b6105136004803603604081101561076657600080fd5b506001600160a01b0381351690602001356134c5565b6105136134eb565b61078c613501565b6040805163ffffffff9092168252519081900360200190f35b6101a0600480360360408110156107bb57600080fd5b5063ffffffff8135169060200135613512565b610513600480360360208110156107e457600080fd5b5035613590565b6105136004803603604081101561080157600080fd5b506001600160a01b0381351690602001356135ab565b6102b36135dc565b6102ed613e54565b6101a06004803603604081101561083d57600080fd5b5063ffffffff8135169060200135613e5a565b600660208181526000938452604080852090915291835291208054600182015460028301546003840154600485015460058601549686015460079096015460ff95861697949693959294919391926001600160401b0380841693600160401b810490911692600160801b909104909116906001600160a01b03168a565b600460208181526000938452604080852090915291835291208054600182015460028301546003840154948401546005850154600686015460079096015460ff9586169794969395929391926001600160401b0380841693600160401b810490911692600160801b909104909116906001600160a01b03168a565b63ffffffff8416600090815260036020526040812054819081908190889060ff166109a8576040805162461bcd60e51b815260206004820152601660248201526000805160206141ac833981519152604482015290519081900360640190fd5b336000908152600b602052604090205442116109f55760405162461bcd60e51b8152600401808060200182810382526045815260200180613f246045913960600191505060405180910390fd5b86610a47576040805162461bcd60e51b815260206004820152601a60248201527f64617461417661696c506572696f6448617368203d3d20307830000000000000604482015290519081900360640190fd5b85610a8f576040805162461bcd60e51b81526020600482015260136024820152720636861696e54697048617368203d3d2030783606c1b604482015290519081900360640190fd5b41331480610aa0575041600160981b145b610af1576040805162461bcd60e51b815260206004820152601c60248201527f696e76616c696420626c6f636b2e636f696e626173652076616c756500000000604482015290519081900360640190fd5b63ffffffff891660009081526003602052604090208054600190910154600160881b90910461ffff166001600160401b0391821601811690891614610b6e576040805162461bcd60e51b815260206004820152600e60248201526d34b73b30b634b2103632b233b2b960911b604482015290519081900360640190fd5b63ffffffff89166000908152600360205260409020600201544211610bc45760405162461bcd60e51b815260040180806020018281038252603581526020018061413e6035913960400191505060405180910390fd5b63ffffffff89166000908152600360208190526040909120908101546004909101546002021015610c5e5763ffffffff891660009081526003602081905260409091206004810154600291820154910242919091039091021015610c595760405162461bcd60e51b815260040180806020018281038252602c815260200180613ef8602c913960400191505060405180910390fd5b610cc0565b63ffffffff8916600090815260036020526040902060048101546002909101544203600f011015610cc05760405162461bcd60e51b815260040180806020018281038252602c815260200180613ef8602c913960400191505060405180910390fd5b63ffffffff8916600090815260036020908152604080832054815160e08e901b6001600160e01b03191681850152600160a81b90910460c01b6001600160c01b03191660248201528151808203600c018152602c9091018252805190830120808452600590925290912060060154600160801b900460ff1615610d8a576040805162461bcd60e51b815260206004820152601e60248201527f6c6f636174696f6e4861736820616c72656164792066696e616c697365640000604482015290519081900360640190fd5b63ffffffff8a16600090815260036020526040902054600160a81b90046001600160401b031615610e965760008a6001600360008e63ffffffff1663ffffffff16815260200190815260200160002060000160159054906101000a90046001600160401b031603604051602001808363ffffffff1660e01b8152600401826001600160401b031660c01b8152600801925050506040516020818303038152906040528051906020012090506005600082815260200190815260200160002060060160109054906101000a900460ff16610e945760405162461bcd60e51b815260040180806020018281038252602a815260200180613fa0602a913960400191505060405180910390fd5b505b33600090815260046020908152604080832084845290915281205460ff161561102c573360009081526004602081815260408084208685529091529091200154421015610f145760405162461bcd60e51b81526004018080602001828103825260578152602001806140e76057913960600191505060405180910390fd5b6040805133606081901b60208084019190915260348084018d90528451808503909101815260549093018452825192810192909220600091825260048352838220868352909252919091206002015414610fac576040805162461bcd60e51b81526020600482015260146024820152730d2dcecc2d8d2c840c6d0c2d2dca8d2e090c2e6d60631b604482015290519081900360640190fd5b60025433600090815260046020908152604080832086845290915290206003015442600160401b9092046001600160401b03160111611027576040805162461bcd60e51b815260206004820152601260248201527172657665616c20697320746f6f206c61746560701b604482015290519081900360640190fd5b611067565b41331480159061103f575041600160981b145b15611067575063ffffffff8a16600090815260036020526040902054600160981b900461ffff165b413314801561107a575041600160981b14155b15611ac25733600090815260046020908152604080832085845290915290205460ff166112d5576040518061014001604052806001151581526020018a81526020018981526020014281526020016002600360008f63ffffffff1663ffffffff16815260200190815260200160002060040154816110f457fe5b04420181526020016000801b81526020018b6001600160401b0316815260200160006001600160401b0316815260200160001515815260200160006001600160a01b031681525060046000336001600160a01b03166001600160a01b03168152602001908152602001600020600084815260200190815260200160002060008201518160000160006101000a81548160ff0219169083151502179055506020820151816001015560408201518160020155606082015181600301556080820151816004015560a0820151816005015560c08201518160060160006101000a8154816001600160401b0302191690836001600160401b0316021790555060e08201518160060160086101000a8154816001600160401b0302191690836001600160401b031602179055506101008201518160060160106101000a81548160ff0219169083151502179055506101208201518160070160006101000a8154816001600160a01b0302191690836001600160a01b03160217905550905050600080516020613ed88339815191528b8b600033604051808563ffffffff168152602001846001600160401b031681526020018360038111156112ae57fe5b8152602001826001600160a01b0316815260200194505050505060405180910390a1611ac2565b63ffffffff8b16600090815260036020526040902054600160981b810461ffff16600160a81b9091046001600160401b031611156116a65760008b600360008e63ffffffff1663ffffffff16815260200190815260200160002060000160139054906101000a900461ffff1661ffff16600360008f63ffffffff1663ffffffff16815260200190815260200160002060000160159054906101000a90046001600160401b031603604051602001808363ffffffff1660e01b8152600401826001600160401b031660c01b81526008019250505060405160208183030381529060405280519060200120905089600560008381526020019081526020016000206005015414156115685760006113e861345c565b90506001600960006005600086815260200190815260200160002060070160009054906101000a90046001600160a01b03166001600160a01b03166001600160a01b03168152602001908152602001600020600083815260200190815260200160002060008282829054906101000a90046001600160401b03160192506101000a8154816001600160401b0302191690836001600160401b031602179055506001600a600083815260200190815260200160002060008282829054906101000a90046001600160401b03160192506101000a8154816001600160401b0302191690836001600160401b03160217905550600080516020613ed88339815191528d8d60026005600087815260200190815260200160002060070160009054906101000a90046001600160a01b0316604051808563ffffffff168152602001846001600160401b0316815260200183600381111561154057fe5b8152602001826001600160a01b0316815260200194505050505060405180910390a1506116a0565b600360008d63ffffffff1663ffffffff16815260200190815260200160002060030154600360008e63ffffffff1663ffffffff16815260200190815260200160002060000160139054906101000a900461ffff1661ffff16024201600b60006005600085815260200190815260200160002060070160009054906101000a90046001600160a01b03166001600160a01b03166001600160a01b0316815260200190815260200160002081905550600080516020613ed88339815191528c8c60036005600086815260200190815260200160002060070160009054906101000a90046001600160a01b0316604051808563ffffffff168152602001846001600160401b0316815260200183600381111561167d57fe5b8152602001826001600160a01b0316815260200194505050505060405180910390a15b50611708565b600080516020613ed88339815191528b8b600133604051808563ffffffff168152602001846001600160401b031681526020018360038111156116e557fe5b8152602001826001600160a01b0316815260200194505050505060405180910390a15b6040518061014001604052806001151581526020018a81526020016000801b815260200160046000336001600160a01b03166001600160a01b0316815260200190815260200160002060008581526020019081526020016000206003015481526020014281526020018981526020018b6001600160401b0316815260200160006001600160401b03168152602001600115158152602001336001600160a01b03168152506005600084815260200190815260200160002060008201518160000160006101000a81548160ff0219169083151502179055506020820151816001015560408201518160020155606082015181600301556080820151816004015560a0820151816005015560c08201518160060160006101000a8154816001600160401b0302191690836001600160401b0316021790555060e08201518160060160086101000a8154816001600160401b0302191690836001600160401b031602179055506101008201518160060160106101000a81548160ff0219169083151502179055506101208201518160070160006101000a8154816001600160a01b0302191690836001600160a01b031602179055509050506001600360008d63ffffffff1663ffffffff16815260200190815260200160002060000160158282829054906101000a90046001600160401b03160192506101000a8154816001600160401b0302191690836001600160401b0316021790555089600360008d63ffffffff1663ffffffff16815260200190815260200160002060010160006101000a8154816001600160401b0302191690836001600160401b0316021790555060006002600360008e63ffffffff1663ffffffff16815260200190815260200160002060040154600360008f63ffffffff1663ffffffff1681526020019081526020016000206002015460046000336001600160a01b03166001600160a01b031681526020019081526020016000206000878152602001908152602001600020600301540301816119f157fe5b63ffffffff8e16600090815260036020819052604090912001549190049150600202811115611a445763ffffffff8c16600090815260036020819052604090912090810154600202600490910155611a60565b63ffffffff8c1660009081526003602052604090206004018190555b60046000336001600160a01b03166001600160a01b03168152602001908152602001600020600084815260200190815260200160002060030154600360008e63ffffffff1663ffffffff16815260200190815260200160002060020181905550505b999a6000199990990199989650505050505050565b60005460ff1681565b600b6020526000908152604090205481565b63ffffffff811660009081526003602052604081205481908190819081908190879060ff16611b56576040805162461bcd60e51b815260206004820152601660248201526000805160206141ac833981519152604482015290519081900360640190fd5b600360008963ffffffff1663ffffffff168152602001908152602001600020600201549250600360008963ffffffff1663ffffffff168152602001908152602001600020600401549150600088600360008b63ffffffff1663ffffffff16815260200190815260200160002060000160159054906101000a90046001600160401b0316604051602001808363ffffffff1660e01b8152600401826001600160401b031660c01b81526008019250505060405160208183030381529060405280519060200120905060046000336001600160a01b03166001600160a01b03168152602001908152602001600020600082815260200190815260200160002060000160009054906101000a900460ff1615611c8b573360009081526004602081815260408084208585529091528220015490945092505b505063ffffffff969096166000908152600360205260409020805460019091015461010082046001600160401b0390811699600160a81b8404821699600160881b90940461ffff169850911695509193509150565b60056020819052600091825260409091208054600182015460028301546003840154600485015495850154600686015460079096015460ff958616979496939592949391926001600160401b0380841693600160401b810490911692600160801b909104909116906001600160a01b03168a565b63ffffffff8416600090815260036020526040812054819081908190606090899060ff16611db7576040805162461bcd60e51b815260206004820152601660248201526000805160206141ac833981519152604482015290519081900360640190fd5b88611dfe576040805162461bcd60e51b815260206004820152601260248201527107061796d656e7448617368203d3d203078360741b604482015290519081900360640190fd5b63ffffffff8a166000908152600360205260409020600101546001600160401b0316611e5b5760405162461bcd60e51b8152600401808060200182810382526029815260200180613ff86029913960400191505060405180910390fd5b41331480611e6c575041600160981b145b611ebd576040805162461bcd60e51b815260206004820152601c60248201527f696e76616c696420626c6f636b2e636f696e626173652076616c756500000000604482015290519081900360640190fd5b63ffffffff8a1660009081526008602090815260408083208c8452909152902060060154600160801b900460ff1615611f3d576040805162461bcd60e51b815260206004820152601a60248201527f7061796d656e744861736820616c72656164792070726f76656e000000000000604482015290519081900360640190fd5b63ffffffff8a166000908152600360205260409020600101546001600160401b0390811690891610611fa05760405162461bcd60e51b815260040180806020018281038252602e815260200180613fca602e913960400191505060405180910390fd5b63ffffffff8a166000908152600360205260409020546001600160401b036101008204811691600160481b900416156120815763ffffffff8b16600090815260036020526040902080546001909101546001600160401b03600160481b83048116610100909304811691811691909103161161204d5760405162461bcd60e51b81526004018080602001828103825260398152602001806141736039913960400191505060405180910390fd5b5063ffffffff8a16600090815260036020526040902080546001909101546001600160401b03600160481b90920482169116035b806001600160401b0316896001600160401b031610156120e8576040805162461bcd60e51b815260206004820152601a60248201527f6c6564676572203c20696e646578536561726368526567696f6e000000000000604482015290519081900360640190fd5b63ffffffff8b1660009081526006602090815260408083208d845290915281205460ff16156122665763ffffffff8c1660009081526006602090815260408083208e84529091529020600401544210156121735760405162461bcd60e51b81526004018080602001828103825260518152602001806140756051913960600191505060405180910390fd5b63ffffffff8c1660009081526006602090815260408083208e84529091529020600501548b146121e0576040805162461bcd60e51b81526020600482015260136024820152720d2dcecc2d8d2c840e0c2f2dacadce890c2e6d606b1b604482015290519081900360640190fd5b60025463ffffffff8d1660009081526006602090815260408083208f845290915290206003015442600160401b9092046001600160401b03160111612261576040805162461bcd60e51b815260206004820152601260248201527172657665616c20697320746f6f206c61746560701b604482015290519081900360640190fd5b6122a2565b413314801590612279575041600160981b145b156122a2575063ffffffff8b166000908152600360205260409020600101546001600160401b03165b41331480156122b5575041600160981b14155b156127105763ffffffff8c1660009081526006602090815260408083208e845290915290205460ff166124a2576040518061014001604052806001151581526020016000801b81526020016000801b8152602001428152602001600260009054906101000a90046001600160401b03166001600160401b0316420181526020018c81526020018b6001600160401b03168152602001836001600160401b03168152602001600015158152602001336001600160a01b0316815250600660008e63ffffffff1663ffffffff16815260200190815260200160002060008d815260200190815260200160002060008201518160000160006101000a81548160ff0219169083151502179055506020820151816001015560408201518160020155606082015181600301556080820151816004015560a0820151816005015560c08201518160060160006101000a8154816001600160401b0302191690836001600160401b0316021790555060e08201518160060160086101000a8154816001600160401b0302191690836001600160401b031602179055506101008201518160060160106101000a81548160ff0219169083151502179055506101208201518160070160006101000a8154816001600160a01b0302191690836001600160a01b03160217905550905050612710565b6040518061014001604052806001151581526020016000801b81526020016000801b8152602001600081526020014281526020018c81526020018b6001600160401b03168152602001836001600160401b03168152602001600115158152602001336001600160a01b0316815250600860008e63ffffffff1663ffffffff16815260200190815260200160002060008d815260200190815260200160002060008201518160000160006101000a81548160ff0219169083151502179055506020820151816001015560408201518160020155606082015181600301556080820151816004015560a0820151816005015560c08201518160060160006101000a8154816001600160401b0302191690836001600160401b0316021790555060e08201518160060160086101000a8154816001600160401b0302191690836001600160401b031602179055506101008201518160060160106101000a81548160ff0219169083151502179055506101208201518160070160006101000a8154816001600160a01b0302191690836001600160a01b031602179055509050507ff794f5b9b6791b3ab0eb97342cf2efbb7e710a478d4512a2505ea60c93fd85d38c8b8b8e33604051808663ffffffff168152602001856001600160401b0316815260200180602001848152602001836001600160a01b03168152602001828103825285818151815260200191508051906020019080838360005b838110156126d15781810151838201526020016126b9565b50505050905090810190601f1680156126fe5780820380516001836020036101000a031916815260200191505b50965050505050505060405180910390a15b9a9b989a99989650505050505050565b6002546001600160401b031681565b600a602052600090815260409020546001600160401b031681565b63ffffffff851660009081526003602052604081205481908190889060ff166127a8576040805162461bcd60e51b815260206004820152601660248201526000805160206141ac833981519152604482015290519081900360640190fd5b604080516001600160401b0388166020808301919091528251808303820181528284018452805190820120606083018c9052608083018b905260a083015260c08083018990528351808403909101815260e0909201835281519181019190912063ffffffff8c166000908152600883528381208282529092529190205460ff16612879576040805162461bcd60e51b815260206004820152601a60248201527f7061796d656e744861736820646f6573206e6f74206578697374000000000000604482015290519081900360640190fd5b63ffffffff8a16600090815260086020908152604080832084845290915290206005015481146128e6576040805162461bcd60e51b81526020600482015260136024820152720d2dcecc2d8d2c840e0c2f2dacadce890c2e6d606b1b604482015290519081900360640190fd5b63ffffffff9990991660009081526008602090815260408083209b83529a905298909820600601546001600160401b038082169a600160401b83049091169950600160801b90910460ff16975095505050505050565b63ffffffff8416600090815260036020526040812054819081908190606090899060ff1661299f576040805162461bcd60e51b815260206004820152601660248201526000805160206141ac833981519152604482015290519081900360640190fd5b886129e6576040805162461bcd60e51b815260206004820152601260248201527107061796d656e7448617368203d3d203078360741b604482015290519081900360640190fd5b63ffffffff8a166000908152600360205260409020600101546001600160401b0316612a435760405162461bcd60e51b8152600401808060200182810382526029815260200180613ff86029913960400191505060405180910390fd5b41331480612a54575041600160981b145b612aa5576040805162461bcd60e51b815260206004820152601c60248201527f696e76616c696420626c6f636b2e636f696e626173652076616c756500000000604482015290519081900360640190fd5b63ffffffff8a1660009081526008602090815260408083208c8452909152902060060154600160801b900460ff1615612b1b576040805162461bcd60e51b81526020600482015260136024820152723a3c24b21030b63932b0b23c90383937bb32b760691b604482015290519081900360640190fd5b63ffffffff8a1660009081526008602090815260408083208c84529091529020600601546001600160401b03808a16911610612b885760405162461bcd60e51b8152600401808060200182810382526037815260200180613f696037913960400191505060405180910390fd5b63ffffffff8a166000908152600360205260409020600101546001600160401b0390811690891610612beb5760405162461bcd60e51b815260040180806020018281038252602e815260200180613fca602e913960400191505060405180910390fd5b63ffffffff8a166000908152600360205260409020546001600160401b036101008204811691600160481b90041615612ccc5763ffffffff8b16600090815260036020526040902080546001909101546001600160401b03600160481b830481166101009093048116918116919091031611612c985760405162461bcd60e51b81526004018080602001828103825260398152602001806141736039913960400191505060405180910390fd5b5063ffffffff8a16600090815260036020526040902080546001909101546001600160401b03600160481b90920482169116035b806001600160401b0316896001600160401b03161015612d33576040805162461bcd60e51b815260206004820152601a60248201527f6c6564676572203c20696e646578536561726368526567696f6e000000000000604482015290519081900360640190fd5b63ffffffff8b1660009081526007602090815260408083208d845290915281205460ff1615612eb15763ffffffff8c1660009081526007602090815260408083208e8452909152902060040154421015612dbe5760405162461bcd60e51b81526004018080602001828103825260548152602001806140216054913960600191505060405180910390fd5b63ffffffff8c1660009081526007602090815260408083208e84529091529020600501548b14612e2b576040805162461bcd60e51b81526020600482015260136024820152720d2dcecc2d8d2c840e0c2f2dacadce890c2e6d606b1b604482015290519081900360640190fd5b60025463ffffffff8d1660009081526007602090815260408083208f845290915290206003015442600160401b9092046001600160401b03160111612eac576040805162461bcd60e51b815260206004820152601260248201527172657665616c20697320746f6f206c61746560701b604482015290519081900360640190fd5b612eed565b413314801590612ec4575041600160981b145b15612eed575063ffffffff8b166000908152600360205260409020600101546001600160401b03165b4133148015612f00575041600160981b14155b156127105763ffffffff8c1660009081526007602090815260408083208e845290915290205460ff166130ed576040518061014001604052806001151581526020016000801b81526020016000801b8152602001428152602001600260009054906101000a90046001600160401b03166001600160401b0316420181526020018c81526020018b6001600160401b03168152602001836001600160401b03168152602001600015158152602001336001600160a01b0316815250600760008e63ffffffff1663ffffffff16815260200190815260200160002060008d815260200190815260200160002060008201518160000160006101000a81548160ff0219169083151502179055506020820151816001015560408201518160020155606082015181600301556080820151816004015560a0820151816005015560c08201518160060160006101000a8154816001600160401b0302191690836001600160401b0316021790555060e08201518160060160086101000a8154816001600160401b0302191690836001600160401b031602179055506101008201518160060160106101000a81548160ff0219169083151502179055506101208201518160070160006101000a8154816001600160a01b0302191690836001600160a01b03160217905550905050612710565b6040518061014001604052806001151581526020016000801b81526020016000801b8152602001600081526020014281526020018c81526020018b6001600160401b03168152602001836001600160401b03168152602001600015158152602001336001600160a01b0316815250600860008e63ffffffff1663ffffffff16815260200190815260200160002060008d815260200190815260200160002060008201518160000160006101000a81548160ff0219169083151502179055506020820151816001015560408201518160020155606082015181600301556080820151816004015560a0820151816005015560c08201518160060160006101000a8154816001600160401b0302191690836001600160401b0316021790555060e08201518160060160086101000a8154816001600160401b0302191690836001600160401b031602179055506101008201518160060160106101000a81548160ff0219169083151502179055506101208201518160070160006101000a8154816001600160a01b0302191690836001600160a01b031602179055509050507ff794f5b9b6791b3ab0eb97342cf2efbb7e710a478d4512a2505ea60c93fd85d38c8b8b8e33604051808663ffffffff168152602001856001600160401b0316815260200180602001848152602001836001600160a01b0316815260200182810382528581815181526020019150805190602001908083836000838110156126d15781810151838201526020016126b9565b60036020819052600091825260409091208054600182015460028301549383015460049093015460ff8316946001600160401b036101008504811695600160481b860482169561ffff600160881b8204811696600160981b830490911695600160a81b90920484169493169291908a565b600254600160801b90046001600160401b031681565b63ffffffff8216600090815260036020526040812054839060ff166133fc576040805162461bcd60e51b815260206004820152601660248201526000805160206141ac833981519152604482015290519081900360640190fd5b50506040805160e09390931b6001600160e01b03191660208085019190915260c09290921b6001600160c01b03191660248401528051808403600c018152602c909301815282519282019290922060009081526005909152205460ff1690565b6000600154421161349e5760405162461bcd60e51b81526004018080602001828103825260218152602001806140c66021913960400191505060405180910390fd5b600254600154600160801b9091046001600160401b0316904203816134bf57fe5b04905090565b60096020908152600092835260408084209091529082529020546001600160401b031681565b600254600160401b90046001600160401b031681565b600054610100900463ffffffff1681565b60086020908152600092835260408084209091529082529020805460018201546002830154600384015460048501546005860154600687015460079097015460ff96871697959694959394929391926001600160401b0380841693600160401b810490911692600160801b909104909116906001600160a01b03168a565b6000908152600a60205260409020546001600160401b031690565b6001600160a01b0391909116600090815260096020908152604080832093835292905220546001600160401b031690565b6000805460ff161561362c576040805162461bcd60e51b8152602060048201526014602482015273696e697469616c6973656420213d2066616c736560601b604482015290519081900360640190fd5b604051806101400160405280600115158152602001620a84946001600160401b0316815260200160006001600160401b03168152602001600161ffff168152602001600461ffff16815260200160006001600160401b03168152602001620a84946001600160401b0316815260200142815260200161038481526020016000815250600360008063ffffffff16815260200190815260200160002060008201518160000160006101000a81548160ff02191690831515021790555060208201518160000160016101000a8154816001600160401b0302191690836001600160401b0316021790555060408201518160000160096101000a8154816001600160401b0302191690836001600160401b0316021790555060608201518160000160116101000a81548161ffff021916908361ffff16021790555060808201518160000160136101000a81548161ffff021916908361ffff16021790555060a08201518160000160156101000a8154816001600160401b0302191690836001600160401b0316021790555060c08201518160010160006101000a8154816001600160401b0302191690836001600160401b0316021790555060e0820151816002015561010082015181600301556101208201518160040155905050604051806101400160405280600115158152602001621fd4de6001600160401b0316815260200160006001600160401b03168152602001600161ffff168152602001600c61ffff16815260200160006001600160401b03168152602001621fd4de6001600160401b0316815260200142815260200160968152602001600081525060036000600163ffffffff16815260200190815260200160002060008201518160000160006101000a81548160ff02191690831515021790555060208201518160000160016101000a8154816001600160401b0302191690836001600160401b0316021790555060408201518160000160096101000a8154816001600160401b0302191690836001600160401b0316021790555060608201518160000160116101000a81548161ffff021916908361ffff16021790555060808201518160000160136101000a81548161ffff021916908361ffff16021790555060a08201518160000160156101000a8154816001600160401b0302191690836001600160401b0316021790555060c08201518160010160006101000a8154816001600160401b0302191690836001600160401b0316021790555060e0820151816002015561010082015181600301556101208201518160040155905050604051806101400160405280600115158152602001623980b46001600160401b0316815260200160006001600160401b03168152602001600261ffff168152602001602861ffff16815260200160006001600160401b03168152602001623980b46001600160401b0316815260200142815260200160788152602001600081525060036000600263ffffffff16815260200190815260200160002060008201518160000160006101000a81548160ff02191690831515021790555060208201518160000160016101000a8154816001600160401b0302191690836001600160401b0316021790555060408201518160000160096101000a8154816001600160401b0302191690836001600160401b0316021790555060608201518160000160116101000a81548161ffff021916908361ffff16021790555060808201518160000160136101000a81548161ffff021916908361ffff16021790555060a08201518160000160156101000a8154816001600160401b0302191690836001600160401b0316021790555060c08201518160010160006101000a8154816001600160401b0302191690836001600160401b0316021790555060e08201518160020155610100820151816003015561012082015181600401559050506040518061014001604052806001151581526020016303bf79006001600160401b0316815260200160006001600160401b03168152602001601e61ffff168152602001600161ffff16815260200160006001600160401b031681526020016303bf79006001600160401b0316815260200142815260200160788152602001600081525060036000600363ffffffff16815260200190815260200160002060008201518160000160006101000a81548160ff02191690831515021790555060208201518160000160016101000a8154816001600160401b0302191690836001600160401b0316021790555060408201518160000160096101000a8154816001600160401b0302191690836001600160401b0316021790555060608201518160000160116101000a81548161ffff021916908361ffff16021790555060808201518160000160136101000a81548161ffff021916908361ffff16021790555060a08201518160000160156101000a8154816001600160401b0302191690836001600160401b0316021790555060c08201518160010160006101000a8154816001600160401b0302191690836001600160401b0316021790555060e08201518160020155610100820151816003015561012082015181600401559050506004600060016101000a81548163ffffffff021916908363ffffffff160217905550601e600260006101000a8154816001600160401b0302191690836001600160401b0316021790555062015180600260086101000a8154816001600160401b0302191690836001600160401b0316021790555062093a80600260106101000a8154816001600160401b0302191690836001600160401b031602179055504260018190555060016000806101000a81548160ff0219169083151502179055506001905090565b60015481565b600760208181526000938452604080852090915291835291208054600182015460028301546003840154600485015460058601546006870154969097015460ff95861697949693959294919391926001600160401b0380841693600160401b810490911692600160801b909104909116906001600160a01b03168a56fe50fbe878649db954bd70bc8bf6cddb898a758966802e8d88702697e6f362ec2d6e6f7420656e6f7567682074696d6520656c61707365642073696e6365207072696f722066696e616c6974796d73672e73656e6465722069732063757272656e746c792062616e6e656420666f722073656e64696e6720616e20756e616363657074656420636861696e5469704861736866696e616c697365645061796d656e74735b636861696e49645d5b7061796d656e74486173685d2e696e646578203e3d206c656467657270726576696f75732064617461417661696c506572696f64206e6f74207965742066696e616c697365646c6564676572203e3d20636861696e735b636861696e49645d2e66696e616c697365644c6564676572496e646578636861696e735b636861696e49645d2e66696e616c697365644c6564676572496e646578203d3d2030626c6f636b2e74696d657374616d70203c2070726f706f7365644e6f6e5061796d656e7450726f6f66735b636861696e49645d5b7061796d656e74486173685d2e7065726d697474656452657665616c54696d65626c6f636b2e74696d657374616d70203c2070726f706f7365645061796d656e7450726f6f66735b636861696e49645d5b7061796d656e74486173685d2e7065726d697474656452657665616c54696d65626c6f636b2e74696d657374616d70203c3d20696e697469616c69736554696d65626c6f636b2e74696d657374616d70203c2070726f706f73656444617461417661696c50726f6f66735b6d73672e73656e6465725d5b6c6f636174696f6e486173685d2e7065726d697474656452657665616c54696d65626c6f636b2e74696d657374616d70203c3d20636861696e735b636861696e49645d2e66696e616c6973656454696d657374616d7066696e616c697365644c6564676572496e646578202d2067656e657369734c6564676572203c3d206c6564676572486973746f727953697a65636861696e496420646f6573206e6f7420657869737400000000000000000000a2646970667358221220b90590dec278a2f1fedb5c8bab77f82f82c83687908196279579bf9ca6ab151964736f6c63430007060033",
    "sourcePath": "/home/my-usern/flare/src/stateco/StateConnector.sol",
    "compiler": {
        "name": "solc",
        "version": "0.7.6+commit.7338295f"
    },
    "functionHashes": {
        "chains(uint32)": "8b203dd4",
        "dataAvailPeriodsMined(address,uint256)": "b02bca3c",
        "disprovePaymentFinality(uint32,bytes32,uint64,string)": "7f582432",
        "finalisedDataAvailPeriods(bytes32)": "34cb37c7",
        "finalisedPayments(uint32,bytes32)": "d46117aa",
        "getDataAvailPeriodIndexFinality(uint32,uint64)": "a79ab7f6",
        "getDataAvailPeriodsMined(address,uint256)": "e8b174b4",
        "getLatestIndex(uint32)": "2a2434a2",
        "getPaymentFinality(uint32,bytes32,bytes32,uint64,bytes32)": "71e8d61a",
        "getRewardPeriod()": "adc89032",
        "getTotalDataAvailPeriodsMined(uint256)": "e3fe3fbf",
        "initialiseChains()": "ef4c169e",
        "initialiseTime()": "f9c490ee",
        "initialised()": "07003bb4",
        "numChains()": "d3fb3e9f",
        "paymentCommitDelay()": "464c6e93",
        "proposedDataAvailProofs(address,bytes32)": "0214b9c6",
        "proposedNonPaymentProofs(uint32,bytes32)": "fade26ae",
        "proposedPaymentProofs(uint32,bytes32)": "00192843",
        "proveDataAvailPeriodFinality(uint32,uint64,bytes32,bytes32)": "0525cb9c",
        "provePaymentFinality(uint32,bytes32,uint64,string)": "388492dd",
        "revealTimespan()": "cbdd1882",
        "rewardPeriodTimespan()": "9c531f8c",
        "senderBannedUntil(address)": "22ce7387",
        "totalDataAvailPeriodsMined(uint256)": "4897b35b"
    },
    "gasEstimates": {
        "creation": {
            "codeDepositCost": "3379400",
            "executionCost": "3771",
            "totalCost": "3383171"
        },
        "external": {
            "chains(uint32)": "4795",
            "dataAvailPeriodsMined(address,uint256)": "1361",
            "disprovePaymentFinality(uint32,bytes32,uint64,string)": "infinite",
            "finalisedDataAvailPeriods(bytes32)": "7192",
            "finalisedPayments(uint32,bytes32)": "7323",
            "getDataAvailPeriodIndexFinality(uint32,uint64)": "infinite",
            "getDataAvailPeriodsMined(address,uint256)": "1318",
            "getLatestIndex(uint32)": "infinite",
            "getPaymentFinality(uint32,bytes32,bytes32,uint64,bytes32)": "infinite",
            "getRewardPeriod()": "infinite",
            "getTotalDataAvailPeriodsMined(uint256)": "1234",
            "initialiseChains()": "893541",
            "initialiseTime()": "1086",
            "initialised()": "1100",
            "numChains()": "1069",
            "paymentCommitDelay()": "1104",
            "proposedDataAvailProofs(address,bytes32)": "7308",
            "proposedNonPaymentProofs(uint32,bytes32)": "7366",
            "proposedPaymentProofs(uint32,bytes32)": "7280",
            "proveDataAvailPeriodFinality(uint32,uint64,bytes32,bytes32)": "infinite",
            "provePaymentFinality(uint32,bytes32,uint64,string)": "infinite",
            "revealTimespan()": "1187",
            "rewardPeriodTimespan()": "1099",
            "senderBannedUntil(address)": "1236",
            "totalDataAvailPeriodsMined(uint256)": "1234"
        }
    }
}